{
  "contracts/ChainBattles.sol": {
    "ChainBattles": {
      "abi": [
        {
          "inputs": [],
          "stateMutability": "nonpayable",
          "type": "constructor"
        },
        {
          "anonymous": false,
          "inputs": [
            {
              "indexed": true,
              "internalType": "address",
              "name": "owner",
              "type": "address"
            },
            {
              "indexed": true,
              "internalType": "address",
              "name": "approved",
              "type": "address"
            },
            {
              "indexed": true,
              "internalType": "uint256",
              "name": "tokenId",
              "type": "uint256"
            }
          ],
          "name": "Approval",
          "type": "event"
        },
        {
          "anonymous": false,
          "inputs": [
            {
              "indexed": true,
              "internalType": "address",
              "name": "owner",
              "type": "address"
            },
            {
              "indexed": true,
              "internalType": "address",
              "name": "operator",
              "type": "address"
            },
            {
              "indexed": false,
              "internalType": "bool",
              "name": "approved",
              "type": "bool"
            }
          ],
          "name": "ApprovalForAll",
          "type": "event"
        },
        {
          "anonymous": false,
          "inputs": [
            {
              "indexed": true,
              "internalType": "address",
              "name": "from",
              "type": "address"
            },
            {
              "indexed": true,
              "internalType": "address",
              "name": "to",
              "type": "address"
            },
            {
              "indexed": true,
              "internalType": "uint256",
              "name": "tokenId",
              "type": "uint256"
            }
          ],
          "name": "Transfer",
          "type": "event"
        },
        {
          "inputs": [
            {
              "internalType": "address",
              "name": "to",
              "type": "address"
            },
            {
              "internalType": "uint256",
              "name": "tokenId",
              "type": "uint256"
            }
          ],
          "name": "approve",
          "outputs": [],
          "stateMutability": "nonpayable",
          "type": "function"
        },
        {
          "inputs": [
            {
              "internalType": "address",
              "name": "owner",
              "type": "address"
            }
          ],
          "name": "balanceOf",
          "outputs": [
            {
              "internalType": "uint256",
              "name": "",
              "type": "uint256"
            }
          ],
          "stateMutability": "view",
          "type": "function"
        },
        {
          "inputs": [
            {
              "internalType": "uint256",
              "name": "tokenId",
              "type": "uint256"
            }
          ],
          "name": "generateCharacter",
          "outputs": [
            {
              "internalType": "string",
              "name": "",
              "type": "string"
            }
          ],
          "stateMutability": "nonpayable",
          "type": "function"
        },
        {
          "inputs": [
            {
              "internalType": "uint256",
              "name": "tokenId",
              "type": "uint256"
            }
          ],
          "name": "getApproved",
          "outputs": [
            {
              "internalType": "address",
              "name": "",
              "type": "address"
            }
          ],
          "stateMutability": "view",
          "type": "function"
        },
        {
          "inputs": [
            {
              "internalType": "uint256",
              "name": "tokenId",
              "type": "uint256"
            }
          ],
          "name": "getLevels",
          "outputs": [
            {
              "internalType": "string",
              "name": "",
              "type": "string"
            }
          ],
          "stateMutability": "view",
          "type": "function"
        },
        {
          "inputs": [
            {
              "internalType": "uint256",
              "name": "tokenId",
              "type": "uint256"
            }
          ],
          "name": "getTokenURI",
          "outputs": [
            {
              "internalType": "string",
              "name": "",
              "type": "string"
            }
          ],
          "stateMutability": "nonpayable",
          "type": "function"
        },
        {
          "inputs": [
            {
              "internalType": "address",
              "name": "owner",
              "type": "address"
            },
            {
              "internalType": "address",
              "name": "operator",
              "type": "address"
            }
          ],
          "name": "isApprovedForAll",
          "outputs": [
            {
              "internalType": "bool",
              "name": "",
              "type": "bool"
            }
          ],
          "stateMutability": "view",
          "type": "function"
        },
        {
          "inputs": [],
          "name": "mint",
          "outputs": [],
          "stateMutability": "nonpayable",
          "type": "function"
        },
        {
          "inputs": [],
          "name": "name",
          "outputs": [
            {
              "internalType": "string",
              "name": "",
              "type": "string"
            }
          ],
          "stateMutability": "view",
          "type": "function"
        },
        {
          "inputs": [
            {
              "internalType": "uint256",
              "name": "tokenId",
              "type": "uint256"
            }
          ],
          "name": "ownerOf",
          "outputs": [
            {
              "internalType": "address",
              "name": "",
              "type": "address"
            }
          ],
          "stateMutability": "view",
          "type": "function"
        },
        {
          "inputs": [
            {
              "internalType": "address",
              "name": "from",
              "type": "address"
            },
            {
              "internalType": "address",
              "name": "to",
              "type": "address"
            },
            {
              "internalType": "uint256",
              "name": "tokenId",
              "type": "uint256"
            }
          ],
          "name": "safeTransferFrom",
          "outputs": [],
          "stateMutability": "nonpayable",
          "type": "function"
        },
        {
          "inputs": [
            {
              "internalType": "address",
              "name": "from",
              "type": "address"
            },
            {
              "internalType": "address",
              "name": "to",
              "type": "address"
            },
            {
              "internalType": "uint256",
              "name": "tokenId",
              "type": "uint256"
            },
            {
              "internalType": "bytes",
              "name": "_data",
              "type": "bytes"
            }
          ],
          "name": "safeTransferFrom",
          "outputs": [],
          "stateMutability": "nonpayable",
          "type": "function"
        },
        {
          "inputs": [
            {
              "internalType": "address",
              "name": "operator",
              "type": "address"
            },
            {
              "internalType": "bool",
              "name": "approved",
              "type": "bool"
            }
          ],
          "name": "setApprovalForAll",
          "outputs": [],
          "stateMutability": "nonpayable",
          "type": "function"
        },
        {
          "inputs": [
            {
              "internalType": "bytes4",
              "name": "interfaceId",
              "type": "bytes4"
            }
          ],
          "name": "supportsInterface",
          "outputs": [
            {
              "internalType": "bool",
              "name": "",
              "type": "bool"
            }
          ],
          "stateMutability": "view",
          "type": "function"
        },
        {
          "inputs": [],
          "name": "symbol",
          "outputs": [
            {
              "internalType": "string",
              "name": "",
              "type": "string"
            }
          ],
          "stateMutability": "view",
          "type": "function"
        },
        {
          "inputs": [
            {
              "internalType": "uint256",
              "name": "",
              "type": "uint256"
            }
          ],
          "name": "tokenIdToLevels",
          "outputs": [
            {
              "internalType": "uint256",
              "name": "",
              "type": "uint256"
            }
          ],
          "stateMutability": "view",
          "type": "function"
        },
        {
          "inputs": [
            {
              "internalType": "uint256",
              "name": "tokenId",
              "type": "uint256"
            }
          ],
          "name": "tokenURI",
          "outputs": [
            {
              "internalType": "string",
              "name": "",
              "type": "string"
            }
          ],
          "stateMutability": "view",
          "type": "function"
        },
        {
          "inputs": [
            {
              "internalType": "uint256",
              "name": "tokenId",
              "type": "uint256"
            }
          ],
          "name": "train",
          "outputs": [],
          "stateMutability": "nonpayable",
          "type": "function"
        },
        {
          "inputs": [
            {
              "internalType": "address",
              "name": "from",
              "type": "address"
            },
            {
              "internalType": "address",
              "name": "to",
              "type": "address"
            },
            {
              "internalType": "uint256",
              "name": "tokenId",
              "type": "uint256"
            }
          ],
          "name": "transferFrom",
          "outputs": [],
          "stateMutability": "nonpayable",
          "type": "function"
        }
      ],
      "evm": {
        "bytecode": {
          "linkReferences": {},
          "object": "60806040523480156200001157600080fd5b506040518060400160405280600d81526020017f436861696e20426174746c6573000000000000000000000000000000000000008152506040518060400160405280600581526020017f4342544c53000000000000000000000000000000000000000000000000000000815250816000908051906020019062000096929190620000b8565b508060019080519060200190620000af929190620000b8565b505050620001cd565b828054620000c69062000197565b90600052602060002090601f016020900481019282620000ea576000855562000136565b82601f106200010557805160ff191683800117855562000136565b8280016001018555821562000136579182015b828111156200013557825182559160200191906001019062000118565b5b50905062000145919062000149565b5090565b5b80821115620001645760008160009055506001016200014a565b5090565b7f4e487b7100000000000000000000000000000000000000000000000000000000600052602260045260246000fd5b60006002820490506001821680620001b057607f821691505b60208210811415620001c757620001c662000168565b5b50919050565b6138ea80620001dd6000396000f3fe608060405234801561001057600080fd5b50600436106101215760003560e01c806342842e0e116100ad578063b88d4fde11610071578063b88d4fde14610318578063c6a4342f14610334578063c87b56dd14610364578063e985e9c514610394578063f43785f9146103c457610121565b806342842e0e146102625780636352211e1461027e57806370a08231146102ae57806395d89b41146102de578063a22cb465146102fc57610121565b80630daefed5116100f45780630daefed5146101c05780631249c58b146101f057806323b872dd146101fa578063368004ed146102165780633bb3a24d1461023257610121565b806301ffc9a71461012657806306fdde0314610156578063081812fc14610174578063095ea7b3146101a4575b600080fd5b610140600480360381019061013b9190611de9565b6103f4565b60405161014d9190611e31565b60405180910390f35b61015e6104d6565b60405161016b9190611ee5565b60405180910390f35b61018e60048036038101906101899190611f3d565b610568565b60405161019b9190611fab565b60405180910390f35b6101be60048036038101906101b99190611ff2565b6105ed565b005b6101da60048036038101906101d59190611f3d565b610705565b6040516101e79190611ee5565b60405180910390f35b6101f8610763565b005b610214600480360381019061020f9190612032565b6107b3565b005b610230600480360381019061022b9190611f3d565b610813565b005b61024c60048036038101906102479190611f3d565b6108ed565b6040516102599190611ee5565b60405180910390f35b61027c60048036038101906102779190612032565b610955565b005b61029860048036038101906102939190611f3d565b610975565b6040516102a59190611fab565b60405180910390f35b6102c860048036038101906102c39190612085565b610a27565b6040516102d591906120c1565b60405180910390f35b6102e6610adf565b6040516102f39190611ee5565b60405180910390f35b61031660048036038101906103119190612108565b610b71565b005b610332600480360381019061032d919061227d565b610b87565b005b61034e60048036038101906103499190611f3d565b610be9565b60405161035b91906120c1565b60405180910390f35b61037e60048036038101906103799190611f3d565b610c01565b60405161038b9190611ee5565b60405180910390f35b6103ae60048036038101906103a99190612300565b610d53565b6040516103bb9190611e31565b60405180910390f35b6103de60048036038101906103d99190611f3d565b610de7565b6040516103eb9190611ee5565b60405180910390f35b60007f80ac58cd000000000000000000000000000000000000000000000000000000007bffffffffffffffffffffffffffffffffffffffffffffffffffffffff1916827bffffffffffffffffffffffffffffffffffffffffffffffffffffffff191614806104bf57507f5b5e139f000000000000000000000000000000000000000000000000000000007bffffffffffffffffffffffffffffffffffffffffffffffffffffffff1916827bffffffffffffffffffffffffffffffffffffffffffffffffffffffff1916145b806104cf57506104ce82610e12565b5b9050919050565b6060600080546104e59061236f565b80601f01602080910402602001604051908101604052809291908181526020018280546105119061236f565b801561055e5780601f106105335761010080835404028352916020019161055e565b820191906000526020600020905b81548152906001019060200180831161054157829003601f168201915b5050505050905090565b600061057382610e7c565b6105b2576040517f08c379a00000000000000000000000000000000000000000000000000000000081526004016105a990612413565b60405180910390fd5b6004600083815260200190815260200160002060009054906101000a900473ffffffffffffffffffffffffffffffffffffffff169050919050565b60006105f882610975565b90508073ffffffffffffffffffffffffffffffffffffffff168373ffffffffffffffffffffffffffffffffffffffff161415610669576040517f08c379a0000000000000000000000000000000000000000000000000000000008152600401610660906124a5565b60405180910390fd5b8073ffffffffffffffffffffffffffffffffffffffff16610688610ee8565b73ffffffffffffffffffffffffffffffffffffffff1614806106b757506106b6816106b1610ee8565b610d53565b5b6106f6576040517f08c379a00000000000000000000000000000000000000000000000000000000081526004016106ed90612537565b60405180910390fd5b6107008383610ef0565b505050565b6060600061071283610de7565b60405160200161072291906129bb565b604051602081830303815290604052905061073c81610fa9565b60405160200161074c9190612a8c565b604051602081830303815290604052915050919050565b61076d600761110d565b60006107796007611123565b90506107853382611131565b600060086000838152602001908152602001600020819055506107b0816107ab836108ed565b61114f565b50565b6107c46107be610ee8565b826111c3565b610803576040517f08c379a00000000000000000000000000000000000000000000000000000000081526004016107fa90612b20565b60405180910390fd5b61080e8383836112a1565b505050565b61081c81610e7c565b61082557600080fd5b3373ffffffffffffffffffffffffffffffffffffffff1661084582610975565b73ffffffffffffffffffffffffffffffffffffffff161461089b576040517f08c379a000000000000000000000000000000000000000000000000000000000815260040161089290612bb2565b60405180910390fd5b6000600860008381526020019081526020016000205490506001816108c09190612c01565b60086000848152602001908152602001600020819055506108e9826108e4846108ed565b61114f565b5050565b606060006108fa83611508565b61090384610705565b604051602001610914929190612e91565b604051602081830303815290604052905061092e81610fa9565b60405160200161093e9190612f4e565b604051602081830303815290604052915050919050565b61097083838360405180602001604052806000815250610b87565b505050565b6000806002600084815260200190815260200160002060009054906101000a900473ffffffffffffffffffffffffffffffffffffffff169050600073ffffffffffffffffffffffffffffffffffffffff168173ffffffffffffffffffffffffffffffffffffffff161415610a1e576040517f08c379a0000000000000000000000000000000000000000000000000000000008152600401610a1590612fe2565b60405180910390fd5b80915050919050565b60008073ffffffffffffffffffffffffffffffffffffffff168273ffffffffffffffffffffffffffffffffffffffff161415610a98576040517f08c379a0000000000000000000000000000000000000000000000000000000008152600401610a8f90613074565b60405180910390fd5b600360008373ffffffffffffffffffffffffffffffffffffffff1673ffffffffffffffffffffffffffffffffffffffff168152602001908152602001600020549050919050565b606060018054610aee9061236f565b80601f0160208091040260200160405190810160405280929190818152602001828054610b1a9061236f565b8015610b675780601f10610b3c57610100808354040283529160200191610b67565b820191906000526020600020905b815481529060010190602001808311610b4a57829003601f168201915b5050505050905090565b610b83610b7c610ee8565b8383611669565b5050565b610b98610b92610ee8565b836111c3565b610bd7576040517f08c379a0000000000000000000000000000000000000000000000000000000008152600401610bce90612b20565b60405180910390fd5b610be3848484846117d6565b50505050565b60086020528060005260406000206000915090505481565b6060610c0c82610e7c565b610c4b576040517f08c379a0000000000000000000000000000000000000000000000000000000008152600401610c4290613106565b60405180910390fd5b6000600660008481526020019081526020016000208054610c6b9061236f565b80601f0160208091040260200160405190810160405280929190818152602001828054610c979061236f565b8015610ce45780601f10610cb957610100808354040283529160200191610ce4565b820191906000526020600020905b815481529060010190602001808311610cc757829003601f168201915b505050505090506000610cf5611832565b9050600081511415610d0b578192505050610d4e565b600082511115610d40578082604051602001610d28929190613126565b60405160208183030381529060405292505050610d4e565b610d4984611849565b925050505b919050565b6000600560008473ffffffffffffffffffffffffffffffffffffffff1673ffffffffffffffffffffffffffffffffffffffff16815260200190815260200160002060008373ffffffffffffffffffffffffffffffffffffffff1673ffffffffffffffffffffffffffffffffffffffff16815260200190815260200160002060009054906101000a900460ff16905092915050565b6060600060086000848152602001908152602001600020549050610e0a81611508565b915050919050565b60007f01ffc9a7000000000000000000000000000000000000000000000000000000007bffffffffffffffffffffffffffffffffffffffffffffffffffffffff1916827bffffffffffffffffffffffffffffffffffffffffffffffffffffffff1916149050919050565b60008073ffffffffffffffffffffffffffffffffffffffff166002600084815260200190815260200160002060009054906101000a900473ffffffffffffffffffffffffffffffffffffffff1673ffffffffffffffffffffffffffffffffffffffff1614159050919050565b600033905090565b816004600083815260200190815260200160002060006101000a81548173ffffffffffffffffffffffffffffffffffffffff021916908373ffffffffffffffffffffffffffffffffffffffff160217905550808273ffffffffffffffffffffffffffffffffffffffff16610f6383610975565b73ffffffffffffffffffffffffffffffffffffffff167f8c5be1e5ebec7d5bd14f71427d1e84f3dd0314c0f7b2291e5b200ac8c7c3b92560405160405180910390a45050565b6060600082511415610fcc57604051806020016040528060008152509050611108565b60006040518060600160405280604081526020016138756040913990506000600360028551610ffb9190612c01565b6110059190613179565b600461101191906131aa565b67ffffffffffffffff81111561102a57611029612152565b5b6040519080825280601f01601f19166020018201604052801561105c5781602001600182028036833780820191505090505b509050600182016020820185865187015b808210156110c8576003820191508151603f8160121c168501518453600184019350603f81600c1c168501518453600184019350603f8160061c168501518453600184019350603f811685015184536001840193505061106d565b50506003865106600181146110e457600281146110f7576110ff565b603d6001830353603d60028303536110ff565b603d60018303535b50505080925050505b919050565b6001816000016000828254019250508190555050565b600081600001549050919050565b61114b8282604051806020016040528060008152506118f0565b5050565b61115882610e7c565b611197576040517f08c379a000000000000000000000000000000000000000000000000000000000815260040161118e90613276565b60405180910390fd5b806006600084815260200190815260200160002090805190602001906111be929190611cda565b505050565b60006111ce82610e7c565b61120d576040517f08c379a000000000000000000000000000000000000000000000000000000000815260040161120490613308565b60405180910390fd5b600061121883610975565b90508073ffffffffffffffffffffffffffffffffffffffff168473ffffffffffffffffffffffffffffffffffffffff16148061125a57506112598185610d53565b5b8061129857508373ffffffffffffffffffffffffffffffffffffffff1661128084610568565b73ffffffffffffffffffffffffffffffffffffffff16145b91505092915050565b8273ffffffffffffffffffffffffffffffffffffffff166112c182610975565b73ffffffffffffffffffffffffffffffffffffffff1614611317576040517f08c379a000000000000000000000000000000000000000000000000000000000815260040161130e9061339a565b60405180910390fd5b600073ffffffffffffffffffffffffffffffffffffffff168273ffffffffffffffffffffffffffffffffffffffff161415611387576040517f08c379a000000000000000000000000000000000000000000000000000000000815260040161137e9061342c565b60405180910390fd5b61139283838361194b565b61139d600082610ef0565b6001600360008573ffffffffffffffffffffffffffffffffffffffff1673ffffffffffffffffffffffffffffffffffffffff16815260200190815260200160002060008282546113ed919061344c565b925050819055506001600360008473ffffffffffffffffffffffffffffffffffffffff1673ffffffffffffffffffffffffffffffffffffffff16815260200190815260200160002060008282546114449190612c01565b92505081905550816002600083815260200190815260200160002060006101000a81548173ffffffffffffffffffffffffffffffffffffffff021916908373ffffffffffffffffffffffffffffffffffffffff160217905550808273ffffffffffffffffffffffffffffffffffffffff168473ffffffffffffffffffffffffffffffffffffffff167fddf252ad1be2c89b69c2b068fc378daa952ba7f163c4a11628f55a4df523b3ef60405160405180910390a4611503838383611950565b505050565b60606000821415611550576040518060400160405280600181526020017f30000000000000000000000000000000000000000000000000000000000000008152509050611664565b600082905060005b6000821461158257808061156b90613480565b915050600a8261157b9190613179565b9150611558565b60008167ffffffffffffffff81111561159e5761159d612152565b5b6040519080825280601f01601f1916602001820160405280156115d05781602001600182028036833780820191505090505b5090505b6000851461165d576001826115e9919061344c565b9150600a856115f891906134c9565b60306116049190612c01565b60f81b81838151811061161a576116196134fa565b5b60200101907effffffffffffffffffffffffffffffffffffffffffffffffffffffffffffff1916908160001a905350600a856116569190613179565b94506115d4565b8093505050505b919050565b8173ffffffffffffffffffffffffffffffffffffffff168373ffffffffffffffffffffffffffffffffffffffff1614156116d8576040517f08c379a00000000000000000000000000000000000000000000000000000000081526004016116cf90613575565b60405180910390fd5b80600560008573ffffffffffffffffffffffffffffffffffffffff1673ffffffffffffffffffffffffffffffffffffffff16815260200190815260200160002060008473ffffffffffffffffffffffffffffffffffffffff1673ffffffffffffffffffffffffffffffffffffffff16815260200190815260200160002060006101000a81548160ff0219169083151502179055508173ffffffffffffffffffffffffffffffffffffffff168373ffffffffffffffffffffffffffffffffffffffff167f17307eab39ab6107e8899845ad3d59bd9653f200f220920489ca2b5937696c31836040516117c99190611e31565b60405180910390a3505050565b6117e18484846112a1565b6117ed84848484611955565b61182c576040517f08c379a000000000000000000000000000000000000000000000000000000000815260040161182390613607565b60405180910390fd5b50505050565b606060405180602001604052806000815250905090565b606061185482610e7c565b611893576040517f08c379a000000000000000000000000000000000000000000000000000000000815260040161188a90613699565b60405180910390fd5b600061189d611832565b905060008151116118bd57604051806020016040528060008152506118e8565b806118c784611508565b6040516020016118d8929190613126565b6040516020818303038152906040525b915050919050565b6118fa8383611add565b6119076000848484611955565b611946576040517f08c379a000000000000000000000000000000000000000000000000000000000815260040161193d90613607565b60405180910390fd5b505050565b505050565b505050565b60006119768473ffffffffffffffffffffffffffffffffffffffff16611cb7565b15611ad0578373ffffffffffffffffffffffffffffffffffffffff1663150b7a0261199f610ee8565b8786866040518563ffffffff1660e01b81526004016119c1949392919061370e565b6020604051808303816000875af19250505080156119fd57506040513d601f19601f820116820180604052508101906119fa919061376f565b60015b611a80573d8060008114611a2d576040519150601f19603f3d011682016040523d82523d6000602084013e611a32565b606091505b50600081511415611a78576040517f08c379a0000000000000000000000000000000000000000000000000000000008152600401611a6f90613607565b60405180910390fd5b805181602001fd5b63150b7a0260e01b7bffffffffffffffffffffffffffffffffffffffffffffffffffffffff1916817bffffffffffffffffffffffffffffffffffffffffffffffffffffffff191614915050611ad5565b600190505b949350505050565b600073ffffffffffffffffffffffffffffffffffffffff168273ffffffffffffffffffffffffffffffffffffffff161415611b4d576040517f08c379a0000000000000000000000000000000000000000000000000000000008152600401611b44906137e8565b60405180910390fd5b611b5681610e7c565b15611b96576040517f08c379a0000000000000000000000000000000000000000000000000000000008152600401611b8d90613854565b60405180910390fd5b611ba26000838361194b565b6001600360008473ffffffffffffffffffffffffffffffffffffffff1673ffffffffffffffffffffffffffffffffffffffff1681526020019081526020016000206000828254611bf29190612c01565b92505081905550816002600083815260200190815260200160002060006101000a81548173ffffffffffffffffffffffffffffffffffffffff021916908373ffffffffffffffffffffffffffffffffffffffff160217905550808273ffffffffffffffffffffffffffffffffffffffff16600073ffffffffffffffffffffffffffffffffffffffff167fddf252ad1be2c89b69c2b068fc378daa952ba7f163c4a11628f55a4df523b3ef60405160405180910390a4611cb360008383611950565b5050565b6000808273ffffffffffffffffffffffffffffffffffffffff163b119050919050565b828054611ce69061236f565b90600052602060002090601f016020900481019282611d085760008555611d4f565b82601f10611d2157805160ff1916838001178555611d4f565b82800160010185558215611d4f579182015b82811115611d4e578251825591602001919060010190611d33565b5b509050611d5c9190611d60565b5090565b5b80821115611d79576000816000905550600101611d61565b5090565b6000604051905090565b600080fd5b600080fd5b60007fffffffff0000000000000000000000000000000000000000000000000000000082169050919050565b611dc681611d91565b8114611dd157600080fd5b50565b600081359050611de381611dbd565b92915050565b600060208284031215611dff57611dfe611d87565b5b6000611e0d84828501611dd4565b91505092915050565b60008115159050919050565b611e2b81611e16565b82525050565b6000602082019050611e466000830184611e22565b92915050565b600081519050919050565b600082825260208201905092915050565b60005b83811015611e86578082015181840152602081019050611e6b565b83811115611e95576000848401525b50505050565b6000601f19601f8301169050919050565b6000611eb782611e4c565b611ec18185611e57565b9350611ed1818560208601611e68565b611eda81611e9b565b840191505092915050565b60006020820190508181036000830152611eff8184611eac565b905092915050565b6000819050919050565b611f1a81611f07565b8114611f2557600080fd5b50565b600081359050611f3781611f11565b92915050565b600060208284031215611f5357611f52611d87565b5b6000611f6184828501611f28565b91505092915050565b600073ffffffffffffffffffffffffffffffffffffffff82169050919050565b6000611f9582611f6a565b9050919050565b611fa581611f8a565b82525050565b6000602082019050611fc06000830184611f9c565b92915050565b611fcf81611f8a565b8114611fda57600080fd5b50565b600081359050611fec81611fc6565b92915050565b6000806040838503121561200957612008611d87565b5b600061201785828601611fdd565b925050602061202885828601611f28565b9150509250929050565b60008060006060848603121561204b5761204a611d87565b5b600061205986828701611fdd565b935050602061206a86828701611fdd565b925050604061207b86828701611f28565b9150509250925092565b60006020828403121561209b5761209a611d87565b5b60006120a984828501611fdd565b91505092915050565b6120bb81611f07565b82525050565b60006020820190506120d660008301846120b2565b92915050565b6120e581611e16565b81146120f057600080fd5b50565b600081359050612102816120dc565b92915050565b6000806040838503121561211f5761211e611d87565b5b600061212d85828601611fdd565b925050602061213e858286016120f3565b9150509250929050565b600080fd5b600080fd5b7f4e487b7100000000000000000000000000000000000000000000000000000000600052604160045260246000fd5b61218a82611e9b565b810181811067ffffffffffffffff821117156121a9576121a8612152565b5b80604052505050565b60006121bc611d7d565b90506121c88282612181565b919050565b600067ffffffffffffffff8211156121e8576121e7612152565b5b6121f182611e9b565b9050602081019050919050565b82818337600083830152505050565b600061222061221b846121cd565b6121b2565b90508281526020810184848401111561223c5761223b61214d565b5b6122478482856121fe565b509392505050565b600082601f83011261226457612263612148565b5b813561227484826020860161220d565b91505092915050565b6000806000806080858703121561229757612296611d87565b5b60006122a587828801611fdd565b94505060206122b687828801611fdd565b93505060406122c787828801611f28565b925050606085013567ffffffffffffffff8111156122e8576122e7611d8c565b5b6122f48782880161224f565b91505092959194509250565b6000806040838503121561231757612316611d87565b5b600061232585828601611fdd565b925050602061233685828601611fdd565b9150509250929050565b7f4e487b7100000000000000000000000000000000000000000000000000000000600052602260045260246000fd5b6000600282049050600182168061238757607f821691505b6020821081141561239b5761239a612340565b5b50919050565b7f4552433732313a20617070726f76656420717565727920666f72206e6f6e657860008201527f697374656e7420746f6b656e0000000000000000000000000000000000000000602082015250565b60006123fd602c83611e57565b9150612408826123a1565b604082019050919050565b6000602082019050818103600083015261242c816123f0565b9050919050565b7f4552433732313a20617070726f76616c20746f2063757272656e74206f776e6560008201527f7200000000000000000000000000000000000000000000000000000000000000602082015250565b600061248f602183611e57565b915061249a82612433565b604082019050919050565b600060208201905081810360008301526124be81612482565b9050919050565b7f4552433732313a20617070726f76652063616c6c6572206973206e6f74206f7760008201527f6e6572206e6f7220617070726f76656420666f7220616c6c0000000000000000602082015250565b6000612521603883611e57565b915061252c826124c5565b604082019050919050565b6000602082019050818103600083015261255081612514565b9050919050565b600081905092915050565b7f3c73766720786d6c6e733d22687474703a2f2f7777772e77332e6f72672f323060008201527f30302f73766722207072657365727665417370656374526174696f3d22784d6960208201527f6e594d696e206d656574222076696577426f783d22302030203335302033353060408201527f223e000000000000000000000000000000000000000000000000000000000000606082015250565b600061260a606283612557565b915061261582612562565b606282019050919050565b7f3c7374796c653e2e62617365207b2066696c6c3a2077686974653b20666f6e7460008201527f2d66616d696c793a2073657269663b20666f6e742d73697a653a20313470783b60208201527f207d3c2f7374796c653e00000000000000000000000000000000000000000000604082015250565b60006126a2604a83612557565b91506126ad82612620565b604a82019050919050565b7f3c726563742077696474683d223130302522206865696768743d22313030252260008201527f2066696c6c3d22626c61636b22202f3e00000000000000000000000000000000602082015250565b6000612714603083612557565b915061271f826126b8565b603082019050919050565b7f3c7465787420783d223530252220793d223430252220636c6173733d2262617360008201527f652220646f6d696e616e742d626173656c696e653d226d6964646c652220746560208201527f78742d616e63686f723d226d6964646c65223e00000000000000000000000000604082015250565b60006127ac605383612557565b91506127b78261272a565b605382019050919050565b7f57617272696f7200000000000000000000000000000000000000000000000000600082015250565b60006127f8600783612557565b9150612803826127c2565b600782019050919050565b7f3c2f746578743e00000000000000000000000000000000000000000000000000600082015250565b6000612844600783612557565b915061284f8261280e565b600782019050919050565b7f3c7465787420783d223530252220793d223530252220636c6173733d2262617360008201527f652220646f6d696e616e742d626173656c696e653d226d6964646c652220746560208201527f78742d616e63686f723d226d6964646c65223e00000000000000000000000000604082015250565b60006128dc605383612557565b91506128e78261285a565b605382019050919050565b7f4c6576656c733a20000000000000000000000000000000000000000000000000600082015250565b6000612928600883612557565b9150612933826128f2565b600882019050919050565b600061294982611e4c565b6129538185612557565b9350612963818560208601611e68565b80840191505092915050565b7f3c2f7376673e0000000000000000000000000000000000000000000000000000600082015250565b60006129a5600683612557565b91506129b08261296f565b600682019050919050565b60006129c6826125fd565b91506129d182612695565b91506129dc82612707565b91506129e78261279f565b91506129f2826127eb565b91506129fd82612837565b9150612a08826128cf565b9150612a138261291b565b9150612a1f828461293e565b9150612a2a82612837565b9150612a3582612998565b915081905092915050565b7f646174613a696d6167652f7376672b786d6c3b6261736536342c000000000000600082015250565b6000612a76601a83612557565b9150612a8182612a40565b601a82019050919050565b6000612a9782612a69565b9150612aa3828461293e565b915081905092915050565b7f4552433732313a207472616e736665722063616c6c6572206973206e6f74206f60008201527f776e6572206e6f7220617070726f766564000000000000000000000000000000602082015250565b6000612b0a603183611e57565b9150612b1582612aae565b604082019050919050565b60006020820190508181036000830152612b3981612afd565b9050919050565b7f596f75206d757374206f776e2074686973204e465420746f20747261696e206960008201527f7421000000000000000000000000000000000000000000000000000000000000602082015250565b6000612b9c602283611e57565b9150612ba782612b40565b604082019050919050565b60006020820190508181036000830152612bcb81612b8f565b9050919050565b7f4e487b7100000000000000000000000000000000000000000000000000000000600052601160045260246000fd5b6000612c0c82611f07565b9150612c1783611f07565b9250827fffffffffffffffffffffffffffffffffffffffffffffffffffffffffffffffff03821115612c4c57612c4b612bd2565b5b828201905092915050565b7f7b00000000000000000000000000000000000000000000000000000000000000600082015250565b6000612c8d600183612557565b9150612c9882612c57565b600182019050919050565b7f226e616d65223a2022436861696e20426174746c657320230000000000000000600082015250565b6000612cd9601883612557565b9150612ce482612ca3565b601882019050919050565b7f222c000000000000000000000000000000000000000000000000000000000000600082015250565b6000612d25600283612557565b9150612d3082612cef565b600282019050919050565b7f226465736372697074696f6e223a2022426174746c6573206f6e20636861696e60008201527f222c000000000000000000000000000000000000000000000000000000000000602082015250565b6000612d97602283612557565b9150612da282612d3b565b602282019050919050565b7f22696d616765223a202200000000000000000000000000000000000000000000600082015250565b6000612de3600a83612557565b9150612dee82612dad565b600a82019050919050565b7f2200000000000000000000000000000000000000000000000000000000000000600082015250565b6000612e2f600183612557565b9150612e3a82612df9565b600182019050919050565b7f7d00000000000000000000000000000000000000000000000000000000000000600082015250565b6000612e7b600183612557565b9150612e8682612e45565b600182019050919050565b6000612e9c82612c80565b9150612ea782612ccc565b9150612eb3828561293e565b9150612ebe82612d18565b9150612ec982612d8a565b9150612ed482612dd6565b9150612ee0828461293e565b9150612eeb82612e22565b9150612ef682612e6e565b91508190509392505050565b7f646174613a6170706c69636174696f6e2f6a736f6e3b6261736536342c000000600082015250565b6000612f38601d83612557565b9150612f4382612f02565b601d82019050919050565b6000612f5982612f2b565b9150612f65828461293e565b915081905092915050565b7f4552433732313a206f776e657220717565727920666f72206e6f6e657869737460008201527f656e7420746f6b656e0000000000000000000000000000000000000000000000602082015250565b6000612fcc602983611e57565b9150612fd782612f70565b604082019050919050565b60006020820190508181036000830152612ffb81612fbf565b9050919050565b7f4552433732313a2062616c616e636520717565727920666f7220746865207a6560008201527f726f206164647265737300000000000000000000000000000000000000000000602082015250565b600061305e602a83611e57565b915061306982613002565b604082019050919050565b6000602082019050818103600083015261308d81613051565b9050919050565b7f45524337323155524953746f726167653a2055524920717565727920666f722060008201527f6e6f6e6578697374656e7420746f6b656e000000000000000000000000000000602082015250565b60006130f0603183611e57565b91506130fb82613094565b604082019050919050565b6000602082019050818103600083015261311f816130e3565b9050919050565b6000613132828561293e565b915061313e828461293e565b91508190509392505050565b7f4e487b7100000000000000000000000000000000000000000000000000000000600052601260045260246000fd5b600061318482611f07565b915061318f83611f07565b92508261319f5761319e61314a565b5b828204905092915050565b60006131b582611f07565b91506131c083611f07565b9250817fffffffffffffffffffffffffffffffffffffffffffffffffffffffffffffffff04831182151516156131f9576131f8612bd2565b5b828202905092915050565b7f45524337323155524953746f726167653a2055524920736574206f66206e6f6e60008201527f6578697374656e7420746f6b656e000000000000000000000000000000000000602082015250565b6000613260602e83611e57565b915061326b82613204565b604082019050919050565b6000602082019050818103600083015261328f81613253565b9050919050565b7f4552433732313a206f70657261746f7220717565727920666f72206e6f6e657860008201527f697374656e7420746f6b656e0000000000000000000000000000000000000000602082015250565b60006132f2602c83611e57565b91506132fd82613296565b604082019050919050565b60006020820190508181036000830152613321816132e5565b9050919050565b7f4552433732313a207472616e736665722066726f6d20696e636f72726563742060008201527f6f776e6572000000000000000000000000000000000000000000000000000000602082015250565b6000613384602583611e57565b915061338f82613328565b604082019050919050565b600060208201905081810360008301526133b381613377565b9050919050565b7f4552433732313a207472616e7366657220746f20746865207a65726f2061646460008201527f7265737300000000000000000000000000000000000000000000000000000000602082015250565b6000613416602483611e57565b9150613421826133ba565b604082019050919050565b6000602082019050818103600083015261344581613409565b9050919050565b600061345782611f07565b915061346283611f07565b92508282101561347557613474612bd2565b5b828203905092915050565b600061348b82611f07565b91507fffffffffffffffffffffffffffffffffffffffffffffffffffffffffffffffff8214156134be576134bd612bd2565b5b600182019050919050565b60006134d482611f07565b91506134df83611f07565b9250826134ef576134ee61314a565b5b828206905092915050565b7f4e487b7100000000000000000000000000000000000000000000000000000000600052603260045260246000fd5b7f4552433732313a20617070726f766520746f2063616c6c657200000000000000600082015250565b600061355f601983611e57565b915061356a82613529565b602082019050919050565b6000602082019050818103600083015261358e81613552565b9050919050565b7f4552433732313a207472616e7366657220746f206e6f6e20455243373231526560008201527f63656976657220696d706c656d656e7465720000000000000000000000000000602082015250565b60006135f1603283611e57565b91506135fc82613595565b604082019050919050565b60006020820190508181036000830152613620816135e4565b9050919050565b7f4552433732314d657461646174613a2055524920717565727920666f72206e6f60008201527f6e6578697374656e7420746f6b656e0000000000000000000000000000000000602082015250565b6000613683602f83611e57565b915061368e82613627565b604082019050919050565b600060208201905081810360008301526136b281613676565b9050919050565b600081519050919050565b600082825260208201905092915050565b60006136e0826136b9565b6136ea81856136c4565b93506136fa818560208601611e68565b61370381611e9b565b840191505092915050565b60006080820190506137236000830187611f9c565b6137306020830186611f9c565b61373d60408301856120b2565b818103606083015261374f81846136d5565b905095945050505050565b60008151905061376981611dbd565b92915050565b60006020828403121561378557613784611d87565b5b60006137938482850161375a565b91505092915050565b7f4552433732313a206d696e7420746f20746865207a65726f2061646472657373600082015250565b60006137d2602083611e57565b91506137dd8261379c565b602082019050919050565b60006020820190508181036000830152613801816137c5565b9050919050565b7f4552433732313a20746f6b656e20616c7265616479206d696e74656400000000600082015250565b600061383e601c83611e57565b915061384982613808565b602082019050919050565b6000602082019050818103600083015261386d81613831565b905091905056fe4142434445464748494a4b4c4d4e4f505152535455565758595a6162636465666768696a6b6c6d6e6f707172737475767778797a303132333435363738392b2fa2646970667358221220c9fc9aaef6592662d7de0daddedb751c138827be7da82518c7c7ee7bf91a80ad64736f6c634300080a0033",
          "opcodes": "PUSH1 0x80 PUSH1 0x40 MSTORE CALLVALUE DUP1 ISZERO PUSH3 0x11 JUMPI PUSH1 0x0 DUP1 REVERT JUMPDEST POP PUSH1 0x40 MLOAD DUP1 PUSH1 0x40 ADD PUSH1 0x40 MSTORE DUP1 PUSH1 0xD DUP2 MSTORE PUSH1 0x20 ADD PUSH32 0x436861696E20426174746C657300000000000000000000000000000000000000 DUP2 MSTORE POP PUSH1 0x40 MLOAD DUP1 PUSH1 0x40 ADD PUSH1 0x40 MSTORE DUP1 PUSH1 0x5 DUP2 MSTORE PUSH1 0x20 ADD PUSH32 0x4342544C53000000000000000000000000000000000000000000000000000000 DUP2 MSTORE POP DUP2 PUSH1 0x0 SWAP1 DUP1 MLOAD SWAP1 PUSH1 0x20 ADD SWAP1 PUSH3 0x96 SWAP3 SWAP2 SWAP1 PUSH3 0xB8 JUMP JUMPDEST POP DUP1 PUSH1 0x1 SWAP1 DUP1 MLOAD SWAP1 PUSH1 0x20 ADD SWAP1 PUSH3 0xAF SWAP3 SWAP2 SWAP1 PUSH3 0xB8 JUMP JUMPDEST POP POP POP PUSH3 0x1CD JUMP JUMPDEST DUP3 DUP1 SLOAD PUSH3 0xC6 SWAP1 PUSH3 0x197 JUMP JUMPDEST SWAP1 PUSH1 0x0 MSTORE PUSH1 0x20 PUSH1 0x0 KECCAK256 SWAP1 PUSH1 0x1F ADD PUSH1 0x20 SWAP1 DIV DUP2 ADD SWAP3 DUP3 PUSH3 0xEA JUMPI PUSH1 0x0 DUP6 SSTORE PUSH3 0x136 JUMP JUMPDEST DUP3 PUSH1 0x1F LT PUSH3 0x105 JUMPI DUP1 MLOAD PUSH1 0xFF NOT AND DUP4 DUP1 ADD OR DUP6 SSTORE PUSH3 0x136 JUMP JUMPDEST DUP3 DUP1 ADD PUSH1 0x1 ADD DUP6 SSTORE DUP3 ISZERO PUSH3 0x136 JUMPI SWAP2 DUP3 ADD JUMPDEST DUP3 DUP2 GT ISZERO PUSH3 0x135 JUMPI DUP3 MLOAD DUP3 SSTORE SWAP2 PUSH1 0x20 ADD SWAP2 SWAP1 PUSH1 0x1 ADD SWAP1 PUSH3 0x118 JUMP JUMPDEST JUMPDEST POP SWAP1 POP PUSH3 0x145 SWAP2 SWAP1 PUSH3 0x149 JUMP JUMPDEST POP SWAP1 JUMP JUMPDEST JUMPDEST DUP1 DUP3 GT ISZERO PUSH3 0x164 JUMPI PUSH1 0x0 DUP2 PUSH1 0x0 SWAP1 SSTORE POP PUSH1 0x1 ADD PUSH3 0x14A JUMP JUMPDEST POP SWAP1 JUMP JUMPDEST PUSH32 0x4E487B7100000000000000000000000000000000000000000000000000000000 PUSH1 0x0 MSTORE PUSH1 0x22 PUSH1 0x4 MSTORE PUSH1 0x24 PUSH1 0x0 REVERT JUMPDEST PUSH1 0x0 PUSH1 0x2 DUP3 DIV SWAP1 POP PUSH1 0x1 DUP3 AND DUP1 PUSH3 0x1B0 JUMPI PUSH1 0x7F DUP3 AND SWAP2 POP JUMPDEST PUSH1 0x20 DUP3 LT DUP2 EQ ISZERO PUSH3 0x1C7 JUMPI PUSH3 0x1C6 PUSH3 0x168 JUMP JUMPDEST JUMPDEST POP SWAP2 SWAP1 POP JUMP JUMPDEST PUSH2 0x38EA DUP1 PUSH3 0x1DD PUSH1 0x0 CODECOPY PUSH1 0x0 RETURN INVALID PUSH1 0x80 PUSH1 0x40 MSTORE CALLVALUE DUP1 ISZERO PUSH2 0x10 JUMPI PUSH1 0x0 DUP1 REVERT JUMPDEST POP PUSH1 0x4 CALLDATASIZE LT PUSH2 0x121 JUMPI PUSH1 0x0 CALLDATALOAD PUSH1 0xE0 SHR DUP1 PUSH4 0x42842E0E GT PUSH2 0xAD JUMPI DUP1 PUSH4 0xB88D4FDE GT PUSH2 0x71 JUMPI DUP1 PUSH4 0xB88D4FDE EQ PUSH2 0x318 JUMPI DUP1 PUSH4 0xC6A4342F EQ PUSH2 0x334 JUMPI DUP1 PUSH4 0xC87B56DD EQ PUSH2 0x364 JUMPI DUP1 PUSH4 0xE985E9C5 EQ PUSH2 0x394 JUMPI DUP1 PUSH4 0xF43785F9 EQ PUSH2 0x3C4 JUMPI PUSH2 0x121 JUMP JUMPDEST DUP1 PUSH4 0x42842E0E EQ PUSH2 0x262 JUMPI DUP1 PUSH4 0x6352211E EQ PUSH2 0x27E JUMPI DUP1 PUSH4 0x70A08231 EQ PUSH2 0x2AE JUMPI DUP1 PUSH4 0x95D89B41 EQ PUSH2 0x2DE JUMPI DUP1 PUSH4 0xA22CB465 EQ PUSH2 0x2FC JUMPI PUSH2 0x121 JUMP JUMPDEST DUP1 PUSH4 0xDAEFED5 GT PUSH2 0xF4 JUMPI DUP1 PUSH4 0xDAEFED5 EQ PUSH2 0x1C0 JUMPI DUP1 PUSH4 0x1249C58B EQ PUSH2 0x1F0 JUMPI DUP1 PUSH4 0x23B872DD EQ PUSH2 0x1FA JUMPI DUP1 PUSH4 0x368004ED EQ PUSH2 0x216 JUMPI DUP1 PUSH4 0x3BB3A24D EQ PUSH2 0x232 JUMPI PUSH2 0x121 JUMP JUMPDEST DUP1 PUSH4 0x1FFC9A7 EQ PUSH2 0x126 JUMPI DUP1 PUSH4 0x6FDDE03 EQ PUSH2 0x156 JUMPI DUP1 PUSH4 0x81812FC EQ PUSH2 0x174 JUMPI DUP1 PUSH4 0x95EA7B3 EQ PUSH2 0x1A4 JUMPI JUMPDEST PUSH1 0x0 DUP1 REVERT JUMPDEST PUSH2 0x140 PUSH1 0x4 DUP1 CALLDATASIZE SUB DUP2 ADD SWAP1 PUSH2 0x13B SWAP2 SWAP1 PUSH2 0x1DE9 JUMP JUMPDEST PUSH2 0x3F4 JUMP JUMPDEST PUSH1 0x40 MLOAD PUSH2 0x14D SWAP2 SWAP1 PUSH2 0x1E31 JUMP JUMPDEST PUSH1 0x40 MLOAD DUP1 SWAP2 SUB SWAP1 RETURN JUMPDEST PUSH2 0x15E PUSH2 0x4D6 JUMP JUMPDEST PUSH1 0x40 MLOAD PUSH2 0x16B SWAP2 SWAP1 PUSH2 0x1EE5 JUMP JUMPDEST PUSH1 0x40 MLOAD DUP1 SWAP2 SUB SWAP1 RETURN JUMPDEST PUSH2 0x18E PUSH1 0x4 DUP1 CALLDATASIZE SUB DUP2 ADD SWAP1 PUSH2 0x189 SWAP2 SWAP1 PUSH2 0x1F3D JUMP JUMPDEST PUSH2 0x568 JUMP JUMPDEST PUSH1 0x40 MLOAD PUSH2 0x19B SWAP2 SWAP1 PUSH2 0x1FAB JUMP JUMPDEST PUSH1 0x40 MLOAD DUP1 SWAP2 SUB SWAP1 RETURN JUMPDEST PUSH2 0x1BE PUSH1 0x4 DUP1 CALLDATASIZE SUB DUP2 ADD SWAP1 PUSH2 0x1B9 SWAP2 SWAP1 PUSH2 0x1FF2 JUMP JUMPDEST PUSH2 0x5ED JUMP JUMPDEST STOP JUMPDEST PUSH2 0x1DA PUSH1 0x4 DUP1 CALLDATASIZE SUB DUP2 ADD SWAP1 PUSH2 0x1D5 SWAP2 SWAP1 PUSH2 0x1F3D JUMP JUMPDEST PUSH2 0x705 JUMP JUMPDEST PUSH1 0x40 MLOAD PUSH2 0x1E7 SWAP2 SWAP1 PUSH2 0x1EE5 JUMP JUMPDEST PUSH1 0x40 MLOAD DUP1 SWAP2 SUB SWAP1 RETURN JUMPDEST PUSH2 0x1F8 PUSH2 0x763 JUMP JUMPDEST STOP JUMPDEST PUSH2 0x214 PUSH1 0x4 DUP1 CALLDATASIZE SUB DUP2 ADD SWAP1 PUSH2 0x20F SWAP2 SWAP1 PUSH2 0x2032 JUMP JUMPDEST PUSH2 0x7B3 JUMP JUMPDEST STOP JUMPDEST PUSH2 0x230 PUSH1 0x4 DUP1 CALLDATASIZE SUB DUP2 ADD SWAP1 PUSH2 0x22B SWAP2 SWAP1 PUSH2 0x1F3D JUMP JUMPDEST PUSH2 0x813 JUMP JUMPDEST STOP JUMPDEST PUSH2 0x24C PUSH1 0x4 DUP1 CALLDATASIZE SUB DUP2 ADD SWAP1 PUSH2 0x247 SWAP2 SWAP1 PUSH2 0x1F3D JUMP JUMPDEST PUSH2 0x8ED JUMP JUMPDEST PUSH1 0x40 MLOAD PUSH2 0x259 SWAP2 SWAP1 PUSH2 0x1EE5 JUMP JUMPDEST PUSH1 0x40 MLOAD DUP1 SWAP2 SUB SWAP1 RETURN JUMPDEST PUSH2 0x27C PUSH1 0x4 DUP1 CALLDATASIZE SUB DUP2 ADD SWAP1 PUSH2 0x277 SWAP2 SWAP1 PUSH2 0x2032 JUMP JUMPDEST PUSH2 0x955 JUMP JUMPDEST STOP JUMPDEST PUSH2 0x298 PUSH1 0x4 DUP1 CALLDATASIZE SUB DUP2 ADD SWAP1 PUSH2 0x293 SWAP2 SWAP1 PUSH2 0x1F3D JUMP JUMPDEST PUSH2 0x975 JUMP JUMPDEST PUSH1 0x40 MLOAD PUSH2 0x2A5 SWAP2 SWAP1 PUSH2 0x1FAB JUMP JUMPDEST PUSH1 0x40 MLOAD DUP1 SWAP2 SUB SWAP1 RETURN JUMPDEST PUSH2 0x2C8 PUSH1 0x4 DUP1 CALLDATASIZE SUB DUP2 ADD SWAP1 PUSH2 0x2C3 SWAP2 SWAP1 PUSH2 0x2085 JUMP JUMPDEST PUSH2 0xA27 JUMP JUMPDEST PUSH1 0x40 MLOAD PUSH2 0x2D5 SWAP2 SWAP1 PUSH2 0x20C1 JUMP JUMPDEST PUSH1 0x40 MLOAD DUP1 SWAP2 SUB SWAP1 RETURN JUMPDEST PUSH2 0x2E6 PUSH2 0xADF JUMP JUMPDEST PUSH1 0x40 MLOAD PUSH2 0x2F3 SWAP2 SWAP1 PUSH2 0x1EE5 JUMP JUMPDEST PUSH1 0x40 MLOAD DUP1 SWAP2 SUB SWAP1 RETURN JUMPDEST PUSH2 0x316 PUSH1 0x4 DUP1 CALLDATASIZE SUB DUP2 ADD SWAP1 PUSH2 0x311 SWAP2 SWAP1 PUSH2 0x2108 JUMP JUMPDEST PUSH2 0xB71 JUMP JUMPDEST STOP JUMPDEST PUSH2 0x332 PUSH1 0x4 DUP1 CALLDATASIZE SUB DUP2 ADD SWAP1 PUSH2 0x32D SWAP2 SWAP1 PUSH2 0x227D JUMP JUMPDEST PUSH2 0xB87 JUMP JUMPDEST STOP JUMPDEST PUSH2 0x34E PUSH1 0x4 DUP1 CALLDATASIZE SUB DUP2 ADD SWAP1 PUSH2 0x349 SWAP2 SWAP1 PUSH2 0x1F3D JUMP JUMPDEST PUSH2 0xBE9 JUMP JUMPDEST PUSH1 0x40 MLOAD PUSH2 0x35B SWAP2 SWAP1 PUSH2 0x20C1 JUMP JUMPDEST PUSH1 0x40 MLOAD DUP1 SWAP2 SUB SWAP1 RETURN JUMPDEST PUSH2 0x37E PUSH1 0x4 DUP1 CALLDATASIZE SUB DUP2 ADD SWAP1 PUSH2 0x379 SWAP2 SWAP1 PUSH2 0x1F3D JUMP JUMPDEST PUSH2 0xC01 JUMP JUMPDEST PUSH1 0x40 MLOAD PUSH2 0x38B SWAP2 SWAP1 PUSH2 0x1EE5 JUMP JUMPDEST PUSH1 0x40 MLOAD DUP1 SWAP2 SUB SWAP1 RETURN JUMPDEST PUSH2 0x3AE PUSH1 0x4 DUP1 CALLDATASIZE SUB DUP2 ADD SWAP1 PUSH2 0x3A9 SWAP2 SWAP1 PUSH2 0x2300 JUMP JUMPDEST PUSH2 0xD53 JUMP JUMPDEST PUSH1 0x40 MLOAD PUSH2 0x3BB SWAP2 SWAP1 PUSH2 0x1E31 JUMP JUMPDEST PUSH1 0x40 MLOAD DUP1 SWAP2 SUB SWAP1 RETURN JUMPDEST PUSH2 0x3DE PUSH1 0x4 DUP1 CALLDATASIZE SUB DUP2 ADD SWAP1 PUSH2 0x3D9 SWAP2 SWAP1 PUSH2 0x1F3D JUMP JUMPDEST PUSH2 0xDE7 JUMP JUMPDEST PUSH1 0x40 MLOAD PUSH2 0x3EB SWAP2 SWAP1 PUSH2 0x1EE5 JUMP JUMPDEST PUSH1 0x40 MLOAD DUP1 SWAP2 SUB SWAP1 RETURN JUMPDEST PUSH1 0x0 PUSH32 0x80AC58CD00000000000000000000000000000000000000000000000000000000 PUSH28 0xFFFFFFFFFFFFFFFFFFFFFFFFFFFFFFFFFFFFFFFFFFFFFFFFFFFFFFFF NOT AND DUP3 PUSH28 0xFFFFFFFFFFFFFFFFFFFFFFFFFFFFFFFFFFFFFFFFFFFFFFFFFFFFFFFF NOT AND EQ DUP1 PUSH2 0x4BF JUMPI POP PUSH32 0x5B5E139F00000000000000000000000000000000000000000000000000000000 PUSH28 0xFFFFFFFFFFFFFFFFFFFFFFFFFFFFFFFFFFFFFFFFFFFFFFFFFFFFFFFF NOT AND DUP3 PUSH28 0xFFFFFFFFFFFFFFFFFFFFFFFFFFFFFFFFFFFFFFFFFFFFFFFFFFFFFFFF NOT AND EQ JUMPDEST DUP1 PUSH2 0x4CF JUMPI POP PUSH2 0x4CE DUP3 PUSH2 0xE12 JUMP JUMPDEST JUMPDEST SWAP1 POP SWAP2 SWAP1 POP JUMP JUMPDEST PUSH1 0x60 PUSH1 0x0 DUP1 SLOAD PUSH2 0x4E5 SWAP1 PUSH2 0x236F JUMP JUMPDEST DUP1 PUSH1 0x1F ADD PUSH1 0x20 DUP1 SWAP2 DIV MUL PUSH1 0x20 ADD PUSH1 0x40 MLOAD SWAP1 DUP2 ADD PUSH1 0x40 MSTORE DUP1 SWAP3 SWAP2 SWAP1 DUP2 DUP2 MSTORE PUSH1 0x20 ADD DUP3 DUP1 SLOAD PUSH2 0x511 SWAP1 PUSH2 0x236F JUMP JUMPDEST DUP1 ISZERO PUSH2 0x55E JUMPI DUP1 PUSH1 0x1F LT PUSH2 0x533 JUMPI PUSH2 0x100 DUP1 DUP4 SLOAD DIV MUL DUP4 MSTORE SWAP2 PUSH1 0x20 ADD SWAP2 PUSH2 0x55E JUMP JUMPDEST DUP3 ADD SWAP2 SWAP1 PUSH1 0x0 MSTORE PUSH1 0x20 PUSH1 0x0 KECCAK256 SWAP1 JUMPDEST DUP2 SLOAD DUP2 MSTORE SWAP1 PUSH1 0x1 ADD SWAP1 PUSH1 0x20 ADD DUP1 DUP4 GT PUSH2 0x541 JUMPI DUP3 SWAP1 SUB PUSH1 0x1F AND DUP3 ADD SWAP2 JUMPDEST POP POP POP POP POP SWAP1 POP SWAP1 JUMP JUMPDEST PUSH1 0x0 PUSH2 0x573 DUP3 PUSH2 0xE7C JUMP JUMPDEST PUSH2 0x5B2 JUMPI PUSH1 0x40 MLOAD PUSH32 0x8C379A000000000000000000000000000000000000000000000000000000000 DUP2 MSTORE PUSH1 0x4 ADD PUSH2 0x5A9 SWAP1 PUSH2 0x2413 JUMP JUMPDEST PUSH1 0x40 MLOAD DUP1 SWAP2 SUB SWAP1 REVERT JUMPDEST PUSH1 0x4 PUSH1 0x0 DUP4 DUP2 MSTORE PUSH1 0x20 ADD SWAP1 DUP2 MSTORE PUSH1 0x20 ADD PUSH1 0x0 KECCAK256 PUSH1 0x0 SWAP1 SLOAD SWAP1 PUSH2 0x100 EXP SWAP1 DIV PUSH20 0xFFFFFFFFFFFFFFFFFFFFFFFFFFFFFFFFFFFFFFFF AND SWAP1 POP SWAP2 SWAP1 POP JUMP JUMPDEST PUSH1 0x0 PUSH2 0x5F8 DUP3 PUSH2 0x975 JUMP JUMPDEST SWAP1 POP DUP1 PUSH20 0xFFFFFFFFFFFFFFFFFFFFFFFFFFFFFFFFFFFFFFFF AND DUP4 PUSH20 0xFFFFFFFFFFFFFFFFFFFFFFFFFFFFFFFFFFFFFFFF AND EQ ISZERO PUSH2 0x669 JUMPI PUSH1 0x40 MLOAD PUSH32 0x8C379A000000000000000000000000000000000000000000000000000000000 DUP2 MSTORE PUSH1 0x4 ADD PUSH2 0x660 SWAP1 PUSH2 0x24A5 JUMP JUMPDEST PUSH1 0x40 MLOAD DUP1 SWAP2 SUB SWAP1 REVERT JUMPDEST DUP1 PUSH20 0xFFFFFFFFFFFFFFFFFFFFFFFFFFFFFFFFFFFFFFFF AND PUSH2 0x688 PUSH2 0xEE8 JUMP JUMPDEST PUSH20 0xFFFFFFFFFFFFFFFFFFFFFFFFFFFFFFFFFFFFFFFF AND EQ DUP1 PUSH2 0x6B7 JUMPI POP PUSH2 0x6B6 DUP2 PUSH2 0x6B1 PUSH2 0xEE8 JUMP JUMPDEST PUSH2 0xD53 JUMP JUMPDEST JUMPDEST PUSH2 0x6F6 JUMPI PUSH1 0x40 MLOAD PUSH32 0x8C379A000000000000000000000000000000000000000000000000000000000 DUP2 MSTORE PUSH1 0x4 ADD PUSH2 0x6ED SWAP1 PUSH2 0x2537 JUMP JUMPDEST PUSH1 0x40 MLOAD DUP1 SWAP2 SUB SWAP1 REVERT JUMPDEST PUSH2 0x700 DUP4 DUP4 PUSH2 0xEF0 JUMP JUMPDEST POP POP POP JUMP JUMPDEST PUSH1 0x60 PUSH1 0x0 PUSH2 0x712 DUP4 PUSH2 0xDE7 JUMP JUMPDEST PUSH1 0x40 MLOAD PUSH1 0x20 ADD PUSH2 0x722 SWAP2 SWAP1 PUSH2 0x29BB JUMP JUMPDEST PUSH1 0x40 MLOAD PUSH1 0x20 DUP2 DUP4 SUB SUB DUP2 MSTORE SWAP1 PUSH1 0x40 MSTORE SWAP1 POP PUSH2 0x73C DUP2 PUSH2 0xFA9 JUMP JUMPDEST PUSH1 0x40 MLOAD PUSH1 0x20 ADD PUSH2 0x74C SWAP2 SWAP1 PUSH2 0x2A8C JUMP JUMPDEST PUSH1 0x40 MLOAD PUSH1 0x20 DUP2 DUP4 SUB SUB DUP2 MSTORE SWAP1 PUSH1 0x40 MSTORE SWAP2 POP POP SWAP2 SWAP1 POP JUMP JUMPDEST PUSH2 0x76D PUSH1 0x7 PUSH2 0x110D JUMP JUMPDEST PUSH1 0x0 PUSH2 0x779 PUSH1 0x7 PUSH2 0x1123 JUMP JUMPDEST SWAP1 POP PUSH2 0x785 CALLER DUP3 PUSH2 0x1131 JUMP JUMPDEST PUSH1 0x0 PUSH1 0x8 PUSH1 0x0 DUP4 DUP2 MSTORE PUSH1 0x20 ADD SWAP1 DUP2 MSTORE PUSH1 0x20 ADD PUSH1 0x0 KECCAK256 DUP2 SWAP1 SSTORE POP PUSH2 0x7B0 DUP2 PUSH2 0x7AB DUP4 PUSH2 0x8ED JUMP JUMPDEST PUSH2 0x114F JUMP JUMPDEST POP JUMP JUMPDEST PUSH2 0x7C4 PUSH2 0x7BE PUSH2 0xEE8 JUMP JUMPDEST DUP3 PUSH2 0x11C3 JUMP JUMPDEST PUSH2 0x803 JUMPI PUSH1 0x40 MLOAD PUSH32 0x8C379A000000000000000000000000000000000000000000000000000000000 DUP2 MSTORE PUSH1 0x4 ADD PUSH2 0x7FA SWAP1 PUSH2 0x2B20 JUMP JUMPDEST PUSH1 0x40 MLOAD DUP1 SWAP2 SUB SWAP1 REVERT JUMPDEST PUSH2 0x80E DUP4 DUP4 DUP4 PUSH2 0x12A1 JUMP JUMPDEST POP POP POP JUMP JUMPDEST PUSH2 0x81C DUP2 PUSH2 0xE7C JUMP JUMPDEST PUSH2 0x825 JUMPI PUSH1 0x0 DUP1 REVERT JUMPDEST CALLER PUSH20 0xFFFFFFFFFFFFFFFFFFFFFFFFFFFFFFFFFFFFFFFF AND PUSH2 0x845 DUP3 PUSH2 0x975 JUMP JUMPDEST PUSH20 0xFFFFFFFFFFFFFFFFFFFFFFFFFFFFFFFFFFFFFFFF AND EQ PUSH2 0x89B JUMPI PUSH1 0x40 MLOAD PUSH32 0x8C379A000000000000000000000000000000000000000000000000000000000 DUP2 MSTORE PUSH1 0x4 ADD PUSH2 0x892 SWAP1 PUSH2 0x2BB2 JUMP JUMPDEST PUSH1 0x40 MLOAD DUP1 SWAP2 SUB SWAP1 REVERT JUMPDEST PUSH1 0x0 PUSH1 0x8 PUSH1 0x0 DUP4 DUP2 MSTORE PUSH1 0x20 ADD SWAP1 DUP2 MSTORE PUSH1 0x20 ADD PUSH1 0x0 KECCAK256 SLOAD SWAP1 POP PUSH1 0x1 DUP2 PUSH2 0x8C0 SWAP2 SWAP1 PUSH2 0x2C01 JUMP JUMPDEST PUSH1 0x8 PUSH1 0x0 DUP5 DUP2 MSTORE PUSH1 0x20 ADD SWAP1 DUP2 MSTORE PUSH1 0x20 ADD PUSH1 0x0 KECCAK256 DUP2 SWAP1 SSTORE POP PUSH2 0x8E9 DUP3 PUSH2 0x8E4 DUP5 PUSH2 0x8ED JUMP JUMPDEST PUSH2 0x114F JUMP JUMPDEST POP POP JUMP JUMPDEST PUSH1 0x60 PUSH1 0x0 PUSH2 0x8FA DUP4 PUSH2 0x1508 JUMP JUMPDEST PUSH2 0x903 DUP5 PUSH2 0x705 JUMP JUMPDEST PUSH1 0x40 MLOAD PUSH1 0x20 ADD PUSH2 0x914 SWAP3 SWAP2 SWAP1 PUSH2 0x2E91 JUMP JUMPDEST PUSH1 0x40 MLOAD PUSH1 0x20 DUP2 DUP4 SUB SUB DUP2 MSTORE SWAP1 PUSH1 0x40 MSTORE SWAP1 POP PUSH2 0x92E DUP2 PUSH2 0xFA9 JUMP JUMPDEST PUSH1 0x40 MLOAD PUSH1 0x20 ADD PUSH2 0x93E SWAP2 SWAP1 PUSH2 0x2F4E JUMP JUMPDEST PUSH1 0x40 MLOAD PUSH1 0x20 DUP2 DUP4 SUB SUB DUP2 MSTORE SWAP1 PUSH1 0x40 MSTORE SWAP2 POP POP SWAP2 SWAP1 POP JUMP JUMPDEST PUSH2 0x970 DUP4 DUP4 DUP4 PUSH1 0x40 MLOAD DUP1 PUSH1 0x20 ADD PUSH1 0x40 MSTORE DUP1 PUSH1 0x0 DUP2 MSTORE POP PUSH2 0xB87 JUMP JUMPDEST POP POP POP JUMP JUMPDEST PUSH1 0x0 DUP1 PUSH1 0x2 PUSH1 0x0 DUP5 DUP2 MSTORE PUSH1 0x20 ADD SWAP1 DUP2 MSTORE PUSH1 0x20 ADD PUSH1 0x0 KECCAK256 PUSH1 0x0 SWAP1 SLOAD SWAP1 PUSH2 0x100 EXP SWAP1 DIV PUSH20 0xFFFFFFFFFFFFFFFFFFFFFFFFFFFFFFFFFFFFFFFF AND SWAP1 POP PUSH1 0x0 PUSH20 0xFFFFFFFFFFFFFFFFFFFFFFFFFFFFFFFFFFFFFFFF AND DUP2 PUSH20 0xFFFFFFFFFFFFFFFFFFFFFFFFFFFFFFFFFFFFFFFF AND EQ ISZERO PUSH2 0xA1E JUMPI PUSH1 0x40 MLOAD PUSH32 0x8C379A000000000000000000000000000000000000000000000000000000000 DUP2 MSTORE PUSH1 0x4 ADD PUSH2 0xA15 SWAP1 PUSH2 0x2FE2 JUMP JUMPDEST PUSH1 0x40 MLOAD DUP1 SWAP2 SUB SWAP1 REVERT JUMPDEST DUP1 SWAP2 POP POP SWAP2 SWAP1 POP JUMP JUMPDEST PUSH1 0x0 DUP1 PUSH20 0xFFFFFFFFFFFFFFFFFFFFFFFFFFFFFFFFFFFFFFFF AND DUP3 PUSH20 0xFFFFFFFFFFFFFFFFFFFFFFFFFFFFFFFFFFFFFFFF AND EQ ISZERO PUSH2 0xA98 JUMPI PUSH1 0x40 MLOAD PUSH32 0x8C379A000000000000000000000000000000000000000000000000000000000 DUP2 MSTORE PUSH1 0x4 ADD PUSH2 0xA8F SWAP1 PUSH2 0x3074 JUMP JUMPDEST PUSH1 0x40 MLOAD DUP1 SWAP2 SUB SWAP1 REVERT JUMPDEST PUSH1 0x3 PUSH1 0x0 DUP4 PUSH20 0xFFFFFFFFFFFFFFFFFFFFFFFFFFFFFFFFFFFFFFFF AND PUSH20 0xFFFFFFFFFFFFFFFFFFFFFFFFFFFFFFFFFFFFFFFF AND DUP2 MSTORE PUSH1 0x20 ADD SWAP1 DUP2 MSTORE PUSH1 0x20 ADD PUSH1 0x0 KECCAK256 SLOAD SWAP1 POP SWAP2 SWAP1 POP JUMP JUMPDEST PUSH1 0x60 PUSH1 0x1 DUP1 SLOAD PUSH2 0xAEE SWAP1 PUSH2 0x236F JUMP JUMPDEST DUP1 PUSH1 0x1F ADD PUSH1 0x20 DUP1 SWAP2 DIV MUL PUSH1 0x20 ADD PUSH1 0x40 MLOAD SWAP1 DUP2 ADD PUSH1 0x40 MSTORE DUP1 SWAP3 SWAP2 SWAP1 DUP2 DUP2 MSTORE PUSH1 0x20 ADD DUP3 DUP1 SLOAD PUSH2 0xB1A SWAP1 PUSH2 0x236F JUMP JUMPDEST DUP1 ISZERO PUSH2 0xB67 JUMPI DUP1 PUSH1 0x1F LT PUSH2 0xB3C JUMPI PUSH2 0x100 DUP1 DUP4 SLOAD DIV MUL DUP4 MSTORE SWAP2 PUSH1 0x20 ADD SWAP2 PUSH2 0xB67 JUMP JUMPDEST DUP3 ADD SWAP2 SWAP1 PUSH1 0x0 MSTORE PUSH1 0x20 PUSH1 0x0 KECCAK256 SWAP1 JUMPDEST DUP2 SLOAD DUP2 MSTORE SWAP1 PUSH1 0x1 ADD SWAP1 PUSH1 0x20 ADD DUP1 DUP4 GT PUSH2 0xB4A JUMPI DUP3 SWAP1 SUB PUSH1 0x1F AND DUP3 ADD SWAP2 JUMPDEST POP POP POP POP POP SWAP1 POP SWAP1 JUMP JUMPDEST PUSH2 0xB83 PUSH2 0xB7C PUSH2 0xEE8 JUMP JUMPDEST DUP4 DUP4 PUSH2 0x1669 JUMP JUMPDEST POP POP JUMP JUMPDEST PUSH2 0xB98 PUSH2 0xB92 PUSH2 0xEE8 JUMP JUMPDEST DUP4 PUSH2 0x11C3 JUMP JUMPDEST PUSH2 0xBD7 JUMPI PUSH1 0x40 MLOAD PUSH32 0x8C379A000000000000000000000000000000000000000000000000000000000 DUP2 MSTORE PUSH1 0x4 ADD PUSH2 0xBCE SWAP1 PUSH2 0x2B20 JUMP JUMPDEST PUSH1 0x40 MLOAD DUP1 SWAP2 SUB SWAP1 REVERT JUMPDEST PUSH2 0xBE3 DUP5 DUP5 DUP5 DUP5 PUSH2 0x17D6 JUMP JUMPDEST POP POP POP POP JUMP JUMPDEST PUSH1 0x8 PUSH1 0x20 MSTORE DUP1 PUSH1 0x0 MSTORE PUSH1 0x40 PUSH1 0x0 KECCAK256 PUSH1 0x0 SWAP2 POP SWAP1 POP SLOAD DUP2 JUMP JUMPDEST PUSH1 0x60 PUSH2 0xC0C DUP3 PUSH2 0xE7C JUMP JUMPDEST PUSH2 0xC4B JUMPI PUSH1 0x40 MLOAD PUSH32 0x8C379A000000000000000000000000000000000000000000000000000000000 DUP2 MSTORE PUSH1 0x4 ADD PUSH2 0xC42 SWAP1 PUSH2 0x3106 JUMP JUMPDEST PUSH1 0x40 MLOAD DUP1 SWAP2 SUB SWAP1 REVERT JUMPDEST PUSH1 0x0 PUSH1 0x6 PUSH1 0x0 DUP5 DUP2 MSTORE PUSH1 0x20 ADD SWAP1 DUP2 MSTORE PUSH1 0x20 ADD PUSH1 0x0 KECCAK256 DUP1 SLOAD PUSH2 0xC6B SWAP1 PUSH2 0x236F JUMP JUMPDEST DUP1 PUSH1 0x1F ADD PUSH1 0x20 DUP1 SWAP2 DIV MUL PUSH1 0x20 ADD PUSH1 0x40 MLOAD SWAP1 DUP2 ADD PUSH1 0x40 MSTORE DUP1 SWAP3 SWAP2 SWAP1 DUP2 DUP2 MSTORE PUSH1 0x20 ADD DUP3 DUP1 SLOAD PUSH2 0xC97 SWAP1 PUSH2 0x236F JUMP JUMPDEST DUP1 ISZERO PUSH2 0xCE4 JUMPI DUP1 PUSH1 0x1F LT PUSH2 0xCB9 JUMPI PUSH2 0x100 DUP1 DUP4 SLOAD DIV MUL DUP4 MSTORE SWAP2 PUSH1 0x20 ADD SWAP2 PUSH2 0xCE4 JUMP JUMPDEST DUP3 ADD SWAP2 SWAP1 PUSH1 0x0 MSTORE PUSH1 0x20 PUSH1 0x0 KECCAK256 SWAP1 JUMPDEST DUP2 SLOAD DUP2 MSTORE SWAP1 PUSH1 0x1 ADD SWAP1 PUSH1 0x20 ADD DUP1 DUP4 GT PUSH2 0xCC7 JUMPI DUP3 SWAP1 SUB PUSH1 0x1F AND DUP3 ADD SWAP2 JUMPDEST POP POP POP POP POP SWAP1 POP PUSH1 0x0 PUSH2 0xCF5 PUSH2 0x1832 JUMP JUMPDEST SWAP1 POP PUSH1 0x0 DUP2 MLOAD EQ ISZERO PUSH2 0xD0B JUMPI DUP2 SWAP3 POP POP POP PUSH2 0xD4E JUMP JUMPDEST PUSH1 0x0 DUP3 MLOAD GT ISZERO PUSH2 0xD40 JUMPI DUP1 DUP3 PUSH1 0x40 MLOAD PUSH1 0x20 ADD PUSH2 0xD28 SWAP3 SWAP2 SWAP1 PUSH2 0x3126 JUMP JUMPDEST PUSH1 0x40 MLOAD PUSH1 0x20 DUP2 DUP4 SUB SUB DUP2 MSTORE SWAP1 PUSH1 0x40 MSTORE SWAP3 POP POP POP PUSH2 0xD4E JUMP JUMPDEST PUSH2 0xD49 DUP5 PUSH2 0x1849 JUMP JUMPDEST SWAP3 POP POP POP JUMPDEST SWAP2 SWAP1 POP JUMP JUMPDEST PUSH1 0x0 PUSH1 0x5 PUSH1 0x0 DUP5 PUSH20 0xFFFFFFFFFFFFFFFFFFFFFFFFFFFFFFFFFFFFFFFF AND PUSH20 0xFFFFFFFFFFFFFFFFFFFFFFFFFFFFFFFFFFFFFFFF AND DUP2 MSTORE PUSH1 0x20 ADD SWAP1 DUP2 MSTORE PUSH1 0x20 ADD PUSH1 0x0 KECCAK256 PUSH1 0x0 DUP4 PUSH20 0xFFFFFFFFFFFFFFFFFFFFFFFFFFFFFFFFFFFFFFFF AND PUSH20 0xFFFFFFFFFFFFFFFFFFFFFFFFFFFFFFFFFFFFFFFF AND DUP2 MSTORE PUSH1 0x20 ADD SWAP1 DUP2 MSTORE PUSH1 0x20 ADD PUSH1 0x0 KECCAK256 PUSH1 0x0 SWAP1 SLOAD SWAP1 PUSH2 0x100 EXP SWAP1 DIV PUSH1 0xFF AND SWAP1 POP SWAP3 SWAP2 POP POP JUMP JUMPDEST PUSH1 0x60 PUSH1 0x0 PUSH1 0x8 PUSH1 0x0 DUP5 DUP2 MSTORE PUSH1 0x20 ADD SWAP1 DUP2 MSTORE PUSH1 0x20 ADD PUSH1 0x0 KECCAK256 SLOAD SWAP1 POP PUSH2 0xE0A DUP2 PUSH2 0x1508 JUMP JUMPDEST SWAP2 POP POP SWAP2 SWAP1 POP JUMP JUMPDEST PUSH1 0x0 PUSH32 0x1FFC9A700000000000000000000000000000000000000000000000000000000 PUSH28 0xFFFFFFFFFFFFFFFFFFFFFFFFFFFFFFFFFFFFFFFFFFFFFFFFFFFFFFFF NOT AND DUP3 PUSH28 0xFFFFFFFFFFFFFFFFFFFFFFFFFFFFFFFFFFFFFFFFFFFFFFFFFFFFFFFF NOT AND EQ SWAP1 POP SWAP2 SWAP1 POP JUMP JUMPDEST PUSH1 0x0 DUP1 PUSH20 0xFFFFFFFFFFFFFFFFFFFFFFFFFFFFFFFFFFFFFFFF AND PUSH1 0x2 PUSH1 0x0 DUP5 DUP2 MSTORE PUSH1 0x20 ADD SWAP1 DUP2 MSTORE PUSH1 0x20 ADD PUSH1 0x0 KECCAK256 PUSH1 0x0 SWAP1 SLOAD SWAP1 PUSH2 0x100 EXP SWAP1 DIV PUSH20 0xFFFFFFFFFFFFFFFFFFFFFFFFFFFFFFFFFFFFFFFF AND PUSH20 0xFFFFFFFFFFFFFFFFFFFFFFFFFFFFFFFFFFFFFFFF AND EQ ISZERO SWAP1 POP SWAP2 SWAP1 POP JUMP JUMPDEST PUSH1 0x0 CALLER SWAP1 POP SWAP1 JUMP JUMPDEST DUP2 PUSH1 0x4 PUSH1 0x0 DUP4 DUP2 MSTORE PUSH1 0x20 ADD SWAP1 DUP2 MSTORE PUSH1 0x20 ADD PUSH1 0x0 KECCAK256 PUSH1 0x0 PUSH2 0x100 EXP DUP2 SLOAD DUP2 PUSH20 0xFFFFFFFFFFFFFFFFFFFFFFFFFFFFFFFFFFFFFFFF MUL NOT AND SWAP1 DUP4 PUSH20 0xFFFFFFFFFFFFFFFFFFFFFFFFFFFFFFFFFFFFFFFF AND MUL OR SWAP1 SSTORE POP DUP1 DUP3 PUSH20 0xFFFFFFFFFFFFFFFFFFFFFFFFFFFFFFFFFFFFFFFF AND PUSH2 0xF63 DUP4 PUSH2 0x975 JUMP JUMPDEST PUSH20 0xFFFFFFFFFFFFFFFFFFFFFFFFFFFFFFFFFFFFFFFF AND PUSH32 0x8C5BE1E5EBEC7D5BD14F71427D1E84F3DD0314C0F7B2291E5B200AC8C7C3B925 PUSH1 0x40 MLOAD PUSH1 0x40 MLOAD DUP1 SWAP2 SUB SWAP1 LOG4 POP POP JUMP JUMPDEST PUSH1 0x60 PUSH1 0x0 DUP3 MLOAD EQ ISZERO PUSH2 0xFCC JUMPI PUSH1 0x40 MLOAD DUP1 PUSH1 0x20 ADD PUSH1 0x40 MSTORE DUP1 PUSH1 0x0 DUP2 MSTORE POP SWAP1 POP PUSH2 0x1108 JUMP JUMPDEST PUSH1 0x0 PUSH1 0x40 MLOAD DUP1 PUSH1 0x60 ADD PUSH1 0x40 MSTORE DUP1 PUSH1 0x40 DUP2 MSTORE PUSH1 0x20 ADD PUSH2 0x3875 PUSH1 0x40 SWAP2 CODECOPY SWAP1 POP PUSH1 0x0 PUSH1 0x3 PUSH1 0x2 DUP6 MLOAD PUSH2 0xFFB SWAP2 SWAP1 PUSH2 0x2C01 JUMP JUMPDEST PUSH2 0x1005 SWAP2 SWAP1 PUSH2 0x3179 JUMP JUMPDEST PUSH1 0x4 PUSH2 0x1011 SWAP2 SWAP1 PUSH2 0x31AA JUMP JUMPDEST PUSH8 0xFFFFFFFFFFFFFFFF DUP2 GT ISZERO PUSH2 0x102A JUMPI PUSH2 0x1029 PUSH2 0x2152 JUMP JUMPDEST JUMPDEST PUSH1 0x40 MLOAD SWAP1 DUP1 DUP3 MSTORE DUP1 PUSH1 0x1F ADD PUSH1 0x1F NOT AND PUSH1 0x20 ADD DUP3 ADD PUSH1 0x40 MSTORE DUP1 ISZERO PUSH2 0x105C JUMPI DUP2 PUSH1 0x20 ADD PUSH1 0x1 DUP3 MUL DUP1 CALLDATASIZE DUP4 CALLDATACOPY DUP1 DUP3 ADD SWAP2 POP POP SWAP1 POP JUMPDEST POP SWAP1 POP PUSH1 0x1 DUP3 ADD PUSH1 0x20 DUP3 ADD DUP6 DUP7 MLOAD DUP8 ADD JUMPDEST DUP1 DUP3 LT ISZERO PUSH2 0x10C8 JUMPI PUSH1 0x3 DUP3 ADD SWAP2 POP DUP2 MLOAD PUSH1 0x3F DUP2 PUSH1 0x12 SHR AND DUP6 ADD MLOAD DUP5 MSTORE8 PUSH1 0x1 DUP5 ADD SWAP4 POP PUSH1 0x3F DUP2 PUSH1 0xC SHR AND DUP6 ADD MLOAD DUP5 MSTORE8 PUSH1 0x1 DUP5 ADD SWAP4 POP PUSH1 0x3F DUP2 PUSH1 0x6 SHR AND DUP6 ADD MLOAD DUP5 MSTORE8 PUSH1 0x1 DUP5 ADD SWAP4 POP PUSH1 0x3F DUP2 AND DUP6 ADD MLOAD DUP5 MSTORE8 PUSH1 0x1 DUP5 ADD SWAP4 POP POP PUSH2 0x106D JUMP JUMPDEST POP POP PUSH1 0x3 DUP7 MLOAD MOD PUSH1 0x1 DUP2 EQ PUSH2 0x10E4 JUMPI PUSH1 0x2 DUP2 EQ PUSH2 0x10F7 JUMPI PUSH2 0x10FF JUMP JUMPDEST PUSH1 0x3D PUSH1 0x1 DUP4 SUB MSTORE8 PUSH1 0x3D PUSH1 0x2 DUP4 SUB MSTORE8 PUSH2 0x10FF JUMP JUMPDEST PUSH1 0x3D PUSH1 0x1 DUP4 SUB MSTORE8 JUMPDEST POP POP POP DUP1 SWAP3 POP POP POP JUMPDEST SWAP2 SWAP1 POP JUMP JUMPDEST PUSH1 0x1 DUP2 PUSH1 0x0 ADD PUSH1 0x0 DUP3 DUP3 SLOAD ADD SWAP3 POP POP DUP2 SWAP1 SSTORE POP POP JUMP JUMPDEST PUSH1 0x0 DUP2 PUSH1 0x0 ADD SLOAD SWAP1 POP SWAP2 SWAP1 POP JUMP JUMPDEST PUSH2 0x114B DUP3 DUP3 PUSH1 0x40 MLOAD DUP1 PUSH1 0x20 ADD PUSH1 0x40 MSTORE DUP1 PUSH1 0x0 DUP2 MSTORE POP PUSH2 0x18F0 JUMP JUMPDEST POP POP JUMP JUMPDEST PUSH2 0x1158 DUP3 PUSH2 0xE7C JUMP JUMPDEST PUSH2 0x1197 JUMPI PUSH1 0x40 MLOAD PUSH32 0x8C379A000000000000000000000000000000000000000000000000000000000 DUP2 MSTORE PUSH1 0x4 ADD PUSH2 0x118E SWAP1 PUSH2 0x3276 JUMP JUMPDEST PUSH1 0x40 MLOAD DUP1 SWAP2 SUB SWAP1 REVERT JUMPDEST DUP1 PUSH1 0x6 PUSH1 0x0 DUP5 DUP2 MSTORE PUSH1 0x20 ADD SWAP1 DUP2 MSTORE PUSH1 0x20 ADD PUSH1 0x0 KECCAK256 SWAP1 DUP1 MLOAD SWAP1 PUSH1 0x20 ADD SWAP1 PUSH2 0x11BE SWAP3 SWAP2 SWAP1 PUSH2 0x1CDA JUMP JUMPDEST POP POP POP JUMP JUMPDEST PUSH1 0x0 PUSH2 0x11CE DUP3 PUSH2 0xE7C JUMP JUMPDEST PUSH2 0x120D JUMPI PUSH1 0x40 MLOAD PUSH32 0x8C379A000000000000000000000000000000000000000000000000000000000 DUP2 MSTORE PUSH1 0x4 ADD PUSH2 0x1204 SWAP1 PUSH2 0x3308 JUMP JUMPDEST PUSH1 0x40 MLOAD DUP1 SWAP2 SUB SWAP1 REVERT JUMPDEST PUSH1 0x0 PUSH2 0x1218 DUP4 PUSH2 0x975 JUMP JUMPDEST SWAP1 POP DUP1 PUSH20 0xFFFFFFFFFFFFFFFFFFFFFFFFFFFFFFFFFFFFFFFF AND DUP5 PUSH20 0xFFFFFFFFFFFFFFFFFFFFFFFFFFFFFFFFFFFFFFFF AND EQ DUP1 PUSH2 0x125A JUMPI POP PUSH2 0x1259 DUP2 DUP6 PUSH2 0xD53 JUMP JUMPDEST JUMPDEST DUP1 PUSH2 0x1298 JUMPI POP DUP4 PUSH20 0xFFFFFFFFFFFFFFFFFFFFFFFFFFFFFFFFFFFFFFFF AND PUSH2 0x1280 DUP5 PUSH2 0x568 JUMP JUMPDEST PUSH20 0xFFFFFFFFFFFFFFFFFFFFFFFFFFFFFFFFFFFFFFFF AND EQ JUMPDEST SWAP2 POP POP SWAP3 SWAP2 POP POP JUMP JUMPDEST DUP3 PUSH20 0xFFFFFFFFFFFFFFFFFFFFFFFFFFFFFFFFFFFFFFFF AND PUSH2 0x12C1 DUP3 PUSH2 0x975 JUMP JUMPDEST PUSH20 0xFFFFFFFFFFFFFFFFFFFFFFFFFFFFFFFFFFFFFFFF AND EQ PUSH2 0x1317 JUMPI PUSH1 0x40 MLOAD PUSH32 0x8C379A000000000000000000000000000000000000000000000000000000000 DUP2 MSTORE PUSH1 0x4 ADD PUSH2 0x130E SWAP1 PUSH2 0x339A JUMP JUMPDEST PUSH1 0x40 MLOAD DUP1 SWAP2 SUB SWAP1 REVERT JUMPDEST PUSH1 0x0 PUSH20 0xFFFFFFFFFFFFFFFFFFFFFFFFFFFFFFFFFFFFFFFF AND DUP3 PUSH20 0xFFFFFFFFFFFFFFFFFFFFFFFFFFFFFFFFFFFFFFFF AND EQ ISZERO PUSH2 0x1387 JUMPI PUSH1 0x40 MLOAD PUSH32 0x8C379A000000000000000000000000000000000000000000000000000000000 DUP2 MSTORE PUSH1 0x4 ADD PUSH2 0x137E SWAP1 PUSH2 0x342C JUMP JUMPDEST PUSH1 0x40 MLOAD DUP1 SWAP2 SUB SWAP1 REVERT JUMPDEST PUSH2 0x1392 DUP4 DUP4 DUP4 PUSH2 0x194B JUMP JUMPDEST PUSH2 0x139D PUSH1 0x0 DUP3 PUSH2 0xEF0 JUMP JUMPDEST PUSH1 0x1 PUSH1 0x3 PUSH1 0x0 DUP6 PUSH20 0xFFFFFFFFFFFFFFFFFFFFFFFFFFFFFFFFFFFFFFFF AND PUSH20 0xFFFFFFFFFFFFFFFFFFFFFFFFFFFFFFFFFFFFFFFF AND DUP2 MSTORE PUSH1 0x20 ADD SWAP1 DUP2 MSTORE PUSH1 0x20 ADD PUSH1 0x0 KECCAK256 PUSH1 0x0 DUP3 DUP3 SLOAD PUSH2 0x13ED SWAP2 SWAP1 PUSH2 0x344C JUMP JUMPDEST SWAP3 POP POP DUP2 SWAP1 SSTORE POP PUSH1 0x1 PUSH1 0x3 PUSH1 0x0 DUP5 PUSH20 0xFFFFFFFFFFFFFFFFFFFFFFFFFFFFFFFFFFFFFFFF AND PUSH20 0xFFFFFFFFFFFFFFFFFFFFFFFFFFFFFFFFFFFFFFFF AND DUP2 MSTORE PUSH1 0x20 ADD SWAP1 DUP2 MSTORE PUSH1 0x20 ADD PUSH1 0x0 KECCAK256 PUSH1 0x0 DUP3 DUP3 SLOAD PUSH2 0x1444 SWAP2 SWAP1 PUSH2 0x2C01 JUMP JUMPDEST SWAP3 POP POP DUP2 SWAP1 SSTORE POP DUP2 PUSH1 0x2 PUSH1 0x0 DUP4 DUP2 MSTORE PUSH1 0x20 ADD SWAP1 DUP2 MSTORE PUSH1 0x20 ADD PUSH1 0x0 KECCAK256 PUSH1 0x0 PUSH2 0x100 EXP DUP2 SLOAD DUP2 PUSH20 0xFFFFFFFFFFFFFFFFFFFFFFFFFFFFFFFFFFFFFFFF MUL NOT AND SWAP1 DUP4 PUSH20 0xFFFFFFFFFFFFFFFFFFFFFFFFFFFFFFFFFFFFFFFF AND MUL OR SWAP1 SSTORE POP DUP1 DUP3 PUSH20 0xFFFFFFFFFFFFFFFFFFFFFFFFFFFFFFFFFFFFFFFF AND DUP5 PUSH20 0xFFFFFFFFFFFFFFFFFFFFFFFFFFFFFFFFFFFFFFFF AND PUSH32 0xDDF252AD1BE2C89B69C2B068FC378DAA952BA7F163C4A11628F55A4DF523B3EF PUSH1 0x40 MLOAD PUSH1 0x40 MLOAD DUP1 SWAP2 SUB SWAP1 LOG4 PUSH2 0x1503 DUP4 DUP4 DUP4 PUSH2 0x1950 JUMP JUMPDEST POP POP POP JUMP JUMPDEST PUSH1 0x60 PUSH1 0x0 DUP3 EQ ISZERO PUSH2 0x1550 JUMPI PUSH1 0x40 MLOAD DUP1 PUSH1 0x40 ADD PUSH1 0x40 MSTORE DUP1 PUSH1 0x1 DUP2 MSTORE PUSH1 0x20 ADD PUSH32 0x3000000000000000000000000000000000000000000000000000000000000000 DUP2 MSTORE POP SWAP1 POP PUSH2 0x1664 JUMP JUMPDEST PUSH1 0x0 DUP3 SWAP1 POP PUSH1 0x0 JUMPDEST PUSH1 0x0 DUP3 EQ PUSH2 0x1582 JUMPI DUP1 DUP1 PUSH2 0x156B SWAP1 PUSH2 0x3480 JUMP JUMPDEST SWAP2 POP POP PUSH1 0xA DUP3 PUSH2 0x157B SWAP2 SWAP1 PUSH2 0x3179 JUMP JUMPDEST SWAP2 POP PUSH2 0x1558 JUMP JUMPDEST PUSH1 0x0 DUP2 PUSH8 0xFFFFFFFFFFFFFFFF DUP2 GT ISZERO PUSH2 0x159E JUMPI PUSH2 0x159D PUSH2 0x2152 JUMP JUMPDEST JUMPDEST PUSH1 0x40 MLOAD SWAP1 DUP1 DUP3 MSTORE DUP1 PUSH1 0x1F ADD PUSH1 0x1F NOT AND PUSH1 0x20 ADD DUP3 ADD PUSH1 0x40 MSTORE DUP1 ISZERO PUSH2 0x15D0 JUMPI DUP2 PUSH1 0x20 ADD PUSH1 0x1 DUP3 MUL DUP1 CALLDATASIZE DUP4 CALLDATACOPY DUP1 DUP3 ADD SWAP2 POP POP SWAP1 POP JUMPDEST POP SWAP1 POP JUMPDEST PUSH1 0x0 DUP6 EQ PUSH2 0x165D JUMPI PUSH1 0x1 DUP3 PUSH2 0x15E9 SWAP2 SWAP1 PUSH2 0x344C JUMP JUMPDEST SWAP2 POP PUSH1 0xA DUP6 PUSH2 0x15F8 SWAP2 SWAP1 PUSH2 0x34C9 JUMP JUMPDEST PUSH1 0x30 PUSH2 0x1604 SWAP2 SWAP1 PUSH2 0x2C01 JUMP JUMPDEST PUSH1 0xF8 SHL DUP2 DUP4 DUP2 MLOAD DUP2 LT PUSH2 0x161A JUMPI PUSH2 0x1619 PUSH2 0x34FA JUMP JUMPDEST JUMPDEST PUSH1 0x20 ADD ADD SWAP1 PUSH31 0xFFFFFFFFFFFFFFFFFFFFFFFFFFFFFFFFFFFFFFFFFFFFFFFFFFFFFFFFFFFFFF NOT AND SWAP1 DUP2 PUSH1 0x0 BYTE SWAP1 MSTORE8 POP PUSH1 0xA DUP6 PUSH2 0x1656 SWAP2 SWAP1 PUSH2 0x3179 JUMP JUMPDEST SWAP5 POP PUSH2 0x15D4 JUMP JUMPDEST DUP1 SWAP4 POP POP POP POP JUMPDEST SWAP2 SWAP1 POP JUMP JUMPDEST DUP2 PUSH20 0xFFFFFFFFFFFFFFFFFFFFFFFFFFFFFFFFFFFFFFFF AND DUP4 PUSH20 0xFFFFFFFFFFFFFFFFFFFFFFFFFFFFFFFFFFFFFFFF AND EQ ISZERO PUSH2 0x16D8 JUMPI PUSH1 0x40 MLOAD PUSH32 0x8C379A000000000000000000000000000000000000000000000000000000000 DUP2 MSTORE PUSH1 0x4 ADD PUSH2 0x16CF SWAP1 PUSH2 0x3575 JUMP JUMPDEST PUSH1 0x40 MLOAD DUP1 SWAP2 SUB SWAP1 REVERT JUMPDEST DUP1 PUSH1 0x5 PUSH1 0x0 DUP6 PUSH20 0xFFFFFFFFFFFFFFFFFFFFFFFFFFFFFFFFFFFFFFFF AND PUSH20 0xFFFFFFFFFFFFFFFFFFFFFFFFFFFFFFFFFFFFFFFF AND DUP2 MSTORE PUSH1 0x20 ADD SWAP1 DUP2 MSTORE PUSH1 0x20 ADD PUSH1 0x0 KECCAK256 PUSH1 0x0 DUP5 PUSH20 0xFFFFFFFFFFFFFFFFFFFFFFFFFFFFFFFFFFFFFFFF AND PUSH20 0xFFFFFFFFFFFFFFFFFFFFFFFFFFFFFFFFFFFFFFFF AND DUP2 MSTORE PUSH1 0x20 ADD SWAP1 DUP2 MSTORE PUSH1 0x20 ADD PUSH1 0x0 KECCAK256 PUSH1 0x0 PUSH2 0x100 EXP DUP2 SLOAD DUP2 PUSH1 0xFF MUL NOT AND SWAP1 DUP4 ISZERO ISZERO MUL OR SWAP1 SSTORE POP DUP2 PUSH20 0xFFFFFFFFFFFFFFFFFFFFFFFFFFFFFFFFFFFFFFFF AND DUP4 PUSH20 0xFFFFFFFFFFFFFFFFFFFFFFFFFFFFFFFFFFFFFFFF AND PUSH32 0x17307EAB39AB6107E8899845AD3D59BD9653F200F220920489CA2B5937696C31 DUP4 PUSH1 0x40 MLOAD PUSH2 0x17C9 SWAP2 SWAP1 PUSH2 0x1E31 JUMP JUMPDEST PUSH1 0x40 MLOAD DUP1 SWAP2 SUB SWAP1 LOG3 POP POP POP JUMP JUMPDEST PUSH2 0x17E1 DUP5 DUP5 DUP5 PUSH2 0x12A1 JUMP JUMPDEST PUSH2 0x17ED DUP5 DUP5 DUP5 DUP5 PUSH2 0x1955 JUMP JUMPDEST PUSH2 0x182C JUMPI PUSH1 0x40 MLOAD PUSH32 0x8C379A000000000000000000000000000000000000000000000000000000000 DUP2 MSTORE PUSH1 0x4 ADD PUSH2 0x1823 SWAP1 PUSH2 0x3607 JUMP JUMPDEST PUSH1 0x40 MLOAD DUP1 SWAP2 SUB SWAP1 REVERT JUMPDEST POP POP POP POP JUMP JUMPDEST PUSH1 0x60 PUSH1 0x40 MLOAD DUP1 PUSH1 0x20 ADD PUSH1 0x40 MSTORE DUP1 PUSH1 0x0 DUP2 MSTORE POP SWAP1 POP SWAP1 JUMP JUMPDEST PUSH1 0x60 PUSH2 0x1854 DUP3 PUSH2 0xE7C JUMP JUMPDEST PUSH2 0x1893 JUMPI PUSH1 0x40 MLOAD PUSH32 0x8C379A000000000000000000000000000000000000000000000000000000000 DUP2 MSTORE PUSH1 0x4 ADD PUSH2 0x188A SWAP1 PUSH2 0x3699 JUMP JUMPDEST PUSH1 0x40 MLOAD DUP1 SWAP2 SUB SWAP1 REVERT JUMPDEST PUSH1 0x0 PUSH2 0x189D PUSH2 0x1832 JUMP JUMPDEST SWAP1 POP PUSH1 0x0 DUP2 MLOAD GT PUSH2 0x18BD JUMPI PUSH1 0x40 MLOAD DUP1 PUSH1 0x20 ADD PUSH1 0x40 MSTORE DUP1 PUSH1 0x0 DUP2 MSTORE POP PUSH2 0x18E8 JUMP JUMPDEST DUP1 PUSH2 0x18C7 DUP5 PUSH2 0x1508 JUMP JUMPDEST PUSH1 0x40 MLOAD PUSH1 0x20 ADD PUSH2 0x18D8 SWAP3 SWAP2 SWAP1 PUSH2 0x3126 JUMP JUMPDEST PUSH1 0x40 MLOAD PUSH1 0x20 DUP2 DUP4 SUB SUB DUP2 MSTORE SWAP1 PUSH1 0x40 MSTORE JUMPDEST SWAP2 POP POP SWAP2 SWAP1 POP JUMP JUMPDEST PUSH2 0x18FA DUP4 DUP4 PUSH2 0x1ADD JUMP JUMPDEST PUSH2 0x1907 PUSH1 0x0 DUP5 DUP5 DUP5 PUSH2 0x1955 JUMP JUMPDEST PUSH2 0x1946 JUMPI PUSH1 0x40 MLOAD PUSH32 0x8C379A000000000000000000000000000000000000000000000000000000000 DUP2 MSTORE PUSH1 0x4 ADD PUSH2 0x193D SWAP1 PUSH2 0x3607 JUMP JUMPDEST PUSH1 0x40 MLOAD DUP1 SWAP2 SUB SWAP1 REVERT JUMPDEST POP POP POP JUMP JUMPDEST POP POP POP JUMP JUMPDEST POP POP POP JUMP JUMPDEST PUSH1 0x0 PUSH2 0x1976 DUP5 PUSH20 0xFFFFFFFFFFFFFFFFFFFFFFFFFFFFFFFFFFFFFFFF AND PUSH2 0x1CB7 JUMP JUMPDEST ISZERO PUSH2 0x1AD0 JUMPI DUP4 PUSH20 0xFFFFFFFFFFFFFFFFFFFFFFFFFFFFFFFFFFFFFFFF AND PUSH4 0x150B7A02 PUSH2 0x199F PUSH2 0xEE8 JUMP JUMPDEST DUP8 DUP7 DUP7 PUSH1 0x40 MLOAD DUP6 PUSH4 0xFFFFFFFF AND PUSH1 0xE0 SHL DUP2 MSTORE PUSH1 0x4 ADD PUSH2 0x19C1 SWAP5 SWAP4 SWAP3 SWAP2 SWAP1 PUSH2 0x370E JUMP JUMPDEST PUSH1 0x20 PUSH1 0x40 MLOAD DUP1 DUP4 SUB DUP2 PUSH1 0x0 DUP8 GAS CALL SWAP3 POP POP POP DUP1 ISZERO PUSH2 0x19FD JUMPI POP PUSH1 0x40 MLOAD RETURNDATASIZE PUSH1 0x1F NOT PUSH1 0x1F DUP3 ADD AND DUP3 ADD DUP1 PUSH1 0x40 MSTORE POP DUP2 ADD SWAP1 PUSH2 0x19FA SWAP2 SWAP1 PUSH2 0x376F JUMP JUMPDEST PUSH1 0x1 JUMPDEST PUSH2 0x1A80 JUMPI RETURNDATASIZE DUP1 PUSH1 0x0 DUP2 EQ PUSH2 0x1A2D JUMPI PUSH1 0x40 MLOAD SWAP2 POP PUSH1 0x1F NOT PUSH1 0x3F RETURNDATASIZE ADD AND DUP3 ADD PUSH1 0x40 MSTORE RETURNDATASIZE DUP3 MSTORE RETURNDATASIZE PUSH1 0x0 PUSH1 0x20 DUP5 ADD RETURNDATACOPY PUSH2 0x1A32 JUMP JUMPDEST PUSH1 0x60 SWAP2 POP JUMPDEST POP PUSH1 0x0 DUP2 MLOAD EQ ISZERO PUSH2 0x1A78 JUMPI PUSH1 0x40 MLOAD PUSH32 0x8C379A000000000000000000000000000000000000000000000000000000000 DUP2 MSTORE PUSH1 0x4 ADD PUSH2 0x1A6F SWAP1 PUSH2 0x3607 JUMP JUMPDEST PUSH1 0x40 MLOAD DUP1 SWAP2 SUB SWAP1 REVERT JUMPDEST DUP1 MLOAD DUP2 PUSH1 0x20 ADD REVERT JUMPDEST PUSH4 0x150B7A02 PUSH1 0xE0 SHL PUSH28 0xFFFFFFFFFFFFFFFFFFFFFFFFFFFFFFFFFFFFFFFFFFFFFFFFFFFFFFFF NOT AND DUP2 PUSH28 0xFFFFFFFFFFFFFFFFFFFFFFFFFFFFFFFFFFFFFFFFFFFFFFFFFFFFFFFF NOT AND EQ SWAP2 POP POP PUSH2 0x1AD5 JUMP JUMPDEST PUSH1 0x1 SWAP1 POP JUMPDEST SWAP5 SWAP4 POP POP POP POP JUMP JUMPDEST PUSH1 0x0 PUSH20 0xFFFFFFFFFFFFFFFFFFFFFFFFFFFFFFFFFFFFFFFF AND DUP3 PUSH20 0xFFFFFFFFFFFFFFFFFFFFFFFFFFFFFFFFFFFFFFFF AND EQ ISZERO PUSH2 0x1B4D JUMPI PUSH1 0x40 MLOAD PUSH32 0x8C379A000000000000000000000000000000000000000000000000000000000 DUP2 MSTORE PUSH1 0x4 ADD PUSH2 0x1B44 SWAP1 PUSH2 0x37E8 JUMP JUMPDEST PUSH1 0x40 MLOAD DUP1 SWAP2 SUB SWAP1 REVERT JUMPDEST PUSH2 0x1B56 DUP2 PUSH2 0xE7C JUMP JUMPDEST ISZERO PUSH2 0x1B96 JUMPI PUSH1 0x40 MLOAD PUSH32 0x8C379A000000000000000000000000000000000000000000000000000000000 DUP2 MSTORE PUSH1 0x4 ADD PUSH2 0x1B8D SWAP1 PUSH2 0x3854 JUMP JUMPDEST PUSH1 0x40 MLOAD DUP1 SWAP2 SUB SWAP1 REVERT JUMPDEST PUSH2 0x1BA2 PUSH1 0x0 DUP4 DUP4 PUSH2 0x194B JUMP JUMPDEST PUSH1 0x1 PUSH1 0x3 PUSH1 0x0 DUP5 PUSH20 0xFFFFFFFFFFFFFFFFFFFFFFFFFFFFFFFFFFFFFFFF AND PUSH20 0xFFFFFFFFFFFFFFFFFFFFFFFFFFFFFFFFFFFFFFFF AND DUP2 MSTORE PUSH1 0x20 ADD SWAP1 DUP2 MSTORE PUSH1 0x20 ADD PUSH1 0x0 KECCAK256 PUSH1 0x0 DUP3 DUP3 SLOAD PUSH2 0x1BF2 SWAP2 SWAP1 PUSH2 0x2C01 JUMP JUMPDEST SWAP3 POP POP DUP2 SWAP1 SSTORE POP DUP2 PUSH1 0x2 PUSH1 0x0 DUP4 DUP2 MSTORE PUSH1 0x20 ADD SWAP1 DUP2 MSTORE PUSH1 0x20 ADD PUSH1 0x0 KECCAK256 PUSH1 0x0 PUSH2 0x100 EXP DUP2 SLOAD DUP2 PUSH20 0xFFFFFFFFFFFFFFFFFFFFFFFFFFFFFFFFFFFFFFFF MUL NOT AND SWAP1 DUP4 PUSH20 0xFFFFFFFFFFFFFFFFFFFFFFFFFFFFFFFFFFFFFFFF AND MUL OR SWAP1 SSTORE POP DUP1 DUP3 PUSH20 0xFFFFFFFFFFFFFFFFFFFFFFFFFFFFFFFFFFFFFFFF AND PUSH1 0x0 PUSH20 0xFFFFFFFFFFFFFFFFFFFFFFFFFFFFFFFFFFFFFFFF AND PUSH32 0xDDF252AD1BE2C89B69C2B068FC378DAA952BA7F163C4A11628F55A4DF523B3EF PUSH1 0x40 MLOAD PUSH1 0x40 MLOAD DUP1 SWAP2 SUB SWAP1 LOG4 PUSH2 0x1CB3 PUSH1 0x0 DUP4 DUP4 PUSH2 0x1950 JUMP JUMPDEST POP POP JUMP JUMPDEST PUSH1 0x0 DUP1 DUP3 PUSH20 0xFFFFFFFFFFFFFFFFFFFFFFFFFFFFFFFFFFFFFFFF AND EXTCODESIZE GT SWAP1 POP SWAP2 SWAP1 POP JUMP JUMPDEST DUP3 DUP1 SLOAD PUSH2 0x1CE6 SWAP1 PUSH2 0x236F JUMP JUMPDEST SWAP1 PUSH1 0x0 MSTORE PUSH1 0x20 PUSH1 0x0 KECCAK256 SWAP1 PUSH1 0x1F ADD PUSH1 0x20 SWAP1 DIV DUP2 ADD SWAP3 DUP3 PUSH2 0x1D08 JUMPI PUSH1 0x0 DUP6 SSTORE PUSH2 0x1D4F JUMP JUMPDEST DUP3 PUSH1 0x1F LT PUSH2 0x1D21 JUMPI DUP1 MLOAD PUSH1 0xFF NOT AND DUP4 DUP1 ADD OR DUP6 SSTORE PUSH2 0x1D4F JUMP JUMPDEST DUP3 DUP1 ADD PUSH1 0x1 ADD DUP6 SSTORE DUP3 ISZERO PUSH2 0x1D4F JUMPI SWAP2 DUP3 ADD JUMPDEST DUP3 DUP2 GT ISZERO PUSH2 0x1D4E JUMPI DUP3 MLOAD DUP3 SSTORE SWAP2 PUSH1 0x20 ADD SWAP2 SWAP1 PUSH1 0x1 ADD SWAP1 PUSH2 0x1D33 JUMP JUMPDEST JUMPDEST POP SWAP1 POP PUSH2 0x1D5C SWAP2 SWAP1 PUSH2 0x1D60 JUMP JUMPDEST POP SWAP1 JUMP JUMPDEST JUMPDEST DUP1 DUP3 GT ISZERO PUSH2 0x1D79 JUMPI PUSH1 0x0 DUP2 PUSH1 0x0 SWAP1 SSTORE POP PUSH1 0x1 ADD PUSH2 0x1D61 JUMP JUMPDEST POP SWAP1 JUMP JUMPDEST PUSH1 0x0 PUSH1 0x40 MLOAD SWAP1 POP SWAP1 JUMP JUMPDEST PUSH1 0x0 DUP1 REVERT JUMPDEST PUSH1 0x0 DUP1 REVERT JUMPDEST PUSH1 0x0 PUSH32 0xFFFFFFFF00000000000000000000000000000000000000000000000000000000 DUP3 AND SWAP1 POP SWAP2 SWAP1 POP JUMP JUMPDEST PUSH2 0x1DC6 DUP2 PUSH2 0x1D91 JUMP JUMPDEST DUP2 EQ PUSH2 0x1DD1 JUMPI PUSH1 0x0 DUP1 REVERT JUMPDEST POP JUMP JUMPDEST PUSH1 0x0 DUP2 CALLDATALOAD SWAP1 POP PUSH2 0x1DE3 DUP2 PUSH2 0x1DBD JUMP JUMPDEST SWAP3 SWAP2 POP POP JUMP JUMPDEST PUSH1 0x0 PUSH1 0x20 DUP3 DUP5 SUB SLT ISZERO PUSH2 0x1DFF JUMPI PUSH2 0x1DFE PUSH2 0x1D87 JUMP JUMPDEST JUMPDEST PUSH1 0x0 PUSH2 0x1E0D DUP5 DUP3 DUP6 ADD PUSH2 0x1DD4 JUMP JUMPDEST SWAP2 POP POP SWAP3 SWAP2 POP POP JUMP JUMPDEST PUSH1 0x0 DUP2 ISZERO ISZERO SWAP1 POP SWAP2 SWAP1 POP JUMP JUMPDEST PUSH2 0x1E2B DUP2 PUSH2 0x1E16 JUMP JUMPDEST DUP3 MSTORE POP POP JUMP JUMPDEST PUSH1 0x0 PUSH1 0x20 DUP3 ADD SWAP1 POP PUSH2 0x1E46 PUSH1 0x0 DUP4 ADD DUP5 PUSH2 0x1E22 JUMP JUMPDEST SWAP3 SWAP2 POP POP JUMP JUMPDEST PUSH1 0x0 DUP2 MLOAD SWAP1 POP SWAP2 SWAP1 POP JUMP JUMPDEST PUSH1 0x0 DUP3 DUP3 MSTORE PUSH1 0x20 DUP3 ADD SWAP1 POP SWAP3 SWAP2 POP POP JUMP JUMPDEST PUSH1 0x0 JUMPDEST DUP4 DUP2 LT ISZERO PUSH2 0x1E86 JUMPI DUP1 DUP3 ADD MLOAD DUP2 DUP5 ADD MSTORE PUSH1 0x20 DUP2 ADD SWAP1 POP PUSH2 0x1E6B JUMP JUMPDEST DUP4 DUP2 GT ISZERO PUSH2 0x1E95 JUMPI PUSH1 0x0 DUP5 DUP5 ADD MSTORE JUMPDEST POP POP POP POP JUMP JUMPDEST PUSH1 0x0 PUSH1 0x1F NOT PUSH1 0x1F DUP4 ADD AND SWAP1 POP SWAP2 SWAP1 POP JUMP JUMPDEST PUSH1 0x0 PUSH2 0x1EB7 DUP3 PUSH2 0x1E4C JUMP JUMPDEST PUSH2 0x1EC1 DUP2 DUP6 PUSH2 0x1E57 JUMP JUMPDEST SWAP4 POP PUSH2 0x1ED1 DUP2 DUP6 PUSH1 0x20 DUP7 ADD PUSH2 0x1E68 JUMP JUMPDEST PUSH2 0x1EDA DUP2 PUSH2 0x1E9B JUMP JUMPDEST DUP5 ADD SWAP2 POP POP SWAP3 SWAP2 POP POP JUMP JUMPDEST PUSH1 0x0 PUSH1 0x20 DUP3 ADD SWAP1 POP DUP2 DUP2 SUB PUSH1 0x0 DUP4 ADD MSTORE PUSH2 0x1EFF DUP2 DUP5 PUSH2 0x1EAC JUMP JUMPDEST SWAP1 POP SWAP3 SWAP2 POP POP JUMP JUMPDEST PUSH1 0x0 DUP2 SWAP1 POP SWAP2 SWAP1 POP JUMP JUMPDEST PUSH2 0x1F1A DUP2 PUSH2 0x1F07 JUMP JUMPDEST DUP2 EQ PUSH2 0x1F25 JUMPI PUSH1 0x0 DUP1 REVERT JUMPDEST POP JUMP JUMPDEST PUSH1 0x0 DUP2 CALLDATALOAD SWAP1 POP PUSH2 0x1F37 DUP2 PUSH2 0x1F11 JUMP JUMPDEST SWAP3 SWAP2 POP POP JUMP JUMPDEST PUSH1 0x0 PUSH1 0x20 DUP3 DUP5 SUB SLT ISZERO PUSH2 0x1F53 JUMPI PUSH2 0x1F52 PUSH2 0x1D87 JUMP JUMPDEST JUMPDEST PUSH1 0x0 PUSH2 0x1F61 DUP5 DUP3 DUP6 ADD PUSH2 0x1F28 JUMP JUMPDEST SWAP2 POP POP SWAP3 SWAP2 POP POP JUMP JUMPDEST PUSH1 0x0 PUSH20 0xFFFFFFFFFFFFFFFFFFFFFFFFFFFFFFFFFFFFFFFF DUP3 AND SWAP1 POP SWAP2 SWAP1 POP JUMP JUMPDEST PUSH1 0x0 PUSH2 0x1F95 DUP3 PUSH2 0x1F6A JUMP JUMPDEST SWAP1 POP SWAP2 SWAP1 POP JUMP JUMPDEST PUSH2 0x1FA5 DUP2 PUSH2 0x1F8A JUMP JUMPDEST DUP3 MSTORE POP POP JUMP JUMPDEST PUSH1 0x0 PUSH1 0x20 DUP3 ADD SWAP1 POP PUSH2 0x1FC0 PUSH1 0x0 DUP4 ADD DUP5 PUSH2 0x1F9C JUMP JUMPDEST SWAP3 SWAP2 POP POP JUMP JUMPDEST PUSH2 0x1FCF DUP2 PUSH2 0x1F8A JUMP JUMPDEST DUP2 EQ PUSH2 0x1FDA JUMPI PUSH1 0x0 DUP1 REVERT JUMPDEST POP JUMP JUMPDEST PUSH1 0x0 DUP2 CALLDATALOAD SWAP1 POP PUSH2 0x1FEC DUP2 PUSH2 0x1FC6 JUMP JUMPDEST SWAP3 SWAP2 POP POP JUMP JUMPDEST PUSH1 0x0 DUP1 PUSH1 0x40 DUP4 DUP6 SUB SLT ISZERO PUSH2 0x2009 JUMPI PUSH2 0x2008 PUSH2 0x1D87 JUMP JUMPDEST JUMPDEST PUSH1 0x0 PUSH2 0x2017 DUP6 DUP3 DUP7 ADD PUSH2 0x1FDD JUMP JUMPDEST SWAP3 POP POP PUSH1 0x20 PUSH2 0x2028 DUP6 DUP3 DUP7 ADD PUSH2 0x1F28 JUMP JUMPDEST SWAP2 POP POP SWAP3 POP SWAP3 SWAP1 POP JUMP JUMPDEST PUSH1 0x0 DUP1 PUSH1 0x0 PUSH1 0x60 DUP5 DUP7 SUB SLT ISZERO PUSH2 0x204B JUMPI PUSH2 0x204A PUSH2 0x1D87 JUMP JUMPDEST JUMPDEST PUSH1 0x0 PUSH2 0x2059 DUP7 DUP3 DUP8 ADD PUSH2 0x1FDD JUMP JUMPDEST SWAP4 POP POP PUSH1 0x20 PUSH2 0x206A DUP7 DUP3 DUP8 ADD PUSH2 0x1FDD JUMP JUMPDEST SWAP3 POP POP PUSH1 0x40 PUSH2 0x207B DUP7 DUP3 DUP8 ADD PUSH2 0x1F28 JUMP JUMPDEST SWAP2 POP POP SWAP3 POP SWAP3 POP SWAP3 JUMP JUMPDEST PUSH1 0x0 PUSH1 0x20 DUP3 DUP5 SUB SLT ISZERO PUSH2 0x209B JUMPI PUSH2 0x209A PUSH2 0x1D87 JUMP JUMPDEST JUMPDEST PUSH1 0x0 PUSH2 0x20A9 DUP5 DUP3 DUP6 ADD PUSH2 0x1FDD JUMP JUMPDEST SWAP2 POP POP SWAP3 SWAP2 POP POP JUMP JUMPDEST PUSH2 0x20BB DUP2 PUSH2 0x1F07 JUMP JUMPDEST DUP3 MSTORE POP POP JUMP JUMPDEST PUSH1 0x0 PUSH1 0x20 DUP3 ADD SWAP1 POP PUSH2 0x20D6 PUSH1 0x0 DUP4 ADD DUP5 PUSH2 0x20B2 JUMP JUMPDEST SWAP3 SWAP2 POP POP JUMP JUMPDEST PUSH2 0x20E5 DUP2 PUSH2 0x1E16 JUMP JUMPDEST DUP2 EQ PUSH2 0x20F0 JUMPI PUSH1 0x0 DUP1 REVERT JUMPDEST POP JUMP JUMPDEST PUSH1 0x0 DUP2 CALLDATALOAD SWAP1 POP PUSH2 0x2102 DUP2 PUSH2 0x20DC JUMP JUMPDEST SWAP3 SWAP2 POP POP JUMP JUMPDEST PUSH1 0x0 DUP1 PUSH1 0x40 DUP4 DUP6 SUB SLT ISZERO PUSH2 0x211F JUMPI PUSH2 0x211E PUSH2 0x1D87 JUMP JUMPDEST JUMPDEST PUSH1 0x0 PUSH2 0x212D DUP6 DUP3 DUP7 ADD PUSH2 0x1FDD JUMP JUMPDEST SWAP3 POP POP PUSH1 0x20 PUSH2 0x213E DUP6 DUP3 DUP7 ADD PUSH2 0x20F3 JUMP JUMPDEST SWAP2 POP POP SWAP3 POP SWAP3 SWAP1 POP JUMP JUMPDEST PUSH1 0x0 DUP1 REVERT JUMPDEST PUSH1 0x0 DUP1 REVERT JUMPDEST PUSH32 0x4E487B7100000000000000000000000000000000000000000000000000000000 PUSH1 0x0 MSTORE PUSH1 0x41 PUSH1 0x4 MSTORE PUSH1 0x24 PUSH1 0x0 REVERT JUMPDEST PUSH2 0x218A DUP3 PUSH2 0x1E9B JUMP JUMPDEST DUP2 ADD DUP2 DUP2 LT PUSH8 0xFFFFFFFFFFFFFFFF DUP3 GT OR ISZERO PUSH2 0x21A9 JUMPI PUSH2 0x21A8 PUSH2 0x2152 JUMP JUMPDEST JUMPDEST DUP1 PUSH1 0x40 MSTORE POP POP POP JUMP JUMPDEST PUSH1 0x0 PUSH2 0x21BC PUSH2 0x1D7D JUMP JUMPDEST SWAP1 POP PUSH2 0x21C8 DUP3 DUP3 PUSH2 0x2181 JUMP JUMPDEST SWAP2 SWAP1 POP JUMP JUMPDEST PUSH1 0x0 PUSH8 0xFFFFFFFFFFFFFFFF DUP3 GT ISZERO PUSH2 0x21E8 JUMPI PUSH2 0x21E7 PUSH2 0x2152 JUMP JUMPDEST JUMPDEST PUSH2 0x21F1 DUP3 PUSH2 0x1E9B JUMP JUMPDEST SWAP1 POP PUSH1 0x20 DUP2 ADD SWAP1 POP SWAP2 SWAP1 POP JUMP JUMPDEST DUP3 DUP2 DUP4 CALLDATACOPY PUSH1 0x0 DUP4 DUP4 ADD MSTORE POP POP POP JUMP JUMPDEST PUSH1 0x0 PUSH2 0x2220 PUSH2 0x221B DUP5 PUSH2 0x21CD JUMP JUMPDEST PUSH2 0x21B2 JUMP JUMPDEST SWAP1 POP DUP3 DUP2 MSTORE PUSH1 0x20 DUP2 ADD DUP5 DUP5 DUP5 ADD GT ISZERO PUSH2 0x223C JUMPI PUSH2 0x223B PUSH2 0x214D JUMP JUMPDEST JUMPDEST PUSH2 0x2247 DUP5 DUP3 DUP6 PUSH2 0x21FE JUMP JUMPDEST POP SWAP4 SWAP3 POP POP POP JUMP JUMPDEST PUSH1 0x0 DUP3 PUSH1 0x1F DUP4 ADD SLT PUSH2 0x2264 JUMPI PUSH2 0x2263 PUSH2 0x2148 JUMP JUMPDEST JUMPDEST DUP2 CALLDATALOAD PUSH2 0x2274 DUP5 DUP3 PUSH1 0x20 DUP7 ADD PUSH2 0x220D JUMP JUMPDEST SWAP2 POP POP SWAP3 SWAP2 POP POP JUMP JUMPDEST PUSH1 0x0 DUP1 PUSH1 0x0 DUP1 PUSH1 0x80 DUP6 DUP8 SUB SLT ISZERO PUSH2 0x2297 JUMPI PUSH2 0x2296 PUSH2 0x1D87 JUMP JUMPDEST JUMPDEST PUSH1 0x0 PUSH2 0x22A5 DUP8 DUP3 DUP9 ADD PUSH2 0x1FDD JUMP JUMPDEST SWAP5 POP POP PUSH1 0x20 PUSH2 0x22B6 DUP8 DUP3 DUP9 ADD PUSH2 0x1FDD JUMP JUMPDEST SWAP4 POP POP PUSH1 0x40 PUSH2 0x22C7 DUP8 DUP3 DUP9 ADD PUSH2 0x1F28 JUMP JUMPDEST SWAP3 POP POP PUSH1 0x60 DUP6 ADD CALLDATALOAD PUSH8 0xFFFFFFFFFFFFFFFF DUP2 GT ISZERO PUSH2 0x22E8 JUMPI PUSH2 0x22E7 PUSH2 0x1D8C JUMP JUMPDEST JUMPDEST PUSH2 0x22F4 DUP8 DUP3 DUP9 ADD PUSH2 0x224F JUMP JUMPDEST SWAP2 POP POP SWAP3 SWAP6 SWAP2 SWAP5 POP SWAP3 POP JUMP JUMPDEST PUSH1 0x0 DUP1 PUSH1 0x40 DUP4 DUP6 SUB SLT ISZERO PUSH2 0x2317 JUMPI PUSH2 0x2316 PUSH2 0x1D87 JUMP JUMPDEST JUMPDEST PUSH1 0x0 PUSH2 0x2325 DUP6 DUP3 DUP7 ADD PUSH2 0x1FDD JUMP JUMPDEST SWAP3 POP POP PUSH1 0x20 PUSH2 0x2336 DUP6 DUP3 DUP7 ADD PUSH2 0x1FDD JUMP JUMPDEST SWAP2 POP POP SWAP3 POP SWAP3 SWAP1 POP JUMP JUMPDEST PUSH32 0x4E487B7100000000000000000000000000000000000000000000000000000000 PUSH1 0x0 MSTORE PUSH1 0x22 PUSH1 0x4 MSTORE PUSH1 0x24 PUSH1 0x0 REVERT JUMPDEST PUSH1 0x0 PUSH1 0x2 DUP3 DIV SWAP1 POP PUSH1 0x1 DUP3 AND DUP1 PUSH2 0x2387 JUMPI PUSH1 0x7F DUP3 AND SWAP2 POP JUMPDEST PUSH1 0x20 DUP3 LT DUP2 EQ ISZERO PUSH2 0x239B JUMPI PUSH2 0x239A PUSH2 0x2340 JUMP JUMPDEST JUMPDEST POP SWAP2 SWAP1 POP JUMP JUMPDEST PUSH32 0x4552433732313A20617070726F76656420717565727920666F72206E6F6E6578 PUSH1 0x0 DUP3 ADD MSTORE PUSH32 0x697374656E7420746F6B656E0000000000000000000000000000000000000000 PUSH1 0x20 DUP3 ADD MSTORE POP JUMP JUMPDEST PUSH1 0x0 PUSH2 0x23FD PUSH1 0x2C DUP4 PUSH2 0x1E57 JUMP JUMPDEST SWAP2 POP PUSH2 0x2408 DUP3 PUSH2 0x23A1 JUMP JUMPDEST PUSH1 0x40 DUP3 ADD SWAP1 POP SWAP2 SWAP1 POP JUMP JUMPDEST PUSH1 0x0 PUSH1 0x20 DUP3 ADD SWAP1 POP DUP2 DUP2 SUB PUSH1 0x0 DUP4 ADD MSTORE PUSH2 0x242C DUP2 PUSH2 0x23F0 JUMP JUMPDEST SWAP1 POP SWAP2 SWAP1 POP JUMP JUMPDEST PUSH32 0x4552433732313A20617070726F76616C20746F2063757272656E74206F776E65 PUSH1 0x0 DUP3 ADD MSTORE PUSH32 0x7200000000000000000000000000000000000000000000000000000000000000 PUSH1 0x20 DUP3 ADD MSTORE POP JUMP JUMPDEST PUSH1 0x0 PUSH2 0x248F PUSH1 0x21 DUP4 PUSH2 0x1E57 JUMP JUMPDEST SWAP2 POP PUSH2 0x249A DUP3 PUSH2 0x2433 JUMP JUMPDEST PUSH1 0x40 DUP3 ADD SWAP1 POP SWAP2 SWAP1 POP JUMP JUMPDEST PUSH1 0x0 PUSH1 0x20 DUP3 ADD SWAP1 POP DUP2 DUP2 SUB PUSH1 0x0 DUP4 ADD MSTORE PUSH2 0x24BE DUP2 PUSH2 0x2482 JUMP JUMPDEST SWAP1 POP SWAP2 SWAP1 POP JUMP JUMPDEST PUSH32 0x4552433732313A20617070726F76652063616C6C6572206973206E6F74206F77 PUSH1 0x0 DUP3 ADD MSTORE PUSH32 0x6E6572206E6F7220617070726F76656420666F7220616C6C0000000000000000 PUSH1 0x20 DUP3 ADD MSTORE POP JUMP JUMPDEST PUSH1 0x0 PUSH2 0x2521 PUSH1 0x38 DUP4 PUSH2 0x1E57 JUMP JUMPDEST SWAP2 POP PUSH2 0x252C DUP3 PUSH2 0x24C5 JUMP JUMPDEST PUSH1 0x40 DUP3 ADD SWAP1 POP SWAP2 SWAP1 POP JUMP JUMPDEST PUSH1 0x0 PUSH1 0x20 DUP3 ADD SWAP1 POP DUP2 DUP2 SUB PUSH1 0x0 DUP4 ADD MSTORE PUSH2 0x2550 DUP2 PUSH2 0x2514 JUMP JUMPDEST SWAP1 POP SWAP2 SWAP1 POP JUMP JUMPDEST PUSH1 0x0 DUP2 SWAP1 POP SWAP3 SWAP2 POP POP JUMP JUMPDEST PUSH32 0x3C73766720786D6C6E733D22687474703A2F2F7777772E77332E6F72672F3230 PUSH1 0x0 DUP3 ADD MSTORE PUSH32 0x30302F73766722207072657365727665417370656374526174696F3D22784D69 PUSH1 0x20 DUP3 ADD MSTORE PUSH32 0x6E594D696E206D656574222076696577426F783D223020302033353020333530 PUSH1 0x40 DUP3 ADD MSTORE PUSH32 0x223E000000000000000000000000000000000000000000000000000000000000 PUSH1 0x60 DUP3 ADD MSTORE POP JUMP JUMPDEST PUSH1 0x0 PUSH2 0x260A PUSH1 0x62 DUP4 PUSH2 0x2557 JUMP JUMPDEST SWAP2 POP PUSH2 0x2615 DUP3 PUSH2 0x2562 JUMP JUMPDEST PUSH1 0x62 DUP3 ADD SWAP1 POP SWAP2 SWAP1 POP JUMP JUMPDEST PUSH32 0x3C7374796C653E2E62617365207B2066696C6C3A2077686974653B20666F6E74 PUSH1 0x0 DUP3 ADD MSTORE PUSH32 0x2D66616D696C793A2073657269663B20666F6E742D73697A653A20313470783B PUSH1 0x20 DUP3 ADD MSTORE PUSH32 0x207D3C2F7374796C653E00000000000000000000000000000000000000000000 PUSH1 0x40 DUP3 ADD MSTORE POP JUMP JUMPDEST PUSH1 0x0 PUSH2 0x26A2 PUSH1 0x4A DUP4 PUSH2 0x2557 JUMP JUMPDEST SWAP2 POP PUSH2 0x26AD DUP3 PUSH2 0x2620 JUMP JUMPDEST PUSH1 0x4A DUP3 ADD SWAP1 POP SWAP2 SWAP1 POP JUMP JUMPDEST PUSH32 0x3C726563742077696474683D223130302522206865696768743D223130302522 PUSH1 0x0 DUP3 ADD MSTORE PUSH32 0x2066696C6C3D22626C61636B22202F3E00000000000000000000000000000000 PUSH1 0x20 DUP3 ADD MSTORE POP JUMP JUMPDEST PUSH1 0x0 PUSH2 0x2714 PUSH1 0x30 DUP4 PUSH2 0x2557 JUMP JUMPDEST SWAP2 POP PUSH2 0x271F DUP3 PUSH2 0x26B8 JUMP JUMPDEST PUSH1 0x30 DUP3 ADD SWAP1 POP SWAP2 SWAP1 POP JUMP JUMPDEST PUSH32 0x3C7465787420783D223530252220793D223430252220636C6173733D22626173 PUSH1 0x0 DUP3 ADD MSTORE PUSH32 0x652220646F6D696E616E742D626173656C696E653D226D6964646C6522207465 PUSH1 0x20 DUP3 ADD MSTORE PUSH32 0x78742D616E63686F723D226D6964646C65223E00000000000000000000000000 PUSH1 0x40 DUP3 ADD MSTORE POP JUMP JUMPDEST PUSH1 0x0 PUSH2 0x27AC PUSH1 0x53 DUP4 PUSH2 0x2557 JUMP JUMPDEST SWAP2 POP PUSH2 0x27B7 DUP3 PUSH2 0x272A JUMP JUMPDEST PUSH1 0x53 DUP3 ADD SWAP1 POP SWAP2 SWAP1 POP JUMP JUMPDEST PUSH32 0x57617272696F7200000000000000000000000000000000000000000000000000 PUSH1 0x0 DUP3 ADD MSTORE POP JUMP JUMPDEST PUSH1 0x0 PUSH2 0x27F8 PUSH1 0x7 DUP4 PUSH2 0x2557 JUMP JUMPDEST SWAP2 POP PUSH2 0x2803 DUP3 PUSH2 0x27C2 JUMP JUMPDEST PUSH1 0x7 DUP3 ADD SWAP1 POP SWAP2 SWAP1 POP JUMP JUMPDEST PUSH32 0x3C2F746578743E00000000000000000000000000000000000000000000000000 PUSH1 0x0 DUP3 ADD MSTORE POP JUMP JUMPDEST PUSH1 0x0 PUSH2 0x2844 PUSH1 0x7 DUP4 PUSH2 0x2557 JUMP JUMPDEST SWAP2 POP PUSH2 0x284F DUP3 PUSH2 0x280E JUMP JUMPDEST PUSH1 0x7 DUP3 ADD SWAP1 POP SWAP2 SWAP1 POP JUMP JUMPDEST PUSH32 0x3C7465787420783D223530252220793D223530252220636C6173733D22626173 PUSH1 0x0 DUP3 ADD MSTORE PUSH32 0x652220646F6D696E616E742D626173656C696E653D226D6964646C6522207465 PUSH1 0x20 DUP3 ADD MSTORE PUSH32 0x78742D616E63686F723D226D6964646C65223E00000000000000000000000000 PUSH1 0x40 DUP3 ADD MSTORE POP JUMP JUMPDEST PUSH1 0x0 PUSH2 0x28DC PUSH1 0x53 DUP4 PUSH2 0x2557 JUMP JUMPDEST SWAP2 POP PUSH2 0x28E7 DUP3 PUSH2 0x285A JUMP JUMPDEST PUSH1 0x53 DUP3 ADD SWAP1 POP SWAP2 SWAP1 POP JUMP JUMPDEST PUSH32 0x4C6576656C733A20000000000000000000000000000000000000000000000000 PUSH1 0x0 DUP3 ADD MSTORE POP JUMP JUMPDEST PUSH1 0x0 PUSH2 0x2928 PUSH1 0x8 DUP4 PUSH2 0x2557 JUMP JUMPDEST SWAP2 POP PUSH2 0x2933 DUP3 PUSH2 0x28F2 JUMP JUMPDEST PUSH1 0x8 DUP3 ADD SWAP1 POP SWAP2 SWAP1 POP JUMP JUMPDEST PUSH1 0x0 PUSH2 0x2949 DUP3 PUSH2 0x1E4C JUMP JUMPDEST PUSH2 0x2953 DUP2 DUP6 PUSH2 0x2557 JUMP JUMPDEST SWAP4 POP PUSH2 0x2963 DUP2 DUP6 PUSH1 0x20 DUP7 ADD PUSH2 0x1E68 JUMP JUMPDEST DUP1 DUP5 ADD SWAP2 POP POP SWAP3 SWAP2 POP POP JUMP JUMPDEST PUSH32 0x3C2F7376673E0000000000000000000000000000000000000000000000000000 PUSH1 0x0 DUP3 ADD MSTORE POP JUMP JUMPDEST PUSH1 0x0 PUSH2 0x29A5 PUSH1 0x6 DUP4 PUSH2 0x2557 JUMP JUMPDEST SWAP2 POP PUSH2 0x29B0 DUP3 PUSH2 0x296F JUMP JUMPDEST PUSH1 0x6 DUP3 ADD SWAP1 POP SWAP2 SWAP1 POP JUMP JUMPDEST PUSH1 0x0 PUSH2 0x29C6 DUP3 PUSH2 0x25FD JUMP JUMPDEST SWAP2 POP PUSH2 0x29D1 DUP3 PUSH2 0x2695 JUMP JUMPDEST SWAP2 POP PUSH2 0x29DC DUP3 PUSH2 0x2707 JUMP JUMPDEST SWAP2 POP PUSH2 0x29E7 DUP3 PUSH2 0x279F JUMP JUMPDEST SWAP2 POP PUSH2 0x29F2 DUP3 PUSH2 0x27EB JUMP JUMPDEST SWAP2 POP PUSH2 0x29FD DUP3 PUSH2 0x2837 JUMP JUMPDEST SWAP2 POP PUSH2 0x2A08 DUP3 PUSH2 0x28CF JUMP JUMPDEST SWAP2 POP PUSH2 0x2A13 DUP3 PUSH2 0x291B JUMP JUMPDEST SWAP2 POP PUSH2 0x2A1F DUP3 DUP5 PUSH2 0x293E JUMP JUMPDEST SWAP2 POP PUSH2 0x2A2A DUP3 PUSH2 0x2837 JUMP JUMPDEST SWAP2 POP PUSH2 0x2A35 DUP3 PUSH2 0x2998 JUMP JUMPDEST SWAP2 POP DUP2 SWAP1 POP SWAP3 SWAP2 POP POP JUMP JUMPDEST PUSH32 0x646174613A696D6167652F7376672B786D6C3B6261736536342C000000000000 PUSH1 0x0 DUP3 ADD MSTORE POP JUMP JUMPDEST PUSH1 0x0 PUSH2 0x2A76 PUSH1 0x1A DUP4 PUSH2 0x2557 JUMP JUMPDEST SWAP2 POP PUSH2 0x2A81 DUP3 PUSH2 0x2A40 JUMP JUMPDEST PUSH1 0x1A DUP3 ADD SWAP1 POP SWAP2 SWAP1 POP JUMP JUMPDEST PUSH1 0x0 PUSH2 0x2A97 DUP3 PUSH2 0x2A69 JUMP JUMPDEST SWAP2 POP PUSH2 0x2AA3 DUP3 DUP5 PUSH2 0x293E JUMP JUMPDEST SWAP2 POP DUP2 SWAP1 POP SWAP3 SWAP2 POP POP JUMP JUMPDEST PUSH32 0x4552433732313A207472616E736665722063616C6C6572206973206E6F74206F PUSH1 0x0 DUP3 ADD MSTORE PUSH32 0x776E6572206E6F7220617070726F766564000000000000000000000000000000 PUSH1 0x20 DUP3 ADD MSTORE POP JUMP JUMPDEST PUSH1 0x0 PUSH2 0x2B0A PUSH1 0x31 DUP4 PUSH2 0x1E57 JUMP JUMPDEST SWAP2 POP PUSH2 0x2B15 DUP3 PUSH2 0x2AAE JUMP JUMPDEST PUSH1 0x40 DUP3 ADD SWAP1 POP SWAP2 SWAP1 POP JUMP JUMPDEST PUSH1 0x0 PUSH1 0x20 DUP3 ADD SWAP1 POP DUP2 DUP2 SUB PUSH1 0x0 DUP4 ADD MSTORE PUSH2 0x2B39 DUP2 PUSH2 0x2AFD JUMP JUMPDEST SWAP1 POP SWAP2 SWAP1 POP JUMP JUMPDEST PUSH32 0x596F75206D757374206F776E2074686973204E465420746F20747261696E2069 PUSH1 0x0 DUP3 ADD MSTORE PUSH32 0x7421000000000000000000000000000000000000000000000000000000000000 PUSH1 0x20 DUP3 ADD MSTORE POP JUMP JUMPDEST PUSH1 0x0 PUSH2 0x2B9C PUSH1 0x22 DUP4 PUSH2 0x1E57 JUMP JUMPDEST SWAP2 POP PUSH2 0x2BA7 DUP3 PUSH2 0x2B40 JUMP JUMPDEST PUSH1 0x40 DUP3 ADD SWAP1 POP SWAP2 SWAP1 POP JUMP JUMPDEST PUSH1 0x0 PUSH1 0x20 DUP3 ADD SWAP1 POP DUP2 DUP2 SUB PUSH1 0x0 DUP4 ADD MSTORE PUSH2 0x2BCB DUP2 PUSH2 0x2B8F JUMP JUMPDEST SWAP1 POP SWAP2 SWAP1 POP JUMP JUMPDEST PUSH32 0x4E487B7100000000000000000000000000000000000000000000000000000000 PUSH1 0x0 MSTORE PUSH1 0x11 PUSH1 0x4 MSTORE PUSH1 0x24 PUSH1 0x0 REVERT JUMPDEST PUSH1 0x0 PUSH2 0x2C0C DUP3 PUSH2 0x1F07 JUMP JUMPDEST SWAP2 POP PUSH2 0x2C17 DUP4 PUSH2 0x1F07 JUMP JUMPDEST SWAP3 POP DUP3 PUSH32 0xFFFFFFFFFFFFFFFFFFFFFFFFFFFFFFFFFFFFFFFFFFFFFFFFFFFFFFFFFFFFFFFF SUB DUP3 GT ISZERO PUSH2 0x2C4C JUMPI PUSH2 0x2C4B PUSH2 0x2BD2 JUMP JUMPDEST JUMPDEST DUP3 DUP3 ADD SWAP1 POP SWAP3 SWAP2 POP POP JUMP JUMPDEST PUSH32 0x7B00000000000000000000000000000000000000000000000000000000000000 PUSH1 0x0 DUP3 ADD MSTORE POP JUMP JUMPDEST PUSH1 0x0 PUSH2 0x2C8D PUSH1 0x1 DUP4 PUSH2 0x2557 JUMP JUMPDEST SWAP2 POP PUSH2 0x2C98 DUP3 PUSH2 0x2C57 JUMP JUMPDEST PUSH1 0x1 DUP3 ADD SWAP1 POP SWAP2 SWAP1 POP JUMP JUMPDEST PUSH32 0x226E616D65223A2022436861696E20426174746C657320230000000000000000 PUSH1 0x0 DUP3 ADD MSTORE POP JUMP JUMPDEST PUSH1 0x0 PUSH2 0x2CD9 PUSH1 0x18 DUP4 PUSH2 0x2557 JUMP JUMPDEST SWAP2 POP PUSH2 0x2CE4 DUP3 PUSH2 0x2CA3 JUMP JUMPDEST PUSH1 0x18 DUP3 ADD SWAP1 POP SWAP2 SWAP1 POP JUMP JUMPDEST PUSH32 0x222C000000000000000000000000000000000000000000000000000000000000 PUSH1 0x0 DUP3 ADD MSTORE POP JUMP JUMPDEST PUSH1 0x0 PUSH2 0x2D25 PUSH1 0x2 DUP4 PUSH2 0x2557 JUMP JUMPDEST SWAP2 POP PUSH2 0x2D30 DUP3 PUSH2 0x2CEF JUMP JUMPDEST PUSH1 0x2 DUP3 ADD SWAP1 POP SWAP2 SWAP1 POP JUMP JUMPDEST PUSH32 0x226465736372697074696F6E223A2022426174746C6573206F6E20636861696E PUSH1 0x0 DUP3 ADD MSTORE PUSH32 0x222C000000000000000000000000000000000000000000000000000000000000 PUSH1 0x20 DUP3 ADD MSTORE POP JUMP JUMPDEST PUSH1 0x0 PUSH2 0x2D97 PUSH1 0x22 DUP4 PUSH2 0x2557 JUMP JUMPDEST SWAP2 POP PUSH2 0x2DA2 DUP3 PUSH2 0x2D3B JUMP JUMPDEST PUSH1 0x22 DUP3 ADD SWAP1 POP SWAP2 SWAP1 POP JUMP JUMPDEST PUSH32 0x22696D616765223A202200000000000000000000000000000000000000000000 PUSH1 0x0 DUP3 ADD MSTORE POP JUMP JUMPDEST PUSH1 0x0 PUSH2 0x2DE3 PUSH1 0xA DUP4 PUSH2 0x2557 JUMP JUMPDEST SWAP2 POP PUSH2 0x2DEE DUP3 PUSH2 0x2DAD JUMP JUMPDEST PUSH1 0xA DUP3 ADD SWAP1 POP SWAP2 SWAP1 POP JUMP JUMPDEST PUSH32 0x2200000000000000000000000000000000000000000000000000000000000000 PUSH1 0x0 DUP3 ADD MSTORE POP JUMP JUMPDEST PUSH1 0x0 PUSH2 0x2E2F PUSH1 0x1 DUP4 PUSH2 0x2557 JUMP JUMPDEST SWAP2 POP PUSH2 0x2E3A DUP3 PUSH2 0x2DF9 JUMP JUMPDEST PUSH1 0x1 DUP3 ADD SWAP1 POP SWAP2 SWAP1 POP JUMP JUMPDEST PUSH32 0x7D00000000000000000000000000000000000000000000000000000000000000 PUSH1 0x0 DUP3 ADD MSTORE POP JUMP JUMPDEST PUSH1 0x0 PUSH2 0x2E7B PUSH1 0x1 DUP4 PUSH2 0x2557 JUMP JUMPDEST SWAP2 POP PUSH2 0x2E86 DUP3 PUSH2 0x2E45 JUMP JUMPDEST PUSH1 0x1 DUP3 ADD SWAP1 POP SWAP2 SWAP1 POP JUMP JUMPDEST PUSH1 0x0 PUSH2 0x2E9C DUP3 PUSH2 0x2C80 JUMP JUMPDEST SWAP2 POP PUSH2 0x2EA7 DUP3 PUSH2 0x2CCC JUMP JUMPDEST SWAP2 POP PUSH2 0x2EB3 DUP3 DUP6 PUSH2 0x293E JUMP JUMPDEST SWAP2 POP PUSH2 0x2EBE DUP3 PUSH2 0x2D18 JUMP JUMPDEST SWAP2 POP PUSH2 0x2EC9 DUP3 PUSH2 0x2D8A JUMP JUMPDEST SWAP2 POP PUSH2 0x2ED4 DUP3 PUSH2 0x2DD6 JUMP JUMPDEST SWAP2 POP PUSH2 0x2EE0 DUP3 DUP5 PUSH2 0x293E JUMP JUMPDEST SWAP2 POP PUSH2 0x2EEB DUP3 PUSH2 0x2E22 JUMP JUMPDEST SWAP2 POP PUSH2 0x2EF6 DUP3 PUSH2 0x2E6E JUMP JUMPDEST SWAP2 POP DUP2 SWAP1 POP SWAP4 SWAP3 POP POP POP JUMP JUMPDEST PUSH32 0x646174613A6170706C69636174696F6E2F6A736F6E3B6261736536342C000000 PUSH1 0x0 DUP3 ADD MSTORE POP JUMP JUMPDEST PUSH1 0x0 PUSH2 0x2F38 PUSH1 0x1D DUP4 PUSH2 0x2557 JUMP JUMPDEST SWAP2 POP PUSH2 0x2F43 DUP3 PUSH2 0x2F02 JUMP JUMPDEST PUSH1 0x1D DUP3 ADD SWAP1 POP SWAP2 SWAP1 POP JUMP JUMPDEST PUSH1 0x0 PUSH2 0x2F59 DUP3 PUSH2 0x2F2B JUMP JUMPDEST SWAP2 POP PUSH2 0x2F65 DUP3 DUP5 PUSH2 0x293E JUMP JUMPDEST SWAP2 POP DUP2 SWAP1 POP SWAP3 SWAP2 POP POP JUMP JUMPDEST PUSH32 0x4552433732313A206F776E657220717565727920666F72206E6F6E6578697374 PUSH1 0x0 DUP3 ADD MSTORE PUSH32 0x656E7420746F6B656E0000000000000000000000000000000000000000000000 PUSH1 0x20 DUP3 ADD MSTORE POP JUMP JUMPDEST PUSH1 0x0 PUSH2 0x2FCC PUSH1 0x29 DUP4 PUSH2 0x1E57 JUMP JUMPDEST SWAP2 POP PUSH2 0x2FD7 DUP3 PUSH2 0x2F70 JUMP JUMPDEST PUSH1 0x40 DUP3 ADD SWAP1 POP SWAP2 SWAP1 POP JUMP JUMPDEST PUSH1 0x0 PUSH1 0x20 DUP3 ADD SWAP1 POP DUP2 DUP2 SUB PUSH1 0x0 DUP4 ADD MSTORE PUSH2 0x2FFB DUP2 PUSH2 0x2FBF JUMP JUMPDEST SWAP1 POP SWAP2 SWAP1 POP JUMP JUMPDEST PUSH32 0x4552433732313A2062616C616E636520717565727920666F7220746865207A65 PUSH1 0x0 DUP3 ADD MSTORE PUSH32 0x726F206164647265737300000000000000000000000000000000000000000000 PUSH1 0x20 DUP3 ADD MSTORE POP JUMP JUMPDEST PUSH1 0x0 PUSH2 0x305E PUSH1 0x2A DUP4 PUSH2 0x1E57 JUMP JUMPDEST SWAP2 POP PUSH2 0x3069 DUP3 PUSH2 0x3002 JUMP JUMPDEST PUSH1 0x40 DUP3 ADD SWAP1 POP SWAP2 SWAP1 POP JUMP JUMPDEST PUSH1 0x0 PUSH1 0x20 DUP3 ADD SWAP1 POP DUP2 DUP2 SUB PUSH1 0x0 DUP4 ADD MSTORE PUSH2 0x308D DUP2 PUSH2 0x3051 JUMP JUMPDEST SWAP1 POP SWAP2 SWAP1 POP JUMP JUMPDEST PUSH32 0x45524337323155524953746F726167653A2055524920717565727920666F7220 PUSH1 0x0 DUP3 ADD MSTORE PUSH32 0x6E6F6E6578697374656E7420746F6B656E000000000000000000000000000000 PUSH1 0x20 DUP3 ADD MSTORE POP JUMP JUMPDEST PUSH1 0x0 PUSH2 0x30F0 PUSH1 0x31 DUP4 PUSH2 0x1E57 JUMP JUMPDEST SWAP2 POP PUSH2 0x30FB DUP3 PUSH2 0x3094 JUMP JUMPDEST PUSH1 0x40 DUP3 ADD SWAP1 POP SWAP2 SWAP1 POP JUMP JUMPDEST PUSH1 0x0 PUSH1 0x20 DUP3 ADD SWAP1 POP DUP2 DUP2 SUB PUSH1 0x0 DUP4 ADD MSTORE PUSH2 0x311F DUP2 PUSH2 0x30E3 JUMP JUMPDEST SWAP1 POP SWAP2 SWAP1 POP JUMP JUMPDEST PUSH1 0x0 PUSH2 0x3132 DUP3 DUP6 PUSH2 0x293E JUMP JUMPDEST SWAP2 POP PUSH2 0x313E DUP3 DUP5 PUSH2 0x293E JUMP JUMPDEST SWAP2 POP DUP2 SWAP1 POP SWAP4 SWAP3 POP POP POP JUMP JUMPDEST PUSH32 0x4E487B7100000000000000000000000000000000000000000000000000000000 PUSH1 0x0 MSTORE PUSH1 0x12 PUSH1 0x4 MSTORE PUSH1 0x24 PUSH1 0x0 REVERT JUMPDEST PUSH1 0x0 PUSH2 0x3184 DUP3 PUSH2 0x1F07 JUMP JUMPDEST SWAP2 POP PUSH2 0x318F DUP4 PUSH2 0x1F07 JUMP JUMPDEST SWAP3 POP DUP3 PUSH2 0x319F JUMPI PUSH2 0x319E PUSH2 0x314A JUMP JUMPDEST JUMPDEST DUP3 DUP3 DIV SWAP1 POP SWAP3 SWAP2 POP POP JUMP JUMPDEST PUSH1 0x0 PUSH2 0x31B5 DUP3 PUSH2 0x1F07 JUMP JUMPDEST SWAP2 POP PUSH2 0x31C0 DUP4 PUSH2 0x1F07 JUMP JUMPDEST SWAP3 POP DUP2 PUSH32 0xFFFFFFFFFFFFFFFFFFFFFFFFFFFFFFFFFFFFFFFFFFFFFFFFFFFFFFFFFFFFFFFF DIV DUP4 GT DUP3 ISZERO ISZERO AND ISZERO PUSH2 0x31F9 JUMPI PUSH2 0x31F8 PUSH2 0x2BD2 JUMP JUMPDEST JUMPDEST DUP3 DUP3 MUL SWAP1 POP SWAP3 SWAP2 POP POP JUMP JUMPDEST PUSH32 0x45524337323155524953746F726167653A2055524920736574206F66206E6F6E PUSH1 0x0 DUP3 ADD MSTORE PUSH32 0x6578697374656E7420746F6B656E000000000000000000000000000000000000 PUSH1 0x20 DUP3 ADD MSTORE POP JUMP JUMPDEST PUSH1 0x0 PUSH2 0x3260 PUSH1 0x2E DUP4 PUSH2 0x1E57 JUMP JUMPDEST SWAP2 POP PUSH2 0x326B DUP3 PUSH2 0x3204 JUMP JUMPDEST PUSH1 0x40 DUP3 ADD SWAP1 POP SWAP2 SWAP1 POP JUMP JUMPDEST PUSH1 0x0 PUSH1 0x20 DUP3 ADD SWAP1 POP DUP2 DUP2 SUB PUSH1 0x0 DUP4 ADD MSTORE PUSH2 0x328F DUP2 PUSH2 0x3253 JUMP JUMPDEST SWAP1 POP SWAP2 SWAP1 POP JUMP JUMPDEST PUSH32 0x4552433732313A206F70657261746F7220717565727920666F72206E6F6E6578 PUSH1 0x0 DUP3 ADD MSTORE PUSH32 0x697374656E7420746F6B656E0000000000000000000000000000000000000000 PUSH1 0x20 DUP3 ADD MSTORE POP JUMP JUMPDEST PUSH1 0x0 PUSH2 0x32F2 PUSH1 0x2C DUP4 PUSH2 0x1E57 JUMP JUMPDEST SWAP2 POP PUSH2 0x32FD DUP3 PUSH2 0x3296 JUMP JUMPDEST PUSH1 0x40 DUP3 ADD SWAP1 POP SWAP2 SWAP1 POP JUMP JUMPDEST PUSH1 0x0 PUSH1 0x20 DUP3 ADD SWAP1 POP DUP2 DUP2 SUB PUSH1 0x0 DUP4 ADD MSTORE PUSH2 0x3321 DUP2 PUSH2 0x32E5 JUMP JUMPDEST SWAP1 POP SWAP2 SWAP1 POP JUMP JUMPDEST PUSH32 0x4552433732313A207472616E736665722066726F6D20696E636F727265637420 PUSH1 0x0 DUP3 ADD MSTORE PUSH32 0x6F776E6572000000000000000000000000000000000000000000000000000000 PUSH1 0x20 DUP3 ADD MSTORE POP JUMP JUMPDEST PUSH1 0x0 PUSH2 0x3384 PUSH1 0x25 DUP4 PUSH2 0x1E57 JUMP JUMPDEST SWAP2 POP PUSH2 0x338F DUP3 PUSH2 0x3328 JUMP JUMPDEST PUSH1 0x40 DUP3 ADD SWAP1 POP SWAP2 SWAP1 POP JUMP JUMPDEST PUSH1 0x0 PUSH1 0x20 DUP3 ADD SWAP1 POP DUP2 DUP2 SUB PUSH1 0x0 DUP4 ADD MSTORE PUSH2 0x33B3 DUP2 PUSH2 0x3377 JUMP JUMPDEST SWAP1 POP SWAP2 SWAP1 POP JUMP JUMPDEST PUSH32 0x4552433732313A207472616E7366657220746F20746865207A65726F20616464 PUSH1 0x0 DUP3 ADD MSTORE PUSH32 0x7265737300000000000000000000000000000000000000000000000000000000 PUSH1 0x20 DUP3 ADD MSTORE POP JUMP JUMPDEST PUSH1 0x0 PUSH2 0x3416 PUSH1 0x24 DUP4 PUSH2 0x1E57 JUMP JUMPDEST SWAP2 POP PUSH2 0x3421 DUP3 PUSH2 0x33BA JUMP JUMPDEST PUSH1 0x40 DUP3 ADD SWAP1 POP SWAP2 SWAP1 POP JUMP JUMPDEST PUSH1 0x0 PUSH1 0x20 DUP3 ADD SWAP1 POP DUP2 DUP2 SUB PUSH1 0x0 DUP4 ADD MSTORE PUSH2 0x3445 DUP2 PUSH2 0x3409 JUMP JUMPDEST SWAP1 POP SWAP2 SWAP1 POP JUMP JUMPDEST PUSH1 0x0 PUSH2 0x3457 DUP3 PUSH2 0x1F07 JUMP JUMPDEST SWAP2 POP PUSH2 0x3462 DUP4 PUSH2 0x1F07 JUMP JUMPDEST SWAP3 POP DUP3 DUP3 LT ISZERO PUSH2 0x3475 JUMPI PUSH2 0x3474 PUSH2 0x2BD2 JUMP JUMPDEST JUMPDEST DUP3 DUP3 SUB SWAP1 POP SWAP3 SWAP2 POP POP JUMP JUMPDEST PUSH1 0x0 PUSH2 0x348B DUP3 PUSH2 0x1F07 JUMP JUMPDEST SWAP2 POP PUSH32 0xFFFFFFFFFFFFFFFFFFFFFFFFFFFFFFFFFFFFFFFFFFFFFFFFFFFFFFFFFFFFFFFF DUP3 EQ ISZERO PUSH2 0x34BE JUMPI PUSH2 0x34BD PUSH2 0x2BD2 JUMP JUMPDEST JUMPDEST PUSH1 0x1 DUP3 ADD SWAP1 POP SWAP2 SWAP1 POP JUMP JUMPDEST PUSH1 0x0 PUSH2 0x34D4 DUP3 PUSH2 0x1F07 JUMP JUMPDEST SWAP2 POP PUSH2 0x34DF DUP4 PUSH2 0x1F07 JUMP JUMPDEST SWAP3 POP DUP3 PUSH2 0x34EF JUMPI PUSH2 0x34EE PUSH2 0x314A JUMP JUMPDEST JUMPDEST DUP3 DUP3 MOD SWAP1 POP SWAP3 SWAP2 POP POP JUMP JUMPDEST PUSH32 0x4E487B7100000000000000000000000000000000000000000000000000000000 PUSH1 0x0 MSTORE PUSH1 0x32 PUSH1 0x4 MSTORE PUSH1 0x24 PUSH1 0x0 REVERT JUMPDEST PUSH32 0x4552433732313A20617070726F766520746F2063616C6C657200000000000000 PUSH1 0x0 DUP3 ADD MSTORE POP JUMP JUMPDEST PUSH1 0x0 PUSH2 0x355F PUSH1 0x19 DUP4 PUSH2 0x1E57 JUMP JUMPDEST SWAP2 POP PUSH2 0x356A DUP3 PUSH2 0x3529 JUMP JUMPDEST PUSH1 0x20 DUP3 ADD SWAP1 POP SWAP2 SWAP1 POP JUMP JUMPDEST PUSH1 0x0 PUSH1 0x20 DUP3 ADD SWAP1 POP DUP2 DUP2 SUB PUSH1 0x0 DUP4 ADD MSTORE PUSH2 0x358E DUP2 PUSH2 0x3552 JUMP JUMPDEST SWAP1 POP SWAP2 SWAP1 POP JUMP JUMPDEST PUSH32 0x4552433732313A207472616E7366657220746F206E6F6E204552433732315265 PUSH1 0x0 DUP3 ADD MSTORE PUSH32 0x63656976657220696D706C656D656E7465720000000000000000000000000000 PUSH1 0x20 DUP3 ADD MSTORE POP JUMP JUMPDEST PUSH1 0x0 PUSH2 0x35F1 PUSH1 0x32 DUP4 PUSH2 0x1E57 JUMP JUMPDEST SWAP2 POP PUSH2 0x35FC DUP3 PUSH2 0x3595 JUMP JUMPDEST PUSH1 0x40 DUP3 ADD SWAP1 POP SWAP2 SWAP1 POP JUMP JUMPDEST PUSH1 0x0 PUSH1 0x20 DUP3 ADD SWAP1 POP DUP2 DUP2 SUB PUSH1 0x0 DUP4 ADD MSTORE PUSH2 0x3620 DUP2 PUSH2 0x35E4 JUMP JUMPDEST SWAP1 POP SWAP2 SWAP1 POP JUMP JUMPDEST PUSH32 0x4552433732314D657461646174613A2055524920717565727920666F72206E6F PUSH1 0x0 DUP3 ADD MSTORE PUSH32 0x6E6578697374656E7420746F6B656E0000000000000000000000000000000000 PUSH1 0x20 DUP3 ADD MSTORE POP JUMP JUMPDEST PUSH1 0x0 PUSH2 0x3683 PUSH1 0x2F DUP4 PUSH2 0x1E57 JUMP JUMPDEST SWAP2 POP PUSH2 0x368E DUP3 PUSH2 0x3627 JUMP JUMPDEST PUSH1 0x40 DUP3 ADD SWAP1 POP SWAP2 SWAP1 POP JUMP JUMPDEST PUSH1 0x0 PUSH1 0x20 DUP3 ADD SWAP1 POP DUP2 DUP2 SUB PUSH1 0x0 DUP4 ADD MSTORE PUSH2 0x36B2 DUP2 PUSH2 0x3676 JUMP JUMPDEST SWAP1 POP SWAP2 SWAP1 POP JUMP JUMPDEST PUSH1 0x0 DUP2 MLOAD SWAP1 POP SWAP2 SWAP1 POP JUMP JUMPDEST PUSH1 0x0 DUP3 DUP3 MSTORE PUSH1 0x20 DUP3 ADD SWAP1 POP SWAP3 SWAP2 POP POP JUMP JUMPDEST PUSH1 0x0 PUSH2 0x36E0 DUP3 PUSH2 0x36B9 JUMP JUMPDEST PUSH2 0x36EA DUP2 DUP6 PUSH2 0x36C4 JUMP JUMPDEST SWAP4 POP PUSH2 0x36FA DUP2 DUP6 PUSH1 0x20 DUP7 ADD PUSH2 0x1E68 JUMP JUMPDEST PUSH2 0x3703 DUP2 PUSH2 0x1E9B JUMP JUMPDEST DUP5 ADD SWAP2 POP POP SWAP3 SWAP2 POP POP JUMP JUMPDEST PUSH1 0x0 PUSH1 0x80 DUP3 ADD SWAP1 POP PUSH2 0x3723 PUSH1 0x0 DUP4 ADD DUP8 PUSH2 0x1F9C JUMP JUMPDEST PUSH2 0x3730 PUSH1 0x20 DUP4 ADD DUP7 PUSH2 0x1F9C JUMP JUMPDEST PUSH2 0x373D PUSH1 0x40 DUP4 ADD DUP6 PUSH2 0x20B2 JUMP JUMPDEST DUP2 DUP2 SUB PUSH1 0x60 DUP4 ADD MSTORE PUSH2 0x374F DUP2 DUP5 PUSH2 0x36D5 JUMP JUMPDEST SWAP1 POP SWAP6 SWAP5 POP POP POP POP POP JUMP JUMPDEST PUSH1 0x0 DUP2 MLOAD SWAP1 POP PUSH2 0x3769 DUP2 PUSH2 0x1DBD JUMP JUMPDEST SWAP3 SWAP2 POP POP JUMP JUMPDEST PUSH1 0x0 PUSH1 0x20 DUP3 DUP5 SUB SLT ISZERO PUSH2 0x3785 JUMPI PUSH2 0x3784 PUSH2 0x1D87 JUMP JUMPDEST JUMPDEST PUSH1 0x0 PUSH2 0x3793 DUP5 DUP3 DUP6 ADD PUSH2 0x375A JUMP JUMPDEST SWAP2 POP POP SWAP3 SWAP2 POP POP JUMP JUMPDEST PUSH32 0x4552433732313A206D696E7420746F20746865207A65726F2061646472657373 PUSH1 0x0 DUP3 ADD MSTORE POP JUMP JUMPDEST PUSH1 0x0 PUSH2 0x37D2 PUSH1 0x20 DUP4 PUSH2 0x1E57 JUMP JUMPDEST SWAP2 POP PUSH2 0x37DD DUP3 PUSH2 0x379C JUMP JUMPDEST PUSH1 0x20 DUP3 ADD SWAP1 POP SWAP2 SWAP1 POP JUMP JUMPDEST PUSH1 0x0 PUSH1 0x20 DUP3 ADD SWAP1 POP DUP2 DUP2 SUB PUSH1 0x0 DUP4 ADD MSTORE PUSH2 0x3801 DUP2 PUSH2 0x37C5 JUMP JUMPDEST SWAP1 POP SWAP2 SWAP1 POP JUMP JUMPDEST PUSH32 0x4552433732313A20746F6B656E20616C7265616479206D696E74656400000000 PUSH1 0x0 DUP3 ADD MSTORE POP JUMP JUMPDEST PUSH1 0x0 PUSH2 0x383E PUSH1 0x1C DUP4 PUSH2 0x1E57 JUMP JUMPDEST SWAP2 POP PUSH2 0x3849 DUP3 PUSH2 0x3808 JUMP JUMPDEST PUSH1 0x20 DUP3 ADD SWAP1 POP SWAP2 SWAP1 POP JUMP JUMPDEST PUSH1 0x0 PUSH1 0x20 DUP3 ADD SWAP1 POP DUP2 DUP2 SUB PUSH1 0x0 DUP4 ADD MSTORE PUSH2 0x386D DUP2 PUSH2 0x3831 JUMP JUMPDEST SWAP1 POP SWAP2 SWAP1 POP JUMP INVALID COINBASE TIMESTAMP NUMBER DIFFICULTY GASLIMIT CHAINID SELFBALANCE BASEFEE 0x49 0x4A 0x4B 0x4C 0x4D 0x4E 0x4F POP MLOAD MSTORE MSTORE8 SLOAD SSTORE JUMP JUMPI PC MSIZE GAS PUSH2 0x6263 PUSH5 0x6566676869 PUSH11 0x6B6C6D6E6F707172737475 PUSH23 0x7778797A303132333435363738392B2FA2646970667358 0x22 SLT KECCAK256 0xC9 0xFC SWAP11 0xAE 0xF6 MSIZE 0x26 PUSH3 0xD7DE0D 0xAD 0xDE 0xDB PUSH22 0x1C138827BE7DA82518C7C7EE7BF91A80AD64736F6C63 NUMBER STOP ADDMOD EXP STOP CALLER "
        },
        "methodIdentifiers": {
          "approve(address,uint256)": "095ea7b3",
          "balanceOf(address)": "70a08231",
          "generateCharacter(uint256)": "0daefed5",
          "getApproved(uint256)": "081812fc",
          "getLevels(uint256)": "f43785f9",
          "getTokenURI(uint256)": "3bb3a24d",
          "isApprovedForAll(address,address)": "e985e9c5",
          "mint()": "1249c58b",
          "name()": "06fdde03",
          "ownerOf(uint256)": "6352211e",
          "safeTransferFrom(address,address,uint256)": "42842e0e",
          "safeTransferFrom(address,address,uint256,bytes)": "b88d4fde",
          "setApprovalForAll(address,bool)": "a22cb465",
          "supportsInterface(bytes4)": "01ffc9a7",
          "symbol()": "95d89b41",
          "tokenIdToLevels(uint256)": "c6a4342f",
          "tokenURI(uint256)": "c87b56dd",
          "train(uint256)": "368004ed",
          "transferFrom(address,address,uint256)": "23b872dd"
        }
      }
    }
  }
}