{
  "_format": "hh-sol-artifact-1",
  "contractName": "ChainBattles",
  "sourceName": "contracts/ChainBattles.sol",
  "abi": [
    {
      "inputs": [],
      "stateMutability": "nonpayable",
      "type": "constructor"
    },
    {
      "anonymous": false,
      "inputs": [
        {
          "indexed": true,
          "internalType": "address",
          "name": "owner",
          "type": "address"
        },
        {
          "indexed": true,
          "internalType": "address",
          "name": "approved",
          "type": "address"
        },
        {
          "indexed": true,
          "internalType": "uint256",
          "name": "tokenId",
          "type": "uint256"
        }
      ],
      "name": "Approval",
      "type": "event"
    },
    {
      "anonymous": false,
      "inputs": [
        {
          "indexed": true,
          "internalType": "address",
          "name": "owner",
          "type": "address"
        },
        {
          "indexed": true,
          "internalType": "address",
          "name": "operator",
          "type": "address"
        },
        {
          "indexed": false,
          "internalType": "bool",
          "name": "approved",
          "type": "bool"
        }
      ],
      "name": "ApprovalForAll",
      "type": "event"
    },
    {
      "anonymous": false,
      "inputs": [
        {
          "indexed": true,
          "internalType": "address",
          "name": "from",
          "type": "address"
        },
        {
          "indexed": true,
          "internalType": "address",
          "name": "to",
          "type": "address"
        },
        {
          "indexed": true,
          "internalType": "uint256",
          "name": "tokenId",
          "type": "uint256"
        }
      ],
      "name": "Transfer",
      "type": "event"
    },
    {
      "inputs": [
        {
          "internalType": "address",
          "name": "to",
          "type": "address"
        },
        {
          "internalType": "uint256",
          "name": "tokenId",
          "type": "uint256"
        }
      ],
      "name": "approve",
      "outputs": [],
      "stateMutability": "nonpayable",
      "type": "function"
    },
    {
      "inputs": [
        {
          "internalType": "address",
          "name": "owner",
          "type": "address"
        }
      ],
      "name": "balanceOf",
      "outputs": [
        {
          "internalType": "uint256",
          "name": "",
          "type": "uint256"
        }
      ],
      "stateMutability": "view",
      "type": "function"
    },
    {
      "inputs": [
        {
          "internalType": "uint256",
          "name": "tokenId",
          "type": "uint256"
        }
      ],
      "name": "generateCharacter",
      "outputs": [
        {
          "internalType": "string",
          "name": "",
          "type": "string"
        }
      ],
      "stateMutability": "nonpayable",
      "type": "function"
    },
    {
      "inputs": [
        {
          "internalType": "uint256",
          "name": "tokenId",
          "type": "uint256"
        }
      ],
      "name": "getApproved",
      "outputs": [
        {
          "internalType": "address",
          "name": "",
          "type": "address"
        }
      ],
      "stateMutability": "view",
      "type": "function"
    },
    {
      "inputs": [
        {
          "internalType": "uint256",
          "name": "tokenId",
          "type": "uint256"
        }
      ],
      "name": "getLevels",
      "outputs": [
        {
          "internalType": "string",
          "name": "",
          "type": "string"
        }
      ],
      "stateMutability": "view",
      "type": "function"
    },
    {
      "inputs": [
        {
          "internalType": "uint256",
          "name": "tokenId",
          "type": "uint256"
        }
      ],
      "name": "getTokenURI",
      "outputs": [
        {
          "internalType": "string",
          "name": "",
          "type": "string"
        }
      ],
      "stateMutability": "nonpayable",
      "type": "function"
    },
    {
      "inputs": [
        {
          "internalType": "address",
          "name": "owner",
          "type": "address"
        },
        {
          "internalType": "address",
          "name": "operator",
          "type": "address"
        }
      ],
      "name": "isApprovedForAll",
      "outputs": [
        {
          "internalType": "bool",
          "name": "",
          "type": "bool"
        }
      ],
      "stateMutability": "view",
      "type": "function"
    },
    {
      "inputs": [],
      "name": "mint",
      "outputs": [],
      "stateMutability": "nonpayable",
      "type": "function"
    },
    {
      "inputs": [],
      "name": "name",
      "outputs": [
        {
          "internalType": "string",
          "name": "",
          "type": "string"
        }
      ],
      "stateMutability": "view",
      "type": "function"
    },
    {
      "inputs": [
        {
          "internalType": "uint256",
          "name": "tokenId",
          "type": "uint256"
        }
      ],
      "name": "ownerOf",
      "outputs": [
        {
          "internalType": "address",
          "name": "",
          "type": "address"
        }
      ],
      "stateMutability": "view",
      "type": "function"
    },
    {
      "inputs": [
        {
          "internalType": "address",
          "name": "from",
          "type": "address"
        },
        {
          "internalType": "address",
          "name": "to",
          "type": "address"
        },
        {
          "internalType": "uint256",
          "name": "tokenId",
          "type": "uint256"
        }
      ],
      "name": "safeTransferFrom",
      "outputs": [],
      "stateMutability": "nonpayable",
      "type": "function"
    },
    {
      "inputs": [
        {
          "internalType": "address",
          "name": "from",
          "type": "address"
        },
        {
          "internalType": "address",
          "name": "to",
          "type": "address"
        },
        {
          "internalType": "uint256",
          "name": "tokenId",
          "type": "uint256"
        },
        {
          "internalType": "bytes",
          "name": "_data",
          "type": "bytes"
        }
      ],
      "name": "safeTransferFrom",
      "outputs": [],
      "stateMutability": "nonpayable",
      "type": "function"
    },
    {
      "inputs": [
        {
          "internalType": "address",
          "name": "operator",
          "type": "address"
        },
        {
          "internalType": "bool",
          "name": "approved",
          "type": "bool"
        }
      ],
      "name": "setApprovalForAll",
      "outputs": [],
      "stateMutability": "nonpayable",
      "type": "function"
    },
    {
      "inputs": [
        {
          "internalType": "bytes4",
          "name": "interfaceId",
          "type": "bytes4"
        }
      ],
      "name": "supportsInterface",
      "outputs": [
        {
          "internalType": "bool",
          "name": "",
          "type": "bool"
        }
      ],
      "stateMutability": "view",
      "type": "function"
    },
    {
      "inputs": [],
      "name": "symbol",
      "outputs": [
        {
          "internalType": "string",
          "name": "",
          "type": "string"
        }
      ],
      "stateMutability": "view",
      "type": "function"
    },
    {
      "inputs": [
        {
          "internalType": "uint256",
          "name": "",
          "type": "uint256"
        }
      ],
      "name": "tokenIdToLevels",
      "outputs": [
        {
          "internalType": "uint256",
          "name": "",
          "type": "uint256"
        }
      ],
      "stateMutability": "view",
      "type": "function"
    },
    {
      "inputs": [
        {
          "internalType": "uint256",
          "name": "tokenId",
          "type": "uint256"
        }
      ],
      "name": "tokenURI",
      "outputs": [
        {
          "internalType": "string",
          "name": "",
          "type": "string"
        }
      ],
      "stateMutability": "view",
      "type": "function"
    },
    {
      "inputs": [
        {
          "internalType": "uint256",
          "name": "tokenId",
          "type": "uint256"
        }
      ],
      "name": "train",
      "outputs": [],
      "stateMutability": "nonpayable",
      "type": "function"
    },
    {
      "inputs": [
        {
          "internalType": "address",
          "name": "from",
          "type": "address"
        },
        {
          "internalType": "address",
          "name": "to",
          "type": "address"
        },
        {
          "internalType": "uint256",
          "name": "tokenId",
          "type": "uint256"
        }
      ],
      "name": "transferFrom",
      "outputs": [],
      "stateMutability": "nonpayable",
      "type": "function"
    }
  ],
  "bytecode": "0x60806040523480156200001157600080fd5b506040518060400160405280600d81526020017f436861696e20426174746c6573000000000000000000000000000000000000008152506040518060400160405280600581526020017f4342544c53000000000000000000000000000000000000000000000000000000815250816000908051906020019062000096929190620000b8565b508060019080519060200190620000af929190620000b8565b505050620001cd565b828054620000c69062000197565b90600052602060002090601f016020900481019282620000ea576000855562000136565b82601f106200010557805160ff191683800117855562000136565b8280016001018555821562000136579182015b828111156200013557825182559160200191906001019062000118565b5b50905062000145919062000149565b5090565b5b80821115620001645760008160009055506001016200014a565b5090565b7f4e487b7100000000000000000000000000000000000000000000000000000000600052602260045260246000fd5b60006002820490506001821680620001b057607f821691505b60208210811415620001c757620001c662000168565b5b50919050565b6138ea80620001dd6000396000f3fe608060405234801561001057600080fd5b50600436106101215760003560e01c806342842e0e116100ad578063b88d4fde11610071578063b88d4fde14610318578063c6a4342f14610334578063c87b56dd14610364578063e985e9c514610394578063f43785f9146103c457610121565b806342842e0e146102625780636352211e1461027e57806370a08231146102ae57806395d89b41146102de578063a22cb465146102fc57610121565b80630daefed5116100f45780630daefed5146101c05780631249c58b146101f057806323b872dd146101fa578063368004ed146102165780633bb3a24d1461023257610121565b806301ffc9a71461012657806306fdde0314610156578063081812fc14610174578063095ea7b3146101a4575b600080fd5b610140600480360381019061013b9190611de9565b6103f4565b60405161014d9190611e31565b60405180910390f35b61015e6104d6565b60405161016b9190611ee5565b60405180910390f35b61018e60048036038101906101899190611f3d565b610568565b60405161019b9190611fab565b60405180910390f35b6101be60048036038101906101b99190611ff2565b6105ed565b005b6101da60048036038101906101d59190611f3d565b610705565b6040516101e79190611ee5565b60405180910390f35b6101f8610763565b005b610214600480360381019061020f9190612032565b6107b3565b005b610230600480360381019061022b9190611f3d565b610813565b005b61024c60048036038101906102479190611f3d565b6108ed565b6040516102599190611ee5565b60405180910390f35b61027c60048036038101906102779190612032565b610955565b005b61029860048036038101906102939190611f3d565b610975565b6040516102a59190611fab565b60405180910390f35b6102c860048036038101906102c39190612085565b610a27565b6040516102d591906120c1565b60405180910390f35b6102e6610adf565b6040516102f39190611ee5565b60405180910390f35b61031660048036038101906103119190612108565b610b71565b005b610332600480360381019061032d919061227d565b610b87565b005b61034e60048036038101906103499190611f3d565b610be9565b60405161035b91906120c1565b60405180910390f35b61037e60048036038101906103799190611f3d565b610c01565b60405161038b9190611ee5565b60405180910390f35b6103ae60048036038101906103a99190612300565b610d53565b6040516103bb9190611e31565b60405180910390f35b6103de60048036038101906103d99190611f3d565b610de7565b6040516103eb9190611ee5565b60405180910390f35b60007f80ac58cd000000000000000000000000000000000000000000000000000000007bffffffffffffffffffffffffffffffffffffffffffffffffffffffff1916827bffffffffffffffffffffffffffffffffffffffffffffffffffffffff191614806104bf57507f5b5e139f000000000000000000000000000000000000000000000000000000007bffffffffffffffffffffffffffffffffffffffffffffffffffffffff1916827bffffffffffffffffffffffffffffffffffffffffffffffffffffffff1916145b806104cf57506104ce82610e12565b5b9050919050565b6060600080546104e59061236f565b80601f01602080910402602001604051908101604052809291908181526020018280546105119061236f565b801561055e5780601f106105335761010080835404028352916020019161055e565b820191906000526020600020905b81548152906001019060200180831161054157829003601f168201915b5050505050905090565b600061057382610e7c565b6105b2576040517f08c379a00000000000000000000000000000000000000000000000000000000081526004016105a990612413565b60405180910390fd5b6004600083815260200190815260200160002060009054906101000a900473ffffffffffffffffffffffffffffffffffffffff169050919050565b60006105f882610975565b90508073ffffffffffffffffffffffffffffffffffffffff168373ffffffffffffffffffffffffffffffffffffffff161415610669576040517f08c379a0000000000000000000000000000000000000000000000000000000008152600401610660906124a5565b60405180910390fd5b8073ffffffffffffffffffffffffffffffffffffffff16610688610ee8565b73ffffffffffffffffffffffffffffffffffffffff1614806106b757506106b6816106b1610ee8565b610d53565b5b6106f6576040517f08c379a00000000000000000000000000000000000000000000000000000000081526004016106ed90612537565b60405180910390fd5b6107008383610ef0565b505050565b6060600061071283610de7565b60405160200161072291906129bb565b604051602081830303815290604052905061073c81610fa9565b60405160200161074c9190612a8c565b604051602081830303815290604052915050919050565b61076d600761110d565b60006107796007611123565b90506107853382611131565b600060086000838152602001908152602001600020819055506107b0816107ab836108ed565b61114f565b50565b6107c46107be610ee8565b826111c3565b610803576040517f08c379a00000000000000000000000000000000000000000000000000000000081526004016107fa90612b20565b60405180910390fd5b61080e8383836112a1565b505050565b61081c81610e7c565b61082557600080fd5b3373ffffffffffffffffffffffffffffffffffffffff1661084582610975565b73ffffffffffffffffffffffffffffffffffffffff161461089b576040517f08c379a000000000000000000000000000000000000000000000000000000000815260040161089290612bb2565b60405180910390fd5b6000600860008381526020019081526020016000205490506001816108c09190612c01565b60086000848152602001908152602001600020819055506108e9826108e4846108ed565b61114f565b5050565b606060006108fa83611508565b61090384610705565b604051602001610914929190612e91565b604051602081830303815290604052905061092e81610fa9565b60405160200161093e9190612f4e565b604051602081830303815290604052915050919050565b61097083838360405180602001604052806000815250610b87565b505050565b6000806002600084815260200190815260200160002060009054906101000a900473ffffffffffffffffffffffffffffffffffffffff169050600073ffffffffffffffffffffffffffffffffffffffff168173ffffffffffffffffffffffffffffffffffffffff161415610a1e576040517f08c379a0000000000000000000000000000000000000000000000000000000008152600401610a1590612fe2565b60405180910390fd5b80915050919050565b60008073ffffffffffffffffffffffffffffffffffffffff168273ffffffffffffffffffffffffffffffffffffffff161415610a98576040517f08c379a0000000000000000000000000000000000000000000000000000000008152600401610a8f90613074565b60405180910390fd5b600360008373ffffffffffffffffffffffffffffffffffffffff1673ffffffffffffffffffffffffffffffffffffffff168152602001908152602001600020549050919050565b606060018054610aee9061236f565b80601f0160208091040260200160405190810160405280929190818152602001828054610b1a9061236f565b8015610b675780601f10610b3c57610100808354040283529160200191610b67565b820191906000526020600020905b815481529060010190602001808311610b4a57829003601f168201915b5050505050905090565b610b83610b7c610ee8565b8383611669565b5050565b610b98610b92610ee8565b836111c3565b610bd7576040517f08c379a0000000000000000000000000000000000000000000000000000000008152600401610bce90612b20565b60405180910390fd5b610be3848484846117d6565b50505050565b60086020528060005260406000206000915090505481565b6060610c0c82610e7c565b610c4b576040517f08c379a0000000000000000000000000000000000000000000000000000000008152600401610c4290613106565b60405180910390fd5b6000600660008481526020019081526020016000208054610c6b9061236f565b80601f0160208091040260200160405190810160405280929190818152602001828054610c979061236f565b8015610ce45780601f10610cb957610100808354040283529160200191610ce4565b820191906000526020600020905b815481529060010190602001808311610cc757829003601f168201915b505050505090506000610cf5611832565b9050600081511415610d0b578192505050610d4e565b600082511115610d40578082604051602001610d28929190613126565b60405160208183030381529060405292505050610d4e565b610d4984611849565b925050505b919050565b6000600560008473ffffffffffffffffffffffffffffffffffffffff1673ffffffffffffffffffffffffffffffffffffffff16815260200190815260200160002060008373ffffffffffffffffffffffffffffffffffffffff1673ffffffffffffffffffffffffffffffffffffffff16815260200190815260200160002060009054906101000a900460ff16905092915050565b6060600060086000848152602001908152602001600020549050610e0a81611508565b915050919050565b60007f01ffc9a7000000000000000000000000000000000000000000000000000000007bffffffffffffffffffffffffffffffffffffffffffffffffffffffff1916827bffffffffffffffffffffffffffffffffffffffffffffffffffffffff1916149050919050565b60008073ffffffffffffffffffffffffffffffffffffffff166002600084815260200190815260200160002060009054906101000a900473ffffffffffffffffffffffffffffffffffffffff1673ffffffffffffffffffffffffffffffffffffffff1614159050919050565b600033905090565b816004600083815260200190815260200160002060006101000a81548173ffffffffffffffffffffffffffffffffffffffff021916908373ffffffffffffffffffffffffffffffffffffffff160217905550808273ffffffffffffffffffffffffffffffffffffffff16610f6383610975565b73ffffffffffffffffffffffffffffffffffffffff167f8c5be1e5ebec7d5bd14f71427d1e84f3dd0314c0f7b2291e5b200ac8c7c3b92560405160405180910390a45050565b6060600082511415610fcc57604051806020016040528060008152509050611108565b60006040518060600160405280604081526020016138756040913990506000600360028551610ffb9190612c01565b6110059190613179565b600461101191906131aa565b67ffffffffffffffff81111561102a57611029612152565b5b6040519080825280601f01601f19166020018201604052801561105c5781602001600182028036833780820191505090505b509050600182016020820185865187015b808210156110c8576003820191508151603f8160121c168501518453600184019350603f81600c1c168501518453600184019350603f8160061c168501518453600184019350603f811685015184536001840193505061106d565b50506003865106600181146110e457600281146110f7576110ff565b603d6001830353603d60028303536110ff565b603d60018303535b50505080925050505b919050565b6001816000016000828254019250508190555050565b600081600001549050919050565b61114b8282604051806020016040528060008152506118f0565b5050565b61115882610e7c565b611197576040517f08c379a000000000000000000000000000000000000000000000000000000000815260040161118e90613276565b60405180910390fd5b806006600084815260200190815260200160002090805190602001906111be929190611cda565b505050565b60006111ce82610e7c565b61120d576040517f08c379a000000000000000000000000000000000000000000000000000000000815260040161120490613308565b60405180910390fd5b600061121883610975565b90508073ffffffffffffffffffffffffffffffffffffffff168473ffffffffffffffffffffffffffffffffffffffff16148061125a57506112598185610d53565b5b8061129857508373ffffffffffffffffffffffffffffffffffffffff1661128084610568565b73ffffffffffffffffffffffffffffffffffffffff16145b91505092915050565b8273ffffffffffffffffffffffffffffffffffffffff166112c182610975565b73ffffffffffffffffffffffffffffffffffffffff1614611317576040517f08c379a000000000000000000000000000000000000000000000000000000000815260040161130e9061339a565b60405180910390fd5b600073ffffffffffffffffffffffffffffffffffffffff168273ffffffffffffffffffffffffffffffffffffffff161415611387576040517f08c379a000000000000000000000000000000000000000000000000000000000815260040161137e9061342c565b60405180910390fd5b61139283838361194b565b61139d600082610ef0565b6001600360008573ffffffffffffffffffffffffffffffffffffffff1673ffffffffffffffffffffffffffffffffffffffff16815260200190815260200160002060008282546113ed919061344c565b925050819055506001600360008473ffffffffffffffffffffffffffffffffffffffff1673ffffffffffffffffffffffffffffffffffffffff16815260200190815260200160002060008282546114449190612c01565b92505081905550816002600083815260200190815260200160002060006101000a81548173ffffffffffffffffffffffffffffffffffffffff021916908373ffffffffffffffffffffffffffffffffffffffff160217905550808273ffffffffffffffffffffffffffffffffffffffff168473ffffffffffffffffffffffffffffffffffffffff167fddf252ad1be2c89b69c2b068fc378daa952ba7f163c4a11628f55a4df523b3ef60405160405180910390a4611503838383611950565b505050565b60606000821415611550576040518060400160405280600181526020017f30000000000000000000000000000000000000000000000000000000000000008152509050611664565b600082905060005b6000821461158257808061156b90613480565b915050600a8261157b9190613179565b9150611558565b60008167ffffffffffffffff81111561159e5761159d612152565b5b6040519080825280601f01601f1916602001820160405280156115d05781602001600182028036833780820191505090505b5090505b6000851461165d576001826115e9919061344c565b9150600a856115f891906134c9565b60306116049190612c01565b60f81b81838151811061161a576116196134fa565b5b60200101907effffffffffffffffffffffffffffffffffffffffffffffffffffffffffffff1916908160001a905350600a856116569190613179565b94506115d4565b8093505050505b919050565b8173ffffffffffffffffffffffffffffffffffffffff168373ffffffffffffffffffffffffffffffffffffffff1614156116d8576040517f08c379a00000000000000000000000000000000000000000000000000000000081526004016116cf90613575565b60405180910390fd5b80600560008573ffffffffffffffffffffffffffffffffffffffff1673ffffffffffffffffffffffffffffffffffffffff16815260200190815260200160002060008473ffffffffffffffffffffffffffffffffffffffff1673ffffffffffffffffffffffffffffffffffffffff16815260200190815260200160002060006101000a81548160ff0219169083151502179055508173ffffffffffffffffffffffffffffffffffffffff168373ffffffffffffffffffffffffffffffffffffffff167f17307eab39ab6107e8899845ad3d59bd9653f200f220920489ca2b5937696c31836040516117c99190611e31565b60405180910390a3505050565b6117e18484846112a1565b6117ed84848484611955565b61182c576040517f08c379a000000000000000000000000000000000000000000000000000000000815260040161182390613607565b60405180910390fd5b50505050565b606060405180602001604052806000815250905090565b606061185482610e7c565b611893576040517f08c379a000000000000000000000000000000000000000000000000000000000815260040161188a90613699565b60405180910390fd5b600061189d611832565b905060008151116118bd57604051806020016040528060008152506118e8565b806118c784611508565b6040516020016118d8929190613126565b6040516020818303038152906040525b915050919050565b6118fa8383611add565b6119076000848484611955565b611946576040517f08c379a000000000000000000000000000000000000000000000000000000000815260040161193d90613607565b60405180910390fd5b505050565b505050565b505050565b60006119768473ffffffffffffffffffffffffffffffffffffffff16611cb7565b15611ad0578373ffffffffffffffffffffffffffffffffffffffff1663150b7a0261199f610ee8565b8786866040518563ffffffff1660e01b81526004016119c1949392919061370e565b6020604051808303816000875af19250505080156119fd57506040513d601f19601f820116820180604052508101906119fa919061376f565b60015b611a80573d8060008114611a2d576040519150601f19603f3d011682016040523d82523d6000602084013e611a32565b606091505b50600081511415611a78576040517f08c379a0000000000000000000000000000000000000000000000000000000008152600401611a6f90613607565b60405180910390fd5b805181602001fd5b63150b7a0260e01b7bffffffffffffffffffffffffffffffffffffffffffffffffffffffff1916817bffffffffffffffffffffffffffffffffffffffffffffffffffffffff191614915050611ad5565b600190505b949350505050565b600073ffffffffffffffffffffffffffffffffffffffff168273ffffffffffffffffffffffffffffffffffffffff161415611b4d576040517f08c379a0000000000000000000000000000000000000000000000000000000008152600401611b44906137e8565b60405180910390fd5b611b5681610e7c565b15611b96576040517f08c379a0000000000000000000000000000000000000000000000000000000008152600401611b8d90613854565b60405180910390fd5b611ba26000838361194b565b6001600360008473ffffffffffffffffffffffffffffffffffffffff1673ffffffffffffffffffffffffffffffffffffffff1681526020019081526020016000206000828254611bf29190612c01565b92505081905550816002600083815260200190815260200160002060006101000a81548173ffffffffffffffffffffffffffffffffffffffff021916908373ffffffffffffffffffffffffffffffffffffffff160217905550808273ffffffffffffffffffffffffffffffffffffffff16600073ffffffffffffffffffffffffffffffffffffffff167fddf252ad1be2c89b69c2b068fc378daa952ba7f163c4a11628f55a4df523b3ef60405160405180910390a4611cb360008383611950565b5050565b6000808273ffffffffffffffffffffffffffffffffffffffff163b119050919050565b828054611ce69061236f565b90600052602060002090601f016020900481019282611d085760008555611d4f565b82601f10611d2157805160ff1916838001178555611d4f565b82800160010185558215611d4f579182015b82811115611d4e578251825591602001919060010190611d33565b5b509050611d5c9190611d60565b5090565b5b80821115611d79576000816000905550600101611d61565b5090565b6000604051905090565b600080fd5b600080fd5b60007fffffffff0000000000000000000000000000000000000000000000000000000082169050919050565b611dc681611d91565b8114611dd157600080fd5b50565b600081359050611de381611dbd565b92915050565b600060208284031215611dff57611dfe611d87565b5b6000611e0d84828501611dd4565b91505092915050565b60008115159050919050565b611e2b81611e16565b82525050565b6000602082019050611e466000830184611e22565b92915050565b600081519050919050565b600082825260208201905092915050565b60005b83811015611e86578082015181840152602081019050611e6b565b83811115611e95576000848401525b50505050565b6000601f19601f8301169050919050565b6000611eb782611e4c565b611ec18185611e57565b9350611ed1818560208601611e68565b611eda81611e9b565b840191505092915050565b60006020820190508181036000830152611eff8184611eac565b905092915050565b6000819050919050565b611f1a81611f07565b8114611f2557600080fd5b50565b600081359050611f3781611f11565b92915050565b600060208284031215611f5357611f52611d87565b5b6000611f6184828501611f28565b91505092915050565b600073ffffffffffffffffffffffffffffffffffffffff82169050919050565b6000611f9582611f6a565b9050919050565b611fa581611f8a565b82525050565b6000602082019050611fc06000830184611f9c565b92915050565b611fcf81611f8a565b8114611fda57600080fd5b50565b600081359050611fec81611fc6565b92915050565b6000806040838503121561200957612008611d87565b5b600061201785828601611fdd565b925050602061202885828601611f28565b9150509250929050565b60008060006060848603121561204b5761204a611d87565b5b600061205986828701611fdd565b935050602061206a86828701611fdd565b925050604061207b86828701611f28565b9150509250925092565b60006020828403121561209b5761209a611d87565b5b60006120a984828501611fdd565b91505092915050565b6120bb81611f07565b82525050565b60006020820190506120d660008301846120b2565b92915050565b6120e581611e16565b81146120f057600080fd5b50565b600081359050612102816120dc565b92915050565b6000806040838503121561211f5761211e611d87565b5b600061212d85828601611fdd565b925050602061213e858286016120f3565b9150509250929050565b600080fd5b600080fd5b7f4e487b7100000000000000000000000000000000000000000000000000000000600052604160045260246000fd5b61218a82611e9b565b810181811067ffffffffffffffff821117156121a9576121a8612152565b5b80604052505050565b60006121bc611d7d565b90506121c88282612181565b919050565b600067ffffffffffffffff8211156121e8576121e7612152565b5b6121f182611e9b565b9050602081019050919050565b82818337600083830152505050565b600061222061221b846121cd565b6121b2565b90508281526020810184848401111561223c5761223b61214d565b5b6122478482856121fe565b509392505050565b600082601f83011261226457612263612148565b5b813561227484826020860161220d565b91505092915050565b6000806000806080858703121561229757612296611d87565b5b60006122a587828801611fdd565b94505060206122b687828801611fdd565b93505060406122c787828801611f28565b925050606085013567ffffffffffffffff8111156122e8576122e7611d8c565b5b6122f48782880161224f565b91505092959194509250565b6000806040838503121561231757612316611d87565b5b600061232585828601611fdd565b925050602061233685828601611fdd565b9150509250929050565b7f4e487b7100000000000000000000000000000000000000000000000000000000600052602260045260246000fd5b6000600282049050600182168061238757607f821691505b6020821081141561239b5761239a612340565b5b50919050565b7f4552433732313a20617070726f76656420717565727920666f72206e6f6e657860008201527f697374656e7420746f6b656e0000000000000000000000000000000000000000602082015250565b60006123fd602c83611e57565b9150612408826123a1565b604082019050919050565b6000602082019050818103600083015261242c816123f0565b9050919050565b7f4552433732313a20617070726f76616c20746f2063757272656e74206f776e6560008201527f7200000000000000000000000000000000000000000000000000000000000000602082015250565b600061248f602183611e57565b915061249a82612433565b604082019050919050565b600060208201905081810360008301526124be81612482565b9050919050565b7f4552433732313a20617070726f76652063616c6c6572206973206e6f74206f7760008201527f6e6572206e6f7220617070726f76656420666f7220616c6c0000000000000000602082015250565b6000612521603883611e57565b915061252c826124c5565b604082019050919050565b6000602082019050818103600083015261255081612514565b9050919050565b600081905092915050565b7f3c73766720786d6c6e733d22687474703a2f2f7777772e77332e6f72672f323060008201527f30302f73766722207072657365727665417370656374526174696f3d22784d6960208201527f6e594d696e206d656574222076696577426f783d22302030203335302033353060408201527f223e000000000000000000000000000000000000000000000000000000000000606082015250565b600061260a606283612557565b915061261582612562565b606282019050919050565b7f3c7374796c653e2e62617365207b2066696c6c3a2077686974653b20666f6e7460008201527f2d66616d696c793a2073657269663b20666f6e742d73697a653a20313470783b60208201527f207d3c2f7374796c653e00000000000000000000000000000000000000000000604082015250565b60006126a2604a83612557565b91506126ad82612620565b604a82019050919050565b7f3c726563742077696474683d223130302522206865696768743d22313030252260008201527f2066696c6c3d22626c61636b22202f3e00000000000000000000000000000000602082015250565b6000612714603083612557565b915061271f826126b8565b603082019050919050565b7f3c7465787420783d223530252220793d223430252220636c6173733d2262617360008201527f652220646f6d696e616e742d626173656c696e653d226d6964646c652220746560208201527f78742d616e63686f723d226d6964646c65223e00000000000000000000000000604082015250565b60006127ac605383612557565b91506127b78261272a565b605382019050919050565b7f57617272696f7200000000000000000000000000000000000000000000000000600082015250565b60006127f8600783612557565b9150612803826127c2565b600782019050919050565b7f3c2f746578743e00000000000000000000000000000000000000000000000000600082015250565b6000612844600783612557565b915061284f8261280e565b600782019050919050565b7f3c7465787420783d223530252220793d223530252220636c6173733d2262617360008201527f652220646f6d696e616e742d626173656c696e653d226d6964646c652220746560208201527f78742d616e63686f723d226d6964646c65223e00000000000000000000000000604082015250565b60006128dc605383612557565b91506128e78261285a565b605382019050919050565b7f4c6576656c733a20000000000000000000000000000000000000000000000000600082015250565b6000612928600883612557565b9150612933826128f2565b600882019050919050565b600061294982611e4c565b6129538185612557565b9350612963818560208601611e68565b80840191505092915050565b7f3c2f7376673e0000000000000000000000000000000000000000000000000000600082015250565b60006129a5600683612557565b91506129b08261296f565b600682019050919050565b60006129c6826125fd565b91506129d182612695565b91506129dc82612707565b91506129e78261279f565b91506129f2826127eb565b91506129fd82612837565b9150612a08826128cf565b9150612a138261291b565b9150612a1f828461293e565b9150612a2a82612837565b9150612a3582612998565b915081905092915050565b7f646174613a696d6167652f7376672b786d6c3b6261736536342c000000000000600082015250565b6000612a76601a83612557565b9150612a8182612a40565b601a82019050919050565b6000612a9782612a69565b9150612aa3828461293e565b915081905092915050565b7f4552433732313a207472616e736665722063616c6c6572206973206e6f74206f60008201527f776e6572206e6f7220617070726f766564000000000000000000000000000000602082015250565b6000612b0a603183611e57565b9150612b1582612aae565b604082019050919050565b60006020820190508181036000830152612b3981612afd565b9050919050565b7f596f75206d757374206f776e2074686973204e465420746f20747261696e206960008201527f7421000000000000000000000000000000000000000000000000000000000000602082015250565b6000612b9c602283611e57565b9150612ba782612b40565b604082019050919050565b60006020820190508181036000830152612bcb81612b8f565b9050919050565b7f4e487b7100000000000000000000000000000000000000000000000000000000600052601160045260246000fd5b6000612c0c82611f07565b9150612c1783611f07565b9250827fffffffffffffffffffffffffffffffffffffffffffffffffffffffffffffffff03821115612c4c57612c4b612bd2565b5b828201905092915050565b7f7b00000000000000000000000000000000000000000000000000000000000000600082015250565b6000612c8d600183612557565b9150612c9882612c57565b600182019050919050565b7f226e616d65223a2022436861696e20426174746c657320230000000000000000600082015250565b6000612cd9601883612557565b9150612ce482612ca3565b601882019050919050565b7f222c000000000000000000000000000000000000000000000000000000000000600082015250565b6000612d25600283612557565b9150612d3082612cef565b600282019050919050565b7f226465736372697074696f6e223a2022426174746c6573206f6e20636861696e60008201527f222c000000000000000000000000000000000000000000000000000000000000602082015250565b6000612d97602283612557565b9150612da282612d3b565b602282019050919050565b7f22696d616765223a202200000000000000000000000000000000000000000000600082015250565b6000612de3600a83612557565b9150612dee82612dad565b600a82019050919050565b7f2200000000000000000000000000000000000000000000000000000000000000600082015250565b6000612e2f600183612557565b9150612e3a82612df9565b600182019050919050565b7f7d00000000000000000000000000000000000000000000000000000000000000600082015250565b6000612e7b600183612557565b9150612e8682612e45565b600182019050919050565b6000612e9c82612c80565b9150612ea782612ccc565b9150612eb3828561293e565b9150612ebe82612d18565b9150612ec982612d8a565b9150612ed482612dd6565b9150612ee0828461293e565b9150612eeb82612e22565b9150612ef682612e6e565b91508190509392505050565b7f646174613a6170706c69636174696f6e2f6a736f6e3b6261736536342c000000600082015250565b6000612f38601d83612557565b9150612f4382612f02565b601d82019050919050565b6000612f5982612f2b565b9150612f65828461293e565b915081905092915050565b7f4552433732313a206f776e657220717565727920666f72206e6f6e657869737460008201527f656e7420746f6b656e0000000000000000000000000000000000000000000000602082015250565b6000612fcc602983611e57565b9150612fd782612f70565b604082019050919050565b60006020820190508181036000830152612ffb81612fbf565b9050919050565b7f4552433732313a2062616c616e636520717565727920666f7220746865207a6560008201527f726f206164647265737300000000000000000000000000000000000000000000602082015250565b600061305e602a83611e57565b915061306982613002565b604082019050919050565b6000602082019050818103600083015261308d81613051565b9050919050565b7f45524337323155524953746f726167653a2055524920717565727920666f722060008201527f6e6f6e6578697374656e7420746f6b656e000000000000000000000000000000602082015250565b60006130f0603183611e57565b91506130fb82613094565b604082019050919050565b6000602082019050818103600083015261311f816130e3565b9050919050565b6000613132828561293e565b915061313e828461293e565b91508190509392505050565b7f4e487b7100000000000000000000000000000000000000000000000000000000600052601260045260246000fd5b600061318482611f07565b915061318f83611f07565b92508261319f5761319e61314a565b5b828204905092915050565b60006131b582611f07565b91506131c083611f07565b9250817fffffffffffffffffffffffffffffffffffffffffffffffffffffffffffffffff04831182151516156131f9576131f8612bd2565b5b828202905092915050565b7f45524337323155524953746f726167653a2055524920736574206f66206e6f6e60008201527f6578697374656e7420746f6b656e000000000000000000000000000000000000602082015250565b6000613260602e83611e57565b915061326b82613204565b604082019050919050565b6000602082019050818103600083015261328f81613253565b9050919050565b7f4552433732313a206f70657261746f7220717565727920666f72206e6f6e657860008201527f697374656e7420746f6b656e0000000000000000000000000000000000000000602082015250565b60006132f2602c83611e57565b91506132fd82613296565b604082019050919050565b60006020820190508181036000830152613321816132e5565b9050919050565b7f4552433732313a207472616e736665722066726f6d20696e636f72726563742060008201527f6f776e6572000000000000000000000000000000000000000000000000000000602082015250565b6000613384602583611e57565b915061338f82613328565b604082019050919050565b600060208201905081810360008301526133b381613377565b9050919050565b7f4552433732313a207472616e7366657220746f20746865207a65726f2061646460008201527f7265737300000000000000000000000000000000000000000000000000000000602082015250565b6000613416602483611e57565b9150613421826133ba565b604082019050919050565b6000602082019050818103600083015261344581613409565b9050919050565b600061345782611f07565b915061346283611f07565b92508282101561347557613474612bd2565b5b828203905092915050565b600061348b82611f07565b91507fffffffffffffffffffffffffffffffffffffffffffffffffffffffffffffffff8214156134be576134bd612bd2565b5b600182019050919050565b60006134d482611f07565b91506134df83611f07565b9250826134ef576134ee61314a565b5b828206905092915050565b7f4e487b7100000000000000000000000000000000000000000000000000000000600052603260045260246000fd5b7f4552433732313a20617070726f766520746f2063616c6c657200000000000000600082015250565b600061355f601983611e57565b915061356a82613529565b602082019050919050565b6000602082019050818103600083015261358e81613552565b9050919050565b7f4552433732313a207472616e7366657220746f206e6f6e20455243373231526560008201527f63656976657220696d706c656d656e7465720000000000000000000000000000602082015250565b60006135f1603283611e57565b91506135fc82613595565b604082019050919050565b60006020820190508181036000830152613620816135e4565b9050919050565b7f4552433732314d657461646174613a2055524920717565727920666f72206e6f60008201527f6e6578697374656e7420746f6b656e0000000000000000000000000000000000602082015250565b6000613683602f83611e57565b915061368e82613627565b604082019050919050565b600060208201905081810360008301526136b281613676565b9050919050565b600081519050919050565b600082825260208201905092915050565b60006136e0826136b9565b6136ea81856136c4565b93506136fa818560208601611e68565b61370381611e9b565b840191505092915050565b60006080820190506137236000830187611f9c565b6137306020830186611f9c565b61373d60408301856120b2565b818103606083015261374f81846136d5565b905095945050505050565b60008151905061376981611dbd565b92915050565b60006020828403121561378557613784611d87565b5b60006137938482850161375a565b91505092915050565b7f4552433732313a206d696e7420746f20746865207a65726f2061646472657373600082015250565b60006137d2602083611e57565b91506137dd8261379c565b602082019050919050565b60006020820190508181036000830152613801816137c5565b9050919050565b7f4552433732313a20746f6b656e20616c7265616479206d696e74656400000000600082015250565b600061383e601c83611e57565b915061384982613808565b602082019050919050565b6000602082019050818103600083015261386d81613831565b905091905056fe4142434445464748494a4b4c4d4e4f505152535455565758595a6162636465666768696a6b6c6d6e6f707172737475767778797a303132333435363738392b2fa2646970667358221220c9fc9aaef6592662d7de0daddedb751c138827be7da82518c7c7ee7bf91a80ad64736f6c634300080a0033",
  "linkReferences": {},
  "deployedLinkReferences": {}
}